:100000000C94FC050C9419060C9419060C94190612
:100010000C9419060C9419060C9419060C941906E4
:100020000C9419060C9419060C946F280C9443290F
:100030000C94C0220C9419060C9419060C94190601
:100040000C9419060C9419060C9419060C941906B4
:100050000C9419060C9446230C9419060C9419065A
:100060000C9419060C9419060C9419060C94190694
:100070000C9419060C9419060C9419060C94190684
:100080000C9419060C9419060C9419060C94190674
:100090000C9419060C9419060C9419060C94190664
:1000A0000C9419060C9419060C94190629001E00CC
:1000B0001F00200021002200000023002400250052
:1000C000260027002D00310014001A00080015003A
:1000D000170000001C0018000C0012001300300074
:1000E0002B0004001600070009000A0000000B00A6
:1000F0000D000E000F0033003400E1001D001B0056
:100100000600190005004C001100100036003700F1
:1001100038002F00E000E300E200350001512A0022
:1001200028002C002E002D0034002800E70010507D
:100130003A003B003C003D003E0000003F00400014
:1001400041004200430044000100010001000100A1
:100150000100010000004500010052000100010003
:100160000100010001000100010001000100000088
:100170000100500051004F00010001001250010029
:100180000100010001000100010001000100010067
:100190000100010001000100010001000100010057
:1001A0000100010001000100010001000100010047
:1001B00010500000000000000000000000000000DF
:1001C000000000000000000000000000000000002F
:1001D000000000000000000000000000000000001F
:1001E000000000000000000000000000000000000F
:1001F00000000000000000000000000000000000FF
:1002000000000000000000000000000000000000EE
:1002100000000000000000000000000000000000DE
:1002200000000000000000000000000000000000CE
:10023000005C44454255473A2064697361626C65CD
:10024000642E0A0044454255473A20656E61626C4F
:1002500065642E0A0000000000000000002A2B2820
:10026000000000000000000000000000000000008E
:1002700029000000002C1E342021222434262725AA
:100280002E362D3738271E1F2021222324252633E2
:1002900033362E37381F0405060708090A0B0C0DE4
:1002A0000E0F101112131415161718191A1B1C1DF6
:1002B0002F3130232D350405060708090A0B0C0DD4
:1002C0000E0F101112131415161718191A1B1C1DD6
:1002D0002F3130354C00000000000000000000000D
:1002E000000000000000000000000000000000000E
:1002F0000000000000000000007E0F00D4FFFFFFA0
:10030000C7000000780A0025303258006C65645F31
:100310007461736B3A20004F6E6573686F743A2096
:100320006163746976653A2025640A000A00253005
:10033000313662003A200025303258000A722F63AD
:100340002030313233343536373839414243444531
:10035000460A00290A002575002F002575005D2832
:100360000025640020002564002000256400200092
:100370002564007C0025303258006D6F7573656B05
:100380006579205B62746E7C782079207620685DC8
:10039000287265702F61636C293A205B00556E6985
:1003A000636F646520696E707574206D6F6465207D
:1003B00073657420746F3A2025750A00556E696361
:1003C0006F646520696E707574206D6F6465206957
:1003D0006E697420746F3A2025750A00313A0964F9
:1003E000656C6179282A31306D73293A2025750AA8
:1003F000323A09696E74657276616C286D73293AB8
:100400002025750A333A096D61785F7370656564FC
:100410003A2025750A343A0974696D655F746F5F17
:100420006D61783A2025750A353A09776865656CFB
:100430005F6D61785F73706565643A2025750A3673
:100440003A09776865656C5F74696D655F746F5FA5
:100450006D61783A2025750A00703A097072696EEC
:10046000742076616C7565730A643A09736574204B
:1004700064656661756C74730A75703A092B310A8C
:10048000646E3A092D310A6C743A092B31300A72C4
:10049000743A092D31300A4553432F713A09717569
:1004A00069740A0A7370656564203D2064656C7424
:1004B00061202A206D61785F7370656564202A2051
:1004C00028726570656174202F2074696D655F7492
:1004D0006F5F6D6178290A77686572652064656C65
:1004E00074613A20637572736F723D25642C2077B6
:1004F0006865656C3D25640A536565206874747091
:100500003A2F2F656E2E77696B6970656469612E6D
:100510006F72672F77696B692F4D6F7573655F6BAE
:100520006579730A004D3E20004D25753A25733ECE
:1005300020003F0A003D2025750A003F0A0064653F
:100540006661756C74730A0025750A003F0A000A1B
:10055000092D2056616C756573202D0A00710A0003
:100560000A092D204D6F7573656B6579202D0A0082
:100570003F00433E20004C25640A000A092D205309
:100580007461747573202D0A686F73745F6B65797D
:10059000626F6172645F6C65647328293A2025304C
:1005A00032580A6B6579626F6172645F70726F7442
:1005B0006F636F6C3A20253032580A6B6579626F31
:1005C0006172645F69646C653A20253032580A7440
:1005D000696D65725F72656164333228293A20253E
:1005E00030386C580A000A092D2056657273696FFD
:1005F0006E202D0A5649443A203078464545442815
:1006000050726F66657429205049443A203078361C
:10061000303632284174726575733632292056455A
:10062000523A203078303030310A4255494C443A01
:100630002020284170722020392032303232290A9D
:100640004F5054494F4E533A204C554641204D4F40
:100650005553454B45592045585452414B45592017
:10066000434F4E534F4C4520434F4D4D414E442038
:10067000343039360A4743433A20382E342E30205E
:100680004156522D4C4942433A20322E302E3020D2
:100690004156525F415243483A20617672350A0012
:1006A0000A092D20436F6E736F6C65202D0A455328
:1006B000432F713A09717569740A6D3A096D6F7546
:1006C00073656B65790A000A092D204D61676963BE
:1006D000202D0A443A094465627567204D6573739D
:1006E00061676520546F67676C650A583A094D6108
:1006F00074726978204465627567204D6F64652067
:10070000546F67676C65202D2053686F77206B6589
:10071000797072657373657320696E206D61747290
:10072000697820677269640A4B3A094B6579626F90
:1007300061726420446562756720546F67676C65F9
:10074000202D2053686F77206B6579707265737305
:10075000207265706F72740A4D3A0944656275675C
:10076000204D6F75736520546F67676C650A563A44
:100770000956657273696F6E0A533A09537461744E
:1007800075730A433A09416374697661746520435D
:100790006F6E736F6C65204D6F64650A46312D4630
:1007A00031303A0953776974636820746F204C6163
:1007B00079657220302D392028463130203D204C7B
:1007C00030290A302D393A095377697463682074E7
:1007D0006F204C6179657220302D390A475241569D
:1007E000453A0953776974636820746F204C6179C6
:1007F000657220302028616C7465726E61746529A1
:100800000A423A094A756D7020746F20426F6F7406
:100810006C6F616465720A4553433A094A756D709D
:1008200020746F20426F6F746C6F61646572202852
:10083000616C7465726E617465290A453A0950727B
:10084000696E7420454550524F4D2053657474694C
:100850006E67730A4253504143453A09436C6561E0
:100860007220454550524F4D0A006B65796D61709D
:100870005F636F6E6669672E7261773A202530324A
:10088000580A2E737761705F636F6E74726F6C5F5E
:10089000636170736C6F636B3A2025750A2E636118
:1008A00070736C6F636B5F746F5F636F6E74726F86
:1008B0006C3A2025750A2E737761705F6C63746CD7
:1008C0005F6C6775693A2025750A2E737761705FD2
:1008D0007263746C5F726775693A2025750A2E73AE
:1008E0007761705F6C616C745F6C6775693A202525
:1008F000750A2E737761705F72616C745F726775D1
:10090000693A2025750A2E6E6F5F6775693A202552
:10091000750A2E737761705F67726176655F6573C4
:10092000633A2025750A2E737761705F6261636B8D
:10093000736C6173685F6261636B73706163653A66
:100940002025750A2E6E6B726F3A2025750A006499
:10095000656275675F636F6E6669672E7261773A6D
:1009600020253032580A2E656E61626C653A20256A
:10097000750A2E6D61747269783A2025750A2E6B9E
:100980006579626F6172643A2025750A2E6D6F7504
:1009900073653A2025750A006565636F6E66696741
:1009A0003A0A64656661756C745F6C617965723A68
:1009B0002025750A003F000A6D6F7573653A206F38
:1009C00066660A000A6D6F7573653A206F6E0A00DD
:1009D0000A6B6579626F6172643A206F66660A001D
:1009E0000A6B6579626F6172643A206F6E0A000A61
:1009F0006D61747269783A206F66660A000A6D61EB
:100A0000747269783A206F6E0A000A6465627567CD
:100A10003A206F66660A000A64656275673A206F5D
:100A20006E0A000A0A4A756D70696E6720746F203D
:100A3000626F6F746C6F616465722E2E2E2000439E
:100A40003E2000436C656172696E672045455052D7
:100A50004F4D0A000A002530325820006B6579623C
:100A60006F6172645F7265706F72743A20005B73BD
:100A70005D005B575D005B535D005B525D005B4456
:100A80005D005B435D00120341007400720065006D
:100A9000750073003600320000000E035000720033
:100AA0006F00660065007400000004030904090279
:100AB0005B00030100A0FA0904000001030101002A
:100AC00009211101000122400007058103080001EE
:100AD00009040100010300000009211101000122A5
:100AE0007B000705820320000109040200020300C5
:100AF00000000921110100012222000705830320C3
:100B0000000107050303200001120100020000009C
:100B100008EDFE62600100010200010631FF097468
:100B2000A1010975150026FF0095207508810209AD
:100B300076150026FF00952075089102C005010971
:100B400002A10185020901A1000509190129081561
:100B5000002501950875018102050109300931154B
:100B600081257F95027508810609381581257F95B5
:100B70000175088106050C0A38021581257F95014B
:100B800075088106C0C005010980A101850319010E
:100B90002AB700150126B700950175108100C00520
:100BA0000C0901A101850419012AA002150126A042
:100BB00002950175108100C005010906A101050714
:100BC00019E029E7150025019508750181029501B5
:100BD000750881010507190029FF150026FF0095FA
:100BE000067508810005081901290595057501910B
:100BF00002950175039101C011241FBECFEFDAE009
:100C0000DEBFCDBF11E0A0E0B1E0EAE2F7E502C04F
:100C100005900D92AA3FB107D9F722E0AAEFB1E003
:100C200001C01D92A23FB207E1F70E943D180C944B
:100C30007D2B0C940000FF93EF93E091FA01F0916B
:100C4000FB01309709F00995EF91FF910895FC01A0
:100C50008591803011F0EFDFFBCF0895FF27E0E2B0
:100C600030E247FF0CC0419597FF09C0EDE2609567
:100C7000709580959095611D711D811D911D27FFB7
:100C800002C0219530E350E2AA27660F771F881F24
:100C9000991FAA1FA41710F0A41B63955A95A9F7D2
:100CA000AA3008F0A95FA05DAF93F39561157105B7
:100CB0008105910541F7ED3211F4EF93F395F217A9
:100CC00018F43F93F395FBCF8F91B5DFFA95E1F7D9
:100CD0000895E991F9918591803021F0853219F0DC
:100CE000AADFF9CF089520E0E89455915532C1F379
:100CF000503311F4689455915A3348F4505390F39B
:100D0000220F022E220F220F200D250FF4CF0EF4FA
:100D1000219589919991533619F3533729F1533518
:100D200059F1BC0188279927E8945C3621F4899110
:100D3000999168945591543639F446EF7EF077FFD7
:100D40000DC08FEF9FEF0AC055374AE039F0583594
:100D500040E121F0523642E009F00895FF93EF930D
:100D60007DDFEF91FF91B7CFFF93EF93FC0181916E
:100D70008030B9F360DFFBCFFF93EF9368DFF1CFF3
:100D8000DF93CF93CDB7DEB72596A3DFCF91DF9169
:100D900008959C013A9521153F4150F5FC01EE273D
:100DA000F170BC0166277270AC01442754709C013D
:100DB0002227387094FF0EC080E1EF2B09F480E009
:100DC000672B09F08062452B09F08064232B89F0A2
:100DD0008068089581E0EF2B09F480E0672B09F02B
:100DE0008260452B09F08460232B19F088600895F8
:100DF00080E00895CF93DF93EB010E94C906FE01C6
:100E0000DF91CF910994CF93DF93EC01805E91093C
:100E1000089720F062EC7CE0209711F46BE47AE014
:100E2000CE010E94FA068C2FDF91CF910C943F09DE
:100E3000CF93DF93EC010E94D609CE01805E910929
:100E4000089720F069EC7CE0209711F462E57AE0E5
:100E5000CE01DF91CF910C94FA06CF93DF93EC0192
:100E60000E940307C933D10549F42FEF87EE93E0C1
:100E7000215080409040E1F700C00000CE01DF919A
:100E8000CF910C94180781E0089581E008950C94A7
:100E9000450708950C9449071F93CF93DF9300D023
:100EA00000D00F92CDB7DEB749835A836B83309160
:100EB000FD0189819A8131111DC06623B9F0222379
:100EC000A9F00E948B0E182F682F89819A810E94A9
:100ED000370E69817A81812F0F900F900F900F90BC
:100EE0000F90DF91CF911F910C946A150E94630EB1
:100EF000182FEFCF0E948B0E69817A81EDCFFC0114
:100F0000262F408151816281738184810C944C072A
:100F100081E00895CF93DF93EC0160E00E947F07AA
:100F2000BE01DF91CF910C944A070C9482160C9469
:100F3000851608950E94E40C0E9499072FEF84E320
:100F40009CE0215080409040E1F700C000000C94EC
:100F50006A230F931F93CF93DF938C0161E00E946C
:100F60007F07EC01B8010E9447078823F1F1B8011F
:100F7000CE010E94431C8823C1F1B801CE010E941A
:100F80004421882391F1B801CE010E945F1C88237F
:100F900061F1B801CE010E94AE20882331F1F80141
:100FA0008281882361F0CF3DFCE5DF07B1F170F469
:100FB000C115ECE5DE07B9F0C130DC45E1F0C80150
:100FC000DF91CF911F910F910C944307CC358DE5A4
:100FD000D80749F1CD35DC0719F1CB35DD4579F777
:100FE0000E94DF12ECCF0E949A0780E0DF91CF9140
:100FF0001F910F91089590919102892F8E7F90FFFC
:1010000081608093910280FF05C084E492E00E9499
:101010002706EBCF82E392E0FACF0E948A13E5CF56
:101020000E94D612CCCF0E94E212C9CF0E94A42205
:101030000C94C3080E94C6080C94A822DF92EF9279
:10104000FF920F931F93CF93DF93E82FF0E0EB5ABB
:10105000FD4FD490282F26952695269530E0F9014E
:10106000EB50FD4F0491877010E0082E02C01595DB
:1010700007950A94E2F701701127F901EB51FD4F32
:10108000E490F12C082E02C0F594E7940A94E2F75C
:1010900091E0E922FF24F901EB52FD4FC491D0E029
:1010A00002C0D595C7958A95E2F7C170DD27011575
:1010B000110519F081EE0E943F09E114F10419F0C5
:1010C00086EE0E943F098D2D0E94430AEF2819F0F9
:1010D00086EE0E94D609012B19F081EE0E94D609F6
:1010E000CD2B51F08CE2DF91CF911F910F91FF90AA
:1010F000EF90DF900C94430ADF91CF911F910F91F5
:10110000FF90EF90DF900895982F9F709A5096303F
:1011100018F0805D0C941E08895AFCCF829590E0EF
:101120009C01220F331F220F331F2C7C959587952E
:10113000959587958373282B30E0C901880F991FF7
:101140008A7A359527952575822B0895CF93DF935D
:10115000D92F0E948E08C82F8D2F0E948E089C2F99
:10116000DF91CF91089508950C94B30881E008951C
:101170000C94B6080895CF93C82F0E94B4088C2F02
:10118000CF910C94B80880E00C94BB080E94A02179
:101190000C94BB08CF930E94A021C82F8091FC0122
:1011A0008C1741F1C093FC018091910282FF1EC017
:1011B00080FF1CC08CE093E00E9427068091910282
:1011C00080FF14C01F92CF9387E093E09F938F938B
:1011D0000E94C006809191020F900F900F900F9087
:1011E00080FF04C085E093E00E9427068C2FCF91FA
:1011F0000C94BB08CF910895CF93DF93CDB7DEB7A2
:101200002B970FB6F894DEBF0FBECDBF4F83588724
:1012100069877A878B8761110E9411121E821D8255
:1012200085E0FE013796DE01119601900D928A95B8
:10123000E1F78C819D81892B89F449815A816B81E9
:101240007C818D819E810E942F112B960FB6F89480
:10125000DEBF0FBECDBFDF91CF91089589819A8106
:1012600089238F3F51F3CE0101960E948807811197
:10127000E4CFEBCFFC01808191810C94CD0ECF9314
:10128000C82F882309F490C08238C1F40E94A0219D
:1012900081FD8AC089E30E94C9110E9431122FEF9B
:1012A00081EE94E0215080409040E1F700C00000C2
:1012B00089E30E94D011CF910C9431128338A1F4AC
:1012C0000E94A02180FD70C083E50E94C9110E9488
:1012D00031122FEF81EE94E0215080409040E1F7F1
:1012E00000C0000083E5E5CF8438A1F40E94A0216E
:1012F00082FD5AC087E40E94C9110E9431122FEF6B
:1013000081EE94E0215080409040E1F700C0000061
:1013100087E4CFCF8CEF8C0F813AB8F48C2F0E94EA
:101320005A20811141C06C2F8091020190910301DC
:101330000E944722882329F08C2F0E94D0110E94FE
:1013400031128C2F0E94C911B6CF80E28C0F8830E9
:1013500048F4C77081E001C0880FCA95EAF70E947F
:10136000F111A9CFEBE5EC0FE33040F4F0E0E95BDD
:10137000FE4F808190E0CF910C940922E8E5EC0FBC
:10138000E73150F4F0E0EE0FFF1FE75EFE4F808183
:101390009181CF910C941F22CD3E30F08C2F0E9472
:1013A000C118CF910C949419CF910895882309F412
:1013B00052C0823871F40E94A02181FF4CC089E3A1
:1013C0000E94C9110E94311289E30E94D0110C942D
:1013D0003112833859F40E94A02180FF3CC083E57C
:1013E0000E94C9110E94311283E5EFCF843859F46D
:1013F0000E94A02182FF2FC087E40E94C9110E9491
:10140000311287E4E2CF9CEF980F913AF0F290E22C
:10141000980F983050F4877091E001C0990F8A9529
:10142000EAF7892F0E94F711D2CF9BE5980F9330EE
:1014300020F490E080E00C94092298E5980F973111
:1014400020F490E080E00C941F228D3E20F00E945A
:101450001B190C94941908951F93CF93DF93182FA1
:10146000EB010E943F09209731F4812FDF91CF914A
:101470001F910C94D6098FE99FE00197F1F700C006
:1014800000002197F0CF70E060E0893311F460E54F
:1014900070E00C942C0A882321F00E94F1110C9426
:1014A00031120895882321F00E94F7110C94311213
:1014B0000895BF92CF92DF92EF92FF920F931F9306
:1014C000CF93DF936C01D62FC72FFC011281F580DB
:1014D000F2949FE0F9220E94E711E82E8823B9F0E8
:1014E000E12E1123A1F08C2F807F803421F080E247
:1014F0008D0F8830D0F08091C50282FD16C082E049
:101500000E9492120E94E71191E0E82EE926BC2E7B
:10151000B2948FE0B822FBE0FB1508F468C0EB2D15
:10152000F0E0E158F44D0C94142BE12CF0CF0C2F8B
:101530000F70C07F11F00295007F112399F00023F6
:1015400059F080E28D0F883010F0D11107C0802F44
:101550000E94F1110E9431128D2F41C0802F0E94F4
:101560000412F8CF8D2F0E94D609002309F43FC042
:1015700080E28D0F883010F0D11104C0802F0E94BE
:10158000F71103C0802F0E940A120E9431122FC04F
:101590000C2F0F70C07FC03211F00295007FDD2349
:1015A00081F0D13009F469C0112309F473C0FF2020
:1015B00009F469C0F601858180FFCECF8F708583E5
:1015C00062C08091C50282FF38C0112359F0002308
:1015D00029F0802F0E94F1110E94311280E00E94B8
:1015E0003F0905C080E00E94D6090111C7CFEB2D4D
:1015F000E850FF0B349720F40E94A0210E94BB0802
:10160000EE2009F472C10E94E31180FD6EC1F60163
:1016100012820E94DD110E949B0DC6010E94960C51
:101620000E94DD11DF91CF911F910F91FF90EF90FC
:10163000DF90CF90BF900C94BC0D112389F0F11076
:1016400006C00E941412802B0E944B0AD0CF21E0CA
:10165000F212F7CF0E941412802B0E941A12C7CFE9
:10166000F11006C00E942712802F0E94520ABFCF9D
:1016700031E0F31609F4BBCFF5CF112331F085E04B
:101680008F1508F4B4CF802FDFCF94E09F1508F4B6
:10169000AECFEACFFF2041F3D93349F4FFEF27EE75
:1016A00033E0F15020403040E1F700C000008D2FC2
:1016B0000E94D6099CCF8C2F86958695837069F001
:1016C000813009F094CF8D2F9C2F9370111102C09F
:1016D00090E080E00E941F228ACF8D2F9C2F937074
:1016E000111102C090E080E00E94092280CF8D2F6E
:1016F000112329F00E94C1180E94941978CF0E94EA
:101700001B19FACF8C2F837009F041C011116FCFD4
:101710004D2F429546954770440F440F0D2F0F7083
:1017200010E030E020E0042E04C0000F111F221F43
:10173000331F0A94D2F760E070E0CB01D4FF0FC0F2
:101740006FE070E080E090E004C0660F771F881FB4
:10175000991F4A95D2F76095709580959095C6959A
:10176000C695C370602B712B822B932BC23049F02E
:1017700058F4C13019F00E944D0D39CF0E943B0D35
:1017800036CF0E945F0D33CF0E94390D30CF869542
:10179000112311F08C2F8170882309F428CF4D2F4D
:1017A000429546954770440F440F0D2F0F7010E07F
:1017B00030E020E0042E04C0000F111F221F331F51
:1017C0000A94D2F760E070E0CB01D4FF0FC06FE065
:1017D00070E080E090E004C0660F771F881F991FBB
:1017E0004A95D2F76095709580959095C695C69567
:1017F000C370602B712B822B932BC23049F058F4AD
:10180000C13019F00E94120EF2CE0E94000EEFCEEF
:101810000E94240EECCE0E94750DE9CECF701123EC
:1018200029F08C2F0E949B0D8D2F0ECF8D2F0E94A3
:10183000520A8C2F0E94BC0DDACED23F51F160F4D7
:10184000D03FB9F0D13F81F0112309F449C0F11024
:1018500083CE8C2F8F7121C0D33F11F1D43FA1F7DC
:101860008091C50282FF26C08C2F8F71112311F346
:1018700014C0112349F084E08F1508F4B8CE8C2FE2
:101880008F710E94DF0DB3CE95E09F1508F4AFCEA7
:10189000F6CF8C2F8F711111CDCF0E949B0DA7CE4B
:1018A000112329F08C2F8F710E94860DA0CE0E94EB
:1018B000810D9DCE112349F0CF718C2F0E949B0D7D
:1018C00063E08C2F0E94771292CE81E00E949212E8
:1018D000E1E0EF1508F08BCE82E00E94921287CEF5
:1018E000F110DACE8C2F8F71A5CFDF91CF911F91A0
:1018F0000F91FF90EF90DF90CF90BF9008950F93DE
:101900001F93CF93DF93EC01688179818A810E94D4
:10191000D70E8C010E94360E0E94380DB801CE0100
:10192000DF91CF911F910F910C94590ACF93DF93C0
:10193000EC018B819C81892B29F0888199818923F5
:101940008F3F59F4DF91CF910895CE010E947F0C13
:10195000CE01DF91CF910C948A07CE010E94A90796
:101960008111F3CF0E94E711882361F38A818823D4
:1019700049F38091C50282FDE5CF82E0DF91CF91EE
:101980000C949212882321F00E9404120C943112BC
:101990000895882321F00E940A120C9431120895B0
:1019A00090E080E00E94092290E080E00E941F22E7
:1019B0000E9411120E9431120E943D1B0C94941936
:1019C0000E94D7110C94D00C0E9401120C94E00CD0
:1019D00092959F70963091F058F4925F9F7092307C
:1019E00058F4803F19F030F4883E30F481E00895D7
:1019F0009A5FF4CF843FD1F380E00895883EB0F33E
:101A0000813FD1F7F3CFFC01808191810E94CD0EFF
:101A10000C94E80CCF93DF9300D000D00F92CDB799
:101A2000DEB70F900F900F900F900F90DF91CF9136
:101A30000895CF93DF9300D000D000D0CDB7DEB7AC
:101A400026960FB6F894DEBF0FBECDBFDF91CF91C3
:101A5000089508950C94290D0E942A0D60932F0279
:101A60007093300280933102909332020C94D00C28
:101A700008950C942C0D0F931F9300912F02109139
:101A800030022091310230913202602B712B822B77
:101A9000932B1F910F910C942C0D0F931F9300917A
:101AA0002F021091300220913102309132026023D6
:101AB0007123822393231F910F910C942C0D0F936C
:101AC0001F9300912F02109130022091310230912A
:101AD000320260277127822793271F910F910C9460
:101AE0002C0D0C94290D0C94710D0E94730D6093B4
:101AF0002B0270932C0280932D0290932E020C9453
:101B0000D00C60E070E0CB010C94750D0F931F9327
:101B100041E050E060E070E08A019B0104C0000FEA
:101B2000111F221F331F8A95D2F7C901B8011F91D7
:101B30000F910C94750D0F931F9341E050E060E0FE
:101B400070E004C0440F551F661F771F8A95D2F7B7
:101B500080912B0290912C02A0912D02B0912E0227
:101B60008A019B01082B192B2A2B3B2BC901B80199
:101B70001F910F910C94750D0F931F9341E050E04E
:101B800060E070E004C0440F551F661F771F8A9500
:101B9000D2F7CB01BA016095709580959095009130
:101BA0002B0210912C0220912D0230912E026023E5
:101BB0007123822393231F910F910C94750D0F9322
:101BC0001F9341E050E060E070E004C0440F551FF7
:101BD000661F771F8A95D2F780912B0290912C0275
:101BE000A0912D02B0912E028A019B01082719278E
:101BF0002A273B27C901B8011F910F910C94750D3D
:101C00000F931F9300912B0210912C0220912D0213
:101C100030912E02602B712B822B932B1F910F91F1
:101C20000C94750D0F931F9300912B0210912C02B1
:101C300020912D0230912E02602371238223932361
:101C40001F910F910C94750D0F931F9300912B0210
:101C500010912C0220912D0230912E0260277127C5
:101C6000822793271F910F910C94750D08952DE0F5
:101C7000929F800D1124982F977041E001C0440F6E
:101C80009A95EAF786958695869595E0899FF00165
:101C90001124E250FE4F90E080E070E05191DF01AE
:101CA00011979B01082E02C0369527950A94E2F7FA
:101CB000217021952527242325272C9301968530F3
:101CC000910561F708952DE0929F800D1124982FC2
:101CD000977086958695869525E0829FF001112460
:101CE000E250FE4F50E040E080E0219130E0092ECC
:101CF00002C0369527950A94E2F721703327042E07
:101D000001C0220F0A94EAF7822B4F5F5F4F4530E4
:101D1000510559F70895BF92CF92DF92EF92FF924B
:101D20000F931F93CF93DF938C01C0902B02D09021
:101D30002C02E0902D02F0902E0280912F029091C3
:101D40003002A0913102B0913202C82AD92AEA2A7F
:101D5000FB2ACFE1D0E0BC2ED701C6010C2E04C077
:101D6000B695A795979587950A94D2F780FD0EC0F2
:101D7000219788F7B12C8B2DDF91CF911F910F9177
:101D8000FF90EF90DF90CF90BF900895B8018C2F17
:101D90000E947E15019761F3EECFCF93DF93EC01A4
:101DA0000E948B0EBE01DF91CF910C947E151F9384
:101DB000CF93DF93EB019091FD01992331F0CB019B
:101DC000DF91CF911F910C94CD0E882379F0CB0138
:101DD0000E948B0E182F682FCE010E94370EBE0175
:101DE000812FDF91CF911F910C947E15CB010E9422
:101DF000630E182FF4CF1F93CF93DF93C09133025C
:101E000016E0809134028C1304C0DF91CF911F91B2
:101E10000895D0E01C9FF0011D9FF00D1124EB5C94
:101E2000FD4F4081518162817381848195810E943F
:101E3000190D2196C770E5CF409165025091660259
:101E400060916702709168028091690290916A02C4
:101E50000C94190DFF920F931F93CF93DF938091F2
:101E60006A02807FD1F4809167028823B1F080916B
:101E70003302109134026091650270916602A09164
:101E80006802B0916902062F0723C0910001D0912A
:101E9000010196E0F92E181306C0DF91CF911F9132
:101EA0000F91FF90089590E0109711F00F3F19F4F3
:101EB00001968770F0CFF89E9001F99E300D1124A5
:101EC000F901EB5CFD4F41814713F2CF408146138E
:101ED000EFCF42814111ECCF438154814A1B5B0B10
:101EE0004C175D0728F780916A028F70806180939C
:101EF0006A02F901E65CFD4F80818F70806180830A
:101F000085E692E00E94960CDF91CF911F910F9190
:101F1000FF900C94FB0EAF92BF92CF92DF92EF92A4
:101F2000FF920F931F93CF93DF93CDB7DEB76197E7
:101F30000FB6F894DEBF0FBECDBF8C0185E0F8016F
:101F4000DE011D9601900D928A95E1F7F801E2807D
:101F500085E6C82E82E0D82E6091680270916902F1
:101F60006115710509F45FC19091650220916602C7
:101F7000892F82238F3F09F456C140815181A3806C
:101F8000B480F0906702F501E61BF70BBF01E0910A
:101F90000001F0910101FF2009F4F6C080916A026E
:101FA000382F307F6E177F0708F0AFC0311179C02E
:101FB000FE2C251323C0941321C0E1101FC08F7085
:101FC000806180936A020E941C0FC6010E94960CD9
:101FD00080916A02F80185838F2D61960FB6F8947F
:101FE000DEBF0FBECDBFDF91CF911F910F91FF904C
:101FF000EF90DF90CF90BF90AF900895AB2829F07D
:10200000842F85238F3F09F027C180E0F82FF170DE
:10201000DF2E80FF3CC0809133022091340236E0F5
:10202000821315C04D875E878D859E850E94CD0EDB
:10203000292F22952F702230F0F0243018F59F7050
:10204000F1F0F8019581907FD1F4D12C1EC090E081
:10205000389FF001399FF00D1124EB5CFD4F618139
:10206000651306C06081641303C062816E110FC0E6
:1020700001968770D5CF9F7011F0882331F3805E71
:10208000883018F3C8010E94960CFD2CA5CFEE20D5
:1020900009F4A2CF80916A02816080936A02F12CD8
:1020A0009BCF251306C0941304C0F801EE2009F459
:1020B00087C0C8010E94030D882319F1EE2009F1A1
:1020C00080916A02803270F0209165023091660240
:1020D00038872F831986BB86AA868C87CE01079600
:1020E0000E94960C86E0F801A5E6B2E001900D9200
:1020F0008A95E1F70E942A0F0E941C0FFF24F39497
:102100006BCFC8010E94960CF9CF311113C07A2D04
:10211000B98AA88A6E2D89890E940A0D85E692E007
:102120000E94960C86E0F60111928A95E9F70E94CA
:102130001C0FB5CF25130FC094130DC0E1100BC0B9
:10214000F8018583C8010E94960C86E0F601119281
:102150008A95E9F741CFC8010E94030D882389F2CF
:10216000EE2079F280916A02803208F4BBCF209190
:102170006502309166023A8329831B82BD82AC825C
:102180008E83CE010196ACCF6E177F0708F03EC05C
:10219000FE2CEE2009F4B5CF25132AC0941328C0D5
:1021A00080916A0280FD1BC0982F907FC1F0F801DA
:1021B0008583903F31F0982F907F905F8F70892BAF
:1021C0008583C8010E94960C86E0F801A5E6B2E07E
:1021D00001900D928A95E1F70E941C0FFDCE86E0DA
:1021E000F801A5E6B2E001900D928A95E1F7F4CEF0
:1021F000C8010E94030D811175CF80916A02816030
:1022000080936A02C8010E94960CE6CE7A2DB98AA4
:10221000A88A6E2D89890E940A0D86E0F601119226
:102220008A95E9F7D9CFEE2009F46BCFC8010E9457
:10223000030DF82E882309F464CF86E0F801A5E6A3
:10224000B2E001900D928A95E1F785E692E00E9456
:102250003A090E942A0FC0CF81E08E25D7CE1F9366
:10226000CF93DF93CDB7DEB72C970FB6F894DEBFD0
:102270000FBECDBF4F83588769877A878B879C872E
:10228000CE0107960E948B0F882369F08A859B8573
:10229000892B39F04F815885842F85238F3F09F092
:1022A00071C016E05FC086E0FE013796DE01119630
:1022B00001900D928A95E1F78A859B85892B89F398
:1022C0008F81988589238F3F61F32091340230E01C
:1022D000C901019687709927409133024817190662
:1022E00071F40E94E40C109234021092330286E0E2
:1022F000E5E6F2E0DF011D928A95E9F7D2CF96E09C
:10230000929FD001939FB00D1124AB5CBD4FFE0195
:10231000319601900D929A95E1F7809334020E94D4
:10232000FB0EBFCF819FC00111248B5C9D4F0E948B
:102330008B0F8823E9F0E09133021E9FF0011124F6
:10234000EB5CFD4F40815181628173818481958175
:102350000E94190D8091330290E0019687709927B1
:102360008093330280913302909134028913DACF43
:102370002C960FB6F894DEBF0FBECDBFDF91CF9184
:102380001F91089569857A858B859C850E94190D1A
:1023900088CF682F80910201909103010C947D22D7
:1023A000682F80910201909103010C947F2280910B
:1023B0000201909103010C94812280917302859512
:1023C0008595859508958091730287700895909101
:1023D0007302977081E009F480E0089580917E0295
:1023E000089590917E02892B80937E0208958095B6
:1023F00090917E02982390937E02089580937E02AE
:10240000089510927E02089590917D02892B809309
:102410007D020895809590917D02982390937D028E
:10242000089510927D020895809174020895089590
:102430000C9417129091C50292FD08C090917402FD
:10244000981721F0809374020C94181208958091CB
:102450007402882329F01092740280E00C94181200
:102460000895CF93DF93E0910201F09103018091F1
:102470007E028083E0910201F091030180819091BE
:102480007D02892B808390917402992381F0E091E1
:102490000201F09103018081892B808380910201E8
:1024A000909103010E94352281110E942712C09150
:1024B0000201D091030148E050E06BE672E0CE01EA
:1024C0000E942E2B892B69F088E0FE01ABE6B2E07A
:1024D00001900D928A95E1F7CE01DF91CF910C9496
:1024E000AF21DF91CF91089508950C9474129091CB
:1024F000C50292FD10C098E0899F90011124622BC3
:10250000609373020E949B0D80917302859585955F
:1025100085950C9475120C949B0D1092730280E0BB
:102520000C947512909173028095892380937302A5
:10253000282F277091F4282F082E000C330B9217A8
:10254000130659F09091C50292FD07C085958595B7
:1025500085950E94BC0D0C948D120895CF93C82FC1
:102560008091C50282FB992790F99C17E9F0C0FB86
:1025700082F98093C5028091C4029091C5020E94A5
:10258000061382E00E9492128091910280FF0CC09B
:102590001F92CF9387E193E09F938F930E94C00691
:1025A0000F900F900F900F90CF9108958091C502DA
:1025B00082FB882780F991E089270C94AE1281E094
:1025C0000C94AE1280E00C94AE1290E080E00E9479
:1025D000432B21E0893E9E4F09F020E0822F089591
:1025E00082E090E00C943B2B83E090E00C943B2B3A
:1025F000CF9384E090E00E943B2BC82F82E290E0D2
:102600000E943B2B982F8C2FCF910895CF93C92FE9
:10261000682F84E090E00E94492B6C2F82E290E0CA
:10262000CF910C94492BAB01BC018FE090E00C944E
:102630005B2BAB01BC0183E190E00C945B2B60E071
:1026400070E0CB010C94191360E070E0CB010E94A4
:1026500013130C941F1369EE7EEF90E080E00E944C
:10266000672B60E082E090E00E94492B60E083E00D
:1026700090E00E94492B10922F021092300210928B
:1026800031021092320260E084E090E00E94492B17
:1026900060E082E290E00E94492B60E085E090E0FB
:1026A0000E94492B60E086E090E00E94492B6FEF8A
:1026B00087E090E00E94492B40E050E0BA0188E0BA
:1026C00090E00E945B2B60E08DE090E00E94492B3F
:1026D00040E050E0BA0188E190E00E945B2B60E0AE
:1026E00087E190E00E94492B40E050E0BA018CE184
:1026F00090E00E945B2B70E060E080E290E00E943E
:10270000672B40E050E0BA0188E190E00E945B2B2B
:102710000C9424130C942B13682F8EE090E00C94EF
:10272000492B0E942B2360938D0270938E0280931D
:102730008F02909390026093890270938A02809333
:102740008B0290938C02089585B7806885BF85B70A
:10275000806885BF0895089508950C94AC1308957A
:102760000C94AF130E94A4138BE495E20E9496216F
:102770000E94AB130C94AD1381E008950C94BC132C
:10278000089508950E94C0130C94C1130E945D1611
:102790000E94BA080C94731B0E9416230E948D1786
:1027A0000E94C6130C94B0137F928F929F92AF92A7
:1027B000BF92CF92DF92EF92FF920F931F93CF932E
:1027C000DF93CDB7DEB72A970FB6F894DEBF0FBE02
:1027D000CDBF0E94A217A82E81110E9491135FE71E
:1027E000852E52E0952E10E000E0702E802F0E9482
:1027F00087166C01F401E190F1904F01E816F9069B
:1028000009F453C08091910281FD0E949016C70186
:102810008C259D25B12CEE24E394F12C9C012E21D6
:102820003F21232BE1F10E94BE138823A9F0BE8231
:102830007F82CE20DF2081E0CD2809F480E08887E8
:102840000E941F238160782F9A8789874E815F813C
:1028500068858A850E94FC08000F111FF801E15865
:10286000FD4F80819181E826F926F182E08281E0A6
:10287000A11001C080E02A960FB6F894DEBF0FBE0B
:10288000CDBFDF91CF911F910F91FF90EF90DF901F
:10289000CF90BF90AF909F908F907F900895B3940A
:1028A000EE0CFF1CFDE0BF12B9CF0F5F1F4F0530CC
:1028B000110509F09ACF8FEF89838A831B820E94CA
:1028C0001F238160782F9D838C8349815A816B817E
:1028D0008D810E94FC08CBCF0E94D4130E94311A34
:1028E0000C94CA08CF93DF930E948215EC018115E6
:1028F00021E5920708F042C0811530E5930708F002
:102900009DC0883E910530F5803E910508F092C04B
:10291000883A910588F4853A910508F084C08130A1
:10292000910509F487C0009709F484C0049708F062
:1029300081C0D0E0C0E07EC08F3B9105D0F7C85A7F
:10294000D0E0CC0FDD1FC65BDE4F0990D881C02DD3
:10295000D46470C08115904250F4C11581E0D8074D
:1029600008F068C0CD3ED10520F3D06563C0C11525
:1029700090E4D907F0F2DF70D06A5CC0811525E5DC
:10298000920700F5811534E5930708F08BC0811597
:1029900043E5940708F073C0C11582E5D80708F431
:1029A00069C0CE018370992721E030E002C0220F78
:1029B000331F8A95E2F7C695C69580E2C89FE0016D
:1029C000112454C0C11599E5D907A8F4C11528E50B
:1029D000D20708F06CC0C11536E5D30708F0A9CFBF
:1029E0008C2F0E941916C82FD0E0DC2FCC27CC27C3
:1029F000DF71D0621FC0C1154AE5D40708F45CC07E
:102A0000CE0190568115904208F093CF8D2F8F7193
:102A10000E94191690E0982F882788279F719C01A3
:102A20002C2BE901E6CFC55AD0E0C858DE4FC8814B
:102A3000D0E0D064CE01DF91CF910895E4E0969587
:102A40008795EA95E1F783702C2F269526952370BC
:102A500040E2249F90011124382B8C2F8370C1E019
:102A6000D0E002C0CC0FDD1F8A95E2F7C22BD32B3A
:102A7000DC68E0CFDC2FCC27C16FD06ADBCF83705E
:102A8000992721E030E002C0220F331F8A95E2F738
:102A9000C695C69590E2C99FE0011124C22BD32BA5
:102AA000DA68C8CFD82FCC27C46FD06AC3CFDC2F49
:102AB000CC27C06FD06ABECF8C2F8F700E941916A2
:102AC00034E0D695C7953A95E1F7CF709C2FEC018D
:102AD000D069B0CF972F70E02DE0929F600D711DEF
:102AE0001124FB0191E4899FE00DF11D1124EE0FEB
:102AF000FF1FE455FF4F8591949108950E946A1538
:102B00000C94721482389105B1F1B0F481339105BF
:102B100009F475C048F48932910509F469C08A3214
:102B2000910509F473C008958533910509F459C0DE
:102B30008933910501F10895833E9105A9F138F497
:102B4000803E9105F9F0823E910549F10895863E57
:102B50009105A9F1873E9105C9F1843E910519F5CA
:102B60002091C50221FF1FC08091C40284FD14C0C2
:102B700087EE90E008952091C4022370A1F080EECA
:102B800090E008952091C40220FD47C03091C50215
:102B900030FF09C024FF44C090E080E004C02091D1
:102BA000C40222FDF7CF08952091C40222FD3BC04C
:102BB0003091C50230FDE3CF24FFF5CFEDCF20915A
:102BC000C40223FFF0CF24FDE7CFD2CF2091C4026F
:102BD00023FD2CC03091C50231FFEECF84EE90E092
:102BE00008952091C40225FFDECF89E290E0089588
:102BF0002091C40225FFD7CF85E390E0089520916E
:102C0000C40226FFD0CF8AE290E008952091C4024A
:102C100026FFC9CF81E390E0089589E390E008950D
:102C200083EE90E0089582EE90E0089586EE90E0C5
:102C300008959091C40292FF06C0282F2871283071
:102C4000F9F4877F846093FF06C0282F287128310C
:102C5000F1F4877E84612091C50220FF06C0382FE1
:102C600038713830D9F4877F816021FF06C0282F62
:102C700028712831D1F4877E816194FD877E089583
:102C8000282F24712430F9F68B7F8860DCCF282F21
:102C90002471243101F78B7E8861DDCF382F3171AB
:102CA000313019F78E7F8860E0CF282F21712131D4
:102CB00021F78E7E8861E1CF08950E94E51281118F
:102CC00002C00E948A130E94F012809391020E9417
:102CD000F8129093C5028093C4020E945C160E9471
:102CE000F412682F70E090E080E00E94390D60914E
:102CF0002B0270912C0280912D0290912E020C9447
:102D0000730D08950C94811608950C948416E82F81
:102D1000F0E0EE0FFF1FE053FD4F80819181089599
:102D2000CF92DF92EF92FF920F931F93CF93DF9397
:102D30008CE393E00E94270680EDE82E82E0F82ED7
:102D4000D0E0C0E097E3C92E93E0D92E0EE213E065
:102D5000DF93CF93DF92CF920E94C00684E393E08B
:102D60000E942706F701819191917F010E94A60898
:102D70009F938F931F930F930E94C0068CE293E062
:102D80000E94270621968DB79EB708960FB6F89435
:102D90009EBF0FBE8DBFC530D105D1F6DF91CF915B
:102DA0001F910F91FF90EF90DF90CF90089580EAF0
:102DB0008A95F1F7089500C008950C94D716F894F9
:102DC000E82FE295EF70F0E031A1282F2F7081E01D
:102DD00090E001C0880F2A95EAF7982F90959323E9
:102DE00091A392A1892B82A378940895CF93DF9326
:102DF000CBE7D1E089918F3F11F00E94DF1681E08F
:102E0000C838D807B9F7C8E8D1E089918F3F11F0E9
:102E10000E94DF1681E0CD38D807B9F7DF91CF9156
:102E20000895AF92BF92CF92DF92EF92FF920F93ED
:102E30001F93CF93DF93D82EE92EF62E8A01C62F4B
:102E4000D0E0CE0185589E4F5C01EC0128812F3FD8
:102E500009F458C0F894E22FE295EF70F0E031A148
:102E60002F7081E090E001C0880F2A95EAF7932F38
:102E7000982B91A392A18095892382A378940E9494
:102E8000DB16A8E8B1E0ED2DFE2D6DE871E0E12C38
:102E90006801C094D0944D91808191814F3F69F138
:102EA000242F22952F7030E0E90128A130E04F70E7
:102EB00002C0359527954A95E2F720FD1EC0802B6C
:102EC000912B91838083EE24E39432966A177B07DB
:102ED00011F7F50180818F3F11F00E94DF166E2DF2
:102EE0008F2DDF91CF911F910F91FF90EF90DF9089
:102EF000CF90BF90AF900C94DD168C219D219183D3
:102F00008083E3CFDF91CF911F910F91FF90EF90DE
:102F1000DF90CF90BF90AF9008950E94F6168AE0A0
:102F2000E0EDF2E0DF01982F1D929A95E9F7E6ECCB
:102F3000F2E0DF011D928A95E9F785E00E94F7171C
:102F40000C949507CF92DF92FF920F931F93CF932C
:102F5000DF93CDB7DEB72A970FB6F894DEBF0FBE6A
:102F6000CDBF8E010F5F1F4F8AE0F80111928A9545
:102F7000E9F7F12CCC24C394D12CA6016F2DC80104
:102F80000E941117F394CC0CDD1CFDE0FF12F5CF6D
:102F90004AE050E0B80186EC92E00E942E2BFF241C
:102FA000F394009709F4F12C892B41F08AE0F801A1
:102FB000A6ECB2E001900D928A95E1F72F2D45E045
:102FC00060ED72E086EC92E00E94F8170E9497078D
:102FD0008F2D2A960FB6F894DEBF0FBECDBFDF91BE
:102FE000CF911F910F91FF90DF90CF90089508959A
:102FF000FF920F931F93CF93DF93F82E092F162F75
:10300000D72FC42F222349F081E0809394020E949D
:103010001F239093930280939202809194028823BD
:10302000A1F080919202909193020E94372305971C
:1030300060F0EF2DF02FA12FBD2F90E080E0D0E0C9
:103040008C179D0744F010929402DF91CF911F914D
:103050000F91FF900895219131912D933D93019609
:10306000EFCF0E94C6250E94CC130C94D2250E945B
:10307000D6250E946C140C94F4250E94BF220E9455
:10308000AD250E94B2130E9431180E9437180E9489
:10309000C213FBCF80919B0280FF0DC0609109019C
:1030A00070E0660F771F6038710570F56115710566
:1030B00069F1862F089581FF07C06091090184E0BE
:1030C000689FB0011124EFCF6091090182FD0AC011
:1030D00080919A028823A9F020910801609109014A
:1030E000821710F088E0ECCF869FC001112433E0F6
:1030F000880F991F3A95E1F7622F70E00E94002B2C
:10310000D2CF68E070E0D5CF8FE7089581E00895D1
:1031100080919B0280FF0CC06091050170E0759565
:103120006795759567956115710549F1862F089525
:1031300081FF06C06091050170E075956795F3CF3A
:103140006091050182FD0BC0909199029923A1F035
:103150006091040180910501961738F0682F70E0A6
:103160006038710500F38FE70895899FC00111242D
:1031700070E00E94002BF4CF61E070E0D7CF81E0D7
:1031800008958D3E31F40E944A18819580939F02E4
:1031900008958E3E19F40E944A18F8CF8F3E31F4FC
:1031A0000E944A18819580939E020895803F19F4E9
:1031B0000E944A18F8CF893F29F40E94881880930A
:1031C000A00208958A3F21F40E9488188195F7CFC4
:1031D0008B3F31F40E94881881958093A102089555
:1031E0008C3F19F40E948818F8CF9FE0980F983010
:1031F00070F4815F990B21E030E001C0220F8A95C5
:10320000EAF780919D02822B80939D0208958D3F65
:1032100031F480919B02816080939B0208958E3FE0
:1032200021F480919B028260F7CF8F3FB9F78091A4
:103230009B028460F1CF40919E028D3E59F48091B3
:103240009F0287FF0DC010929F0241110BC0109288
:103250009A0208C08E3E81F480919F0218169CF35A
:10326000442381F08091A0029091A102892B09F062
:103270005AC01092990208958F3E49F447FFF0CF4B
:1032800010929E0280919F028111ECCFE0CF803F8F
:1032900019F41416ACF3E4CF9091A002893F29F4FD
:1032A0001916F4F61092A002DBCF8A3F19F497FFAB
:1032B000D7CFF8CF9091A1028B3F29F497FFD0CFC1
:1032C0001092A102CDCF8C3F19F41916CCF3C8CFC0
:1032D0009FE0980F983090F4815F990B21E030E0E7
:1032E000B90102C0660F771F8A95E2F7CB0180957E
:1032F00090919D02892380939D02B2CF8D3F31F43E
:1033000080919B028E7F80939B02AACF8E3F21F4F7
:1033100080919B028D7FF7CF8F3F09F0A1CF8091E5
:103320009B028B7FF0CF08958091910283FF7EC036
:103330008AE793E00E94270680919D021F928F9357
:1033400085E793E09F938F930E94C00683E793E005
:103350000E94270680919E02282F082E000C330B16
:103360003F938F9380E793E09F938F930E94C006D3
:103370008EE693E00E94270680919F02282F082E58
:10338000000C330B3F938F938BE693E09F938F93C7
:103390000E94C00689E693E00E9427068091A00261
:1033A000282F082E000C330B3F938F9386E693E073
:1033B0009F938F930E94C00684E693E00E942706A5
:1033C0008091A102282F082E000C330B3F938F937E
:1033D00081E693E09F938F930E94C0068EE593E071
:1033E0000E94270680919A021F928F938BE593E0AB
:1033F0009F938F930E94C00689E593E00E94270661
:1034000080919B021F928F9386E593E09F938F9309
:103410000E94C00683E593E00E9427068DB79EB701
:103420004C960FB6F8949EBF0FBE8DBF0E941F230F
:103430009C0190919E0280919F02982B21F03093E5
:103440009802209397029091A0028091A102982B5C
:1034500021F030939602209395028CE992E00C942F
:10346000FB21EF92FF920F931F93CF93DF9300D036
:1034700000D000D0CDB7DEB786E0ECE9F2E0DE01A7
:10348000119601900D928A95E1F7E0909E02F090DE
:103490009F020091A0021091A10210929E02109230
:1034A0009F021092A0021092A1028E2D8F2991F0FE
:1034B00080919702909198020E943723AC019091DD
:1034C0009A02992309F43FC080910A0184171506D6
:1034D00008F447C0802F812B91F080919502909144
:1034E00096020E943723AC0190919902992309F426
:1034F00077C0809106018417150608F47FC080917B
:103500009E0290919F02892B9091A002892B90910D
:10351000A102892B11F00E94941986E0FE013196D8
:10352000ACE9B2E001900D928A95E1F726960FB6CC
:10353000F894DEBF0FBECDBFDF91CF911F910F91E9
:10354000FF90EF90089520910B018AE0289F900151
:1035500011242417350708F0BDCF9F5F90939A027E
:1035600002C09F3FD1F7EE2059F00E944A189FEF0A
:103570001E140CF491E0899F802D112480939E02EB
:10358000FF2059F00E944A189FEF1F140CF491E09D
:10359000899F802D112480939F0230919E023323B6
:1035A00009F498CF20919F02222309F493CF45EB91
:1035B0003403C0011124992359F090939E0245EBE6
:1035C000240390011124332339F030939F0282CFDA
:1035D00081E080939E02F3CF81E080939F027ACFB7
:1035E000209107018AE0289F9001112424173507B4
:1035F00008F085CF9F5F9093990202C09F3FD1F75B
:10360000002359F00E9488189FEF10160CF491E0E7
:10361000899F802D11248093A002112359F00E94CC
:1036200088189FEF11160CF491E0899F802D1124CA
:103630008093A1023091A002332309F460CF20913E
:10364000A102222309F45BCF45EB3403C00111240E
:10365000992359F09093A00245EB24039001112483
:10366000332339F03093A1024ACF81E08093A00246
:10367000F3CF81E08093A10242CF86E0ECE9F2E053
:10368000DF011D928A95E9F710929A021092990231
:1036900010929B020895CF93DF93EC0197FF0CC02B
:1036A000FB018281882341F00E94B11BCE019F77EC
:1036B0000E94281C0E94001C81E0DF91CF91089598
:1036C0009091DB02923069F48A3048F490E00996D8
:1036D0006AE070E00E94002B875A0C94430A8650DF
:1036E000FCCF0C9484088CE090E00E943B2B482F88
:1036F00050E070E060E04093DB025093DC026093A6
:10370000DD027093DE029091910290FF0CC01F9237
:103710008F938CEB93E09F938F930E94C0060F9042
:103720000F900F900F9008956091DB028CE090E075
:103730000C94492B8093DB020E94941B8091910290
:1037400080FF0EC08091DB021F928F938DE993E082
:103750009F938F930E94C0060F900F900F900F9031
:1037600008950E94AC21869581708093E0020E94AA
:10377000AC2181708093DA028091DB02813039F4D0
:103780008091E002882319F089E30E94430A0E9495
:10379000EE118093DF020E9401128091DB028130E2
:1037A00089F0882359F0823091F0843021F18FE341
:1037B0009CE90197F1F700C00000089582EE0E9495
:1037C0003F09F5CF88E193E00E942D07F0CF80916B
:1037D000DA02811103C083E50E94430A82EE0E944F
:1037E0003F098FE39CE90197F1F700C0000087E5EE
:1037F0000E94430ADCCF86EE0E94430A88E1F8CF9C
:103800008091DB02813071F0882341F08230A9F091
:103810008430E1F08091DF020C94FE1182EE0E9470
:10382000D609F8CF8CE20E94430A8091E0028823F7
:1038300089F389E30E94430AEDCF82EE0E94D60904
:103840008091DA028111E6CF83E5F4CF88E2F2CFEE
:103850000F931F93CF93DF938C01CCE0D0E0C8018E
:103860000C2E02C0969587950A94E2F78F700E94FD
:10387000601B2497CC3F8FEFD80789F7DF91CF915A
:103880001F910F9108950F931F93CF93DF93EC0136
:103890008B01FB018281882351F00E94EE11CE0141
:1038A000825E9C458530910510F40E949A1BB801F8
:1038B000CE01DF91CF911F910F910C944B1BCF93B1
:1038C000DF93EC01FB018281882309F433C1C4300A
:1038D000FDE5DF07C0F5CB3F9CE5D90730F49E013D
:1038E00022503C4524313105B0F50E94F8129093E6
:1038F000C5028093C402C1318CE5D80709F4EEC03B
:1039000008F069C0C930ECE5DE0709F4D5C0C8F598
:10391000C5308CE5D80709F4C7C000F5C330ECE525
:10392000DE0709F4B9C008F0BBC0C230DC4509F4B9
:10393000ADC08091C4029091C5020E9406130E94FE
:10394000E40C80E008C0C236EDE5DE0771F2C63A4D
:10395000FDE5DF0751F2DF91CF9108958091C40218
:103960008062C7309CE5D90709F493C08091C402F6
:103970008061C830DC4508F48CC08091C40280644A
:1039800088C08091C4028B7FCD30FCE5DF0709F44D
:1039900080C098F48091C4028E7FCB309CE5D9071B
:1039A00009F477C08091C4028C60CC30DC4508F407
:1039B00070C08091C4028D7F6CC08091C4028F7EE4
:1039C000CF30FCE5DF0709F464C008F47BC08091C8
:1039D000C4028F7D5EC0CE3F9CE5D90709F47AC052
:1039E00050F5C531FCE5DF0709F486C098F48091F5
:1039F000C402837FC3319CE5D90709F44AC008F4A7
:103A000071C00E94E40C9091C402892F97FB87F942
:103A100080583FC0CC3FFCE5DF0709F449C008F0FF
:103A200055C08091C5028160CB3FDC4509F081CF54
:103A30008093C5027ECFC230EDE5DE0709F468C091
:103A4000A8F4C1158DE5D80709F452C08091C502CC
:103A50008360C130DD4560F38091C502982F909559
:103A600091708E7F892B90FB81F9E2CFC236EDE514
:103A7000DE0709F451C0C63AFDE5DF0709F453C07B
:103A8000C330DD4509F055CF80E043C08091C402CA
:103A900081608093C4024DCF8091C4028260F9CFCF
:103AA0008091C4028460F5CF8091C4028860F1CF18
:103AB0008091C5028260BCCF0E94E40C8091C40258
:103AC0008068E7CF8091C402877FE3CF8091C502F1
:103AD0008E7FAECF8091C5028D7FAACF8091C40228
:103AE0008F7BD7CF0E94E40C8091C4028F77D1CF17
:103AF0008091C5028C7F9CCF8091C40282FB992764
:103B000090F921E0922790FB82F990FB83F9C1CFD5
:103B100081E00E948C130DCF9091C402892F8F7E7B
:103B200094FF8061B6CF9091C402892F8E7F90FF61
:103B30008160AFCF81E00FCF809104011F928F93FE
:103B4000809105011F928F93809108011F928F939E
:103B5000809109011F928F9380910A011F928F9388
:103B600080910B011F928F938CED93E09F938F9325
:103B70000E94C0068DB79EB70E960FB6F8949EBFF2
:103B80000FBE8DBF0895883228F58E3108F072C0BF
:103B90008B3041F130F4873009F4CFC08BE395E0EE
:103BA000E0C0833109F45FC08431C1F78DE595E051
:103BB0000E9427068091A602882309F4FEC0109275
:103BC000A6021092A5021092A4021092A3021092D3
:103BD000A20220C08F3409F4C7C0D8F5893231F36E
:103BE0008833E1F680E695E00E9427060E949C1D3E
:103BF0001F9281E08F931F9288E08F9389E594E074
:103C00009F938F930E94C0060F900F900F900F907C
:103C10000F900F902091A602222309F4C9C0809131
:103C2000A2029091A302009711F48DE891E09F9376
:103C30008F931F922F9389E295E09F938F930E9419
:103C4000C0060F900F900F900F900F900F9081E093
:103C50000895813509F49CC008F49CC0823509F0B0
:103C60009DCF81E082C08FE495E00E9427060E94EC
:103C70009C1DD0CF8D518093A602833009F442C0A1
:103C800058F48130C1F08230A1F11092A6028CE488
:103C900095E00E9427061BC0853009F445C0D8F185
:103CA000863099F784E091E09093A5028093A40276
:103CB00085ED91E008C08BE091E09093A5028093A0
:103CC000A40281E991E09093A3028093A2028091E3
:103CD000A602882309F49ECF1F928F9388E495E073
:103CE0009F938F930E94C0060F900F900F900F909C
:103CF00091CF8AE091E09093A5028093A4028AE993
:103D000091E0E1CF89E091E09093A5028093A40235
:103D100086EA91E0D8CF88E091E09093A502809365
:103D2000A40283EB91E0CFCF85E091E09093A502D0
:103D30008093A40282EC91E0C6CF81E080930B01D6
:103D400084E180930A018AE0809309018EE18093E7
:103D5000080188E08093050188E2809304018EE3E6
:103D600095E00E94270656CF8AE0E091A402F091E8
:103D7000A5023097D1F02081082E000C990B820FFC
:103D8000911D8F3F910541F03CF08FEF808307C07C
:103D90008FEFEBCF86EFE9CF97FFF8CF10828081CE
:103DA0001F928F9385E395E09BCF82E395E0D9CF77
:103DB00085E295E00E9427064ACF80E00895CF93E0
:103DC000C82F1F928F9386E795E09F938F930E9451
:103DD000C00661E070E080E090E004C0660F771FED
:103DE000881F991FCA95D2F70E94390D0F900F9026
:103DF0000F900F90CF910C94E40CEF92FF920F93E1
:103E00001F93CF93DF938B3109F401C108F09FC05A
:103E10008B3009F4BBC008F07DC0863009F4C9C0FE
:103E200048F4853009F4A1C085EB99E00E9427068B
:103E300080E0CFC0873009F4D3C08830A9F70E9452
:103E4000F4121F928F9388E999E09F938F930E94B9
:103E5000C0060E94F01283FB992790F91F929F934E
:103E600082FB992790F91F929F9381FB992790F9E4
:103E70001F929F93982F91701F929F931F928F93E1
:103E80008FE499E09F938F930E94C0060E94F812DE
:103E900087FB222720F91F922F9386FB222720F9E8
:103EA0001F922F9385FB222720F91F922F9384FBCB
:103EB000222720F91F922F9383FB222720F91F929C
:103EC0002F9382FB222720F91F922F9391FB222709
:103ED00020F91F922F93292F21701F922F9381FB7E
:103EE000222720F91F922F93282F21701F922F93A2
:103EF0009F938F938AE698E09F938F930E94C006CA
:103F00008DB79EB788960FB6F8949EBF0FBE8DBF33
:103F100081E05FC0803109F492C080F48E3009F0F6
:103F200083CF90919102892F8B7F92FF8460809341
:103F3000910282FF81C080EE99E075C0863109F45C
:103F40008EC0893109F070CF86EE95E021C08A32AB
:103F500049F190F4873211F128F48E3108F464CFDE
:103F60008D511DC0893209F05FCF83E29AE00E9433
:103F700027060E949A07CCCF833468F48A3308F06E
:103F800093C0853359F0883309F04ECF87EC96E023
:103F90000E942706BDCF833409F046CF80E00E94FF
:103FA000DF1EB6CF83E49AE00E9427060E948A13A0
:103FB000AFCF80919102807F8093910280EA96E05A
:103FC0000E9427068FE39AE00E94270681E08093F3
:103FD000A702DF91CF911F910F91FF90EF9008956D
:103FE00090919102892F8E7F90FF81608093910242
:103FF00080FF03C087E19AE0CBCF8AE09AE00E947D
:10400000270680919102817F8093910281CF9091C8
:104010009102892F8D7F91FF82608093910281FFB1
:1040200008C08DEF99E00E9427068091910281607F
:10403000EBCF8FEE99E0ACCF80ED99E0A9CF9091D6
:104040009102892F877F93FF88608093910283FF7D
:1040500003C084EC99E0E7CF87EB99E099CF0E9409
:104060002B23162F072FF82EE92ED091C302C091D3
:1040700018010E94A021EF92FF920F931F931F92AD
:10408000DF931F92CF931F928F938BE795E09F93BF
:104090008F930E94C0068DB79EB70C960FB6F8940A
:1040A0009EBF0FBE8DBF34CF895379CF80E0089576
:1040B0000C945620CF93C82F8091A7028130C1F075
:1040C000882339F0823009F444C01092A70280E0BE
:1040D0000DC00E94EE118232D1F78C2F0E94562023
:1040E00081111BC08C2F0E94FD1E8170CF910895FD
:1040F0000E94EE11823289F38C2F0E945820811188
:104100001BC0C431D9F060F4CB3071F0C031D1F0B4
:1041100080E795E00E94270613C081E090E0E5CF9C
:10412000C93261F0C833A1F780EA96E00E94270601
:1041300082E795E00E94270681E0D7CF1092A70280
:1041400080E0D3CF82E08093A70288E30E94C31D62
:10415000F3CF8C2F0E94C31D81E0C8CFCF93DF9394
:10416000EB0186319C4511F50E94EE119A8199234D
:1041700099F08A7A91E009F490E09093A802811175
:1041800009C089E20E94C9110E94311280E0DF91CA
:10419000CF91089585E3F6CF8091A802811104C0E4
:1041A00089E20E94D011F0CF85E3FBCF81E0EFCF11
:1041B0000F931F93CF93DF93C42FD22FFC018281E3
:1041C0008823C9F04093AB020E941F239093AA0258
:1041D0008093A90280E28C0F883008F050C0C7702D
:1041E00081E001C0880FCA95EAF7DF91CF911F9156
:1041F0000F910C944B0A1091AB02141335C08091AF
:10420000A9029091AA020E943723883C910560F58B
:10421000C0E2CD0F1D17B9F080E2810F883040F465
:10422000177081E001C0880F1A95EAF70E94520AC0
:10423000C83048F481E09D2F977001C0880F9A958F
:10424000EAF70E944B0A802F0E94430AC830B8F454
:10425000D77081E001C0880FDA95EAF7DF91CF913E
:104260001F910F910C94520A80E28C0F883038F421
:10427000C77081E001C0880FCA95EAF7EFCFDF91E0
:10428000CF911F910F9108950F939C01CB01243F73
:104290004CE5340759F1A8F4293DFCE53F0701F14D
:1042A0002A3D4CE53407D1F1283D3C4591F406E226
:1042B00021EE41EE68ED7CE50E94D82080E00F9170
:1042C0000895263FFCE53F07E9F0B0F0273F3C4565
:1042D000F9F0FC018281882339F11092AB02EFCF13
:1042E00007E225EE45EE69ED7CE5E6CF06E221EE3C
:1042F00040EE64EF7CE5E0CF07E225EE44EE65EFAB
:104300007CE5DACF06E221EE42EE66EF7CE5D4CF23
:1043100007E225EE46EE67EF7CE5CECF08E221E02E
:1043200045EE6AED7CE5C8CF81E0C9CF9093FB01F3
:104330008093FA0108959093B1028093B00208959A
:10434000E091B002F091B102309721F00190F0813C
:10435000E02D099480E008950E94A0210895EF9235
:10436000FF920F931F93CF93DF938C01E091B002E4
:10437000F091B1023097C1F10280F381E02D0995EF
:104380008091910282FF30C080FF04C08CE59AE0EA
:104390000E942706D0E0C0E086E5E82E8AE0F82EED
:1043A0008091910280FF0EC0F801EC0FFD1F80810B
:1043B0001F928F93FF92EF920E94C0060F900F9072
:1043C0000F900F902196C830D10551F7809191023E
:1043D00080FF0AC084E59AE0DF91CF911F910F9191
:1043E000FF90EF900C942706DF91CF911F910F91D2
:1043F000FF90EF900895E091B002F091B1023097F4
:1044000039F022E0DC012C930480F581E02D099441
:1044100008952091AE023091AF022817390771F04C
:104420009093AF028093AE02E091B002F091B1029E
:10443000309721F00680F781E02D099408952091AE
:10444000AC023091AD022817390771F09093AD029C
:104450008093AC02E091B002F091B102309721F06C
:104460000084F185E02D099408959C012E5F3F4F53
:10447000AC01485F5F4F80E02417350709F40895C9
:10448000F90191919F019923B9F38F5FF5CF6623CD
:1044900049F0FC01329608962191261729F0E81779
:1044A000F907D1F780E0089581E008959C01FC01AF
:1044B00032969FEF80E04191461751F09F3F19F4EB
:1044C000411101C0982F8F5F8630A9F79F3F09F4F3
:1044D0000895290F311D97FD3A95F90162830895DA
:1044E000FC01329608962191261303C0DF01119733
:1044F0001C92E817F907B9F708950C9456220C940A
:104500007022029626E0FC0111922A95E9F708959F
:1045100008950C948822811105C081E08093B20235
:104520000C94892282E0FACF83E08093B2020C944B
:1045300089220C948B2281E08093B2020C94892210
:104540000C949B22089508950C94A3220895089535
:104550000C94A222CF930E94A6220E94A2170E942E
:10456000A722C0E08C2F0E948716892B31F4CF5FE1
:10457000C530C1F780E0CF91089581E0FCCF089568
:104580001F921FB61F9211248F939F93AF93BF93D7
:104590008091B302811113C08091E1029091E202F7
:1045A000A091E302B091E4024196A11DB11D809358
:1045B000E1029093E202A093E302B093E402BF9180
:1045C000AF919F918F911F901FBE1F901895809162
:1045D000E902843031F10E9416081092B30288E19A
:1045E00090E020E40FB6F894A895809360000FBE89
:1045F0002093600083B7817F846083BF83B781602D
:1046000083BF7894889583B78E7F83BF0FB6F89465
:10461000A89580916000886180936000109260008E
:104620000FBE08950E94E40C0C941A0882E084BD29
:1046300093E095BD9AEF97BD80936E0008952FB7D4
:10464000F8948091E1029091E202A091E302B0918E
:10465000E4022FBF08952FB7F8946091E1027091A2
:10466000E2028091E3029091E4022FBF08959C0141
:104670004FB7F8948091E1029091E202A091E30299
:10468000B091E4024FBF821B930B089578941F9260
:104690001FB61F9211248F939F93AF93BF93809166
:1046A000E1029091E202A091E302B091E40201964E
:1046B000A11DB11D8093E1029093E202A093E30259
:1046C000B093E402BF91AF919F918F911F901FBE55
:1046D0001F90189587E797E790930108809300084B
:1046E00088E19AE00FB6F894A895809360000FBE19
:1046F00090936000FFCF8091C202089508959C01BD
:1047000082E08093E9009FEF8091E800915085FD61
:1047100006C085ED8A95F1F700009111F5CF8091E3
:10472000E80085FF0CC050E040E066E070E0C901A1
:104730000E9464268091E8008E778093E8000895B7
:10474000CF93DF93EC0181E08093E9008FEF9091AC
:10475000E800815095FD06C095ED9A95F1F70000AF
:104760008111F5CF8091E80085FF14C050E040E052
:1047700068E070E0CE010E9464268091E8008E77A8
:104780008093E80088E0FE01AAEBB2E001900D9270
:104790008A95E1F7DF91CF9108958093B6027093E7
:1047A000B8026093B7028091E902843001F582E09B
:1047B0008093E9008FEF9091E800815095FD06C04D
:1047C00095ED9A95F1F700008111F5CF8091E80001
:1047D00085FF0DC050E040E063E070E086EB92E0C2
:1047E0000E9464268091E8008E778093E800089507
:1047F000BC0184E00C94CD23BC0183E00C94CD2358
:1048000082E89AE00E9427068091E802811109C09F
:104810000E94F4270E9451288091E20084608093D6
:10482000E20008958EE79AE00E9427061092E802BF
:1048300008958AE79AE00E9427060C949B2286E757
:104840009AE00E9427066091E50281E0611101C0B3
:1048500080E00C94942282E79AE00E9427069091CF
:10486000E90281E0943009F080E06091E5020C9467
:1048700099222091B5022F5F822F62E30E94F42AD1
:10488000992319F02093B50208951092B5028091F2
:10489000B9028823F1F08091E9028430C1F490914B
:1048A000E9009F702091EC00822F817020FD80E84C
:1048B000892B93E09093E9009091EB0090FF04C066
:1048C0009091EE0097FD08C08F708093E9001092E0
:1048D000B90208951092F1009091E80095FDFACF89
:1048E0009091E80090FFF0CF9091E8009E77909330
:1048F000E800EACF42E061EC81E00E94702742E2EA
:1049000061EC82E00E94702742E261EC83E00E9449
:1049100070279091E90281E0943009F080E0609185
:10492000E5020C948B228091EB02833009F460C085
:1049300030F48130C9F1823009F49CC008958A3086
:1049400009F488C08B3009F46EC0893009F04FC07B
:104950008091EA02813209F04AC08091EE02909182
:10496000EF02029708F043C08091E800877F8093B0
:10497000E8008091E80082FF36C09091F3008091BA
:10498000F200029731F48091F100813011F086300D
:1049900021F48091F1008093C2028091E8008B772E
:1049A0008093E8000C94A4278091EA02813AF9F4FC
:1049B0008091E800877F8093E8008091EE029091DB
:1049C000EF02892B61F468E08AEB92E070E00E94CC
:1049D000B3268091E8008B778093E800089560E02B
:1049E00090E080E0F3CF8091E9028111C2CF089579
:1049F0008091EA02813AD9F78091EE029091EF021C
:104A0000892BA9F78091E800877F8093E800809147
:104A1000E80080FFFCCF809118018093F100809125
:104A2000E8008E77BDCF8091EA02813201F7809154
:104A3000EE029091EF02892BD1F68091E800877FFA
:104A40008093E8000E94A4278091EC0280931801D3
:104A50000C94E40C8091EA02813249F68091E800DE
:104A6000877F8093E8000E94A4278091ED028093C5
:104A7000C30208958091EA02813A09F0B8CF80918B
:104A8000E800877F8093E8008091E80080FFFCCFFA
:104A90008091C302C2CF9FB7F8941092B9029FBF12
:104AA0009091E902943009F048C02091E9002F70FC
:104AB0003091EC00932F917030FD90E8922B23E021
:104AC0002093E9002091EB0020FF34C02091EE00FC
:104AD00027FF30C02091B402222321F02091E8006A
:104AE00025FF28C01092B40226E03091E80035FF7F
:104AF00014C08093F1008091E80085FD27C080916B
:104B0000E80080FFFCCF8091E8008E778093E8007A
:104B10009F709093E90080E008953091E90234306D
:104B200049F43091EB0035FD05C0215041F481E09E
:104B30008093B4029F709093E9008FEF0895EFE99E
:104B4000FFE03197F1F700C00000CFCF8FB7F894A6
:104B500021E02093B9028FBFDBCF84B7877F84BF6A
:104B60000FB6F894A89580916000886180936000EA
:104B7000109260000FBE80E890E00FB6F89480932A
:104B80006100909361000FBE0C94A0220E94F42754
:104B90000E945128E2EEF0E0808184608083789466
:104BA0000C94D92A8CE091E00C949B218091E9022D
:104BB0008530C9F48EE69AE00E9427068091E902CA
:104BC000853011F00C9412230E94E7228091E702B5
:104BD0008823A1F30E94AA22882381F30E944E26F3
:104BE0000E94E40CEBCF089508950C94F725292F2B
:104BF00033272330310521F168F42130310509F4E0
:104C000043C02230310509F444C090E080E030E038
:104C100020E026C02132310551F122323105A9F7B9
:104C20006330710590F7FB01EE0FFF1FE351FE4F5C
:104C30002081318166517E4FFB01808190E010C060
:104C400099278130910581F0009729F00297E9F6C4
:104C5000E6E8FAE002C0EAEAFAE0849190E09F0117
:104C6000FA01318320830895EAE9FAE0F6CF633050
:104C7000710558F6660F771FFB01ED50FE4F20813E
:104C8000318189E090E0ECCF82E190E029E03BE0E7
:104C9000E7CF8BE590E02EEA3AE0E2CF80E189BDF4
:104CA00082E189BD09B400FEFDCF8091D8008F7DDF
:104CB0008093D8008091E00082608093E000809132
:104CC000E00081FDFCCF0895AF92BF92CF92DF92BA
:104CD000FF920F931F93CF93DF936C01EB018A0137
:104CE0000E94C327F82E811123C00115110539F048
:104CF000F80180819181C81BD90BC80ED91EB12C37
:104D0000A12C2097A9F08091E80085FD22C0809118
:104D1000E8008E778093E80001151105A1F0F801F5
:104D200080819181A80EB91EB182A08285E0F82E03
:104D30008F2DDF91CF911F910F91FF90DF90CF903A
:104D4000BF90AF9008950E94C3278823D1F2F82E18
:104D5000EFCFF60181916F018093F1002197FFEF72
:104D6000AF1ABF0ACECFFC018091F0029091F10200
:104D700086179707A0F06115710529F49091E80056
:104D80009E779093E80090E06115710551F49111C0
:104D900008C08091E80082FF34C080E00895BC0123
:104DA000F2CF8091E9028823C1F18530C1F1809171
:104DB000E80083FD30C08091E80082FDEACF809159
:104DC000E80080FFE1CF8091F3002091F200382FBE
:104DD0006115710519F02830310558F091E028303F
:104DE000310509F090E02091E8002E772093E8004B
:104DF000CBCF81918093F100615071092F5F3F4FBC
:104E0000E7CF8091E902882341F0853041F080911D
:104E1000E80083FFBECF81E0089582E0089583E03B
:104E20000895FC018091F0029091F1028617970796
:104E3000A0F06115710529F48091E8008E778093C8
:104E4000E80090E06115710551F4911108C080915E
:104E5000E80082FF35C080E00895BC01F2CF809168
:104E6000E9028823C9F18530C9F18091E80083FD0A
:104E700031C08091E80082FDEACF8091E80080FF98
:104E8000E1CF8091F3002091F200382F6115710578
:104E900019F02830310558F091E02830310509F03B
:104EA00090E08091E8008E778093E800CBCF8491EA
:104EB0008093F1003196615071092F5F3F4FE6CF2B
:104EC0008091E902882341F0853041F08091E8002B
:104ED00083FFBDCF81E0089582E0089583E00895C7
:104EE000982F973028F08F708093E90081E0089523
:104EF0009093E900242F762F50E0981731F07091AD
:104F0000EC002091ED005091F00021FD02C09F5F68
:104F1000E8CF3091EB003E7F3093EB003091ED0015
:104F20003D7F3093ED003091EB0031603093EB002A
:104F30007093EC002093ED005093F0002091EE0070
:104F400027FDE5CF80E008958091EA0287FF13C036
:104F50008091E80082FF06C08091E8008B77809303
:104F6000E80004C08091E9028111F2CF0895809198
:104F7000E9028823D9F38091E80080FFF8CF80917F
:104F8000E8008E77ECCF2091E4003091E50095E6C3
:104F9000A9012091EC00822F817020FF06C0809132
:104FA000E80080FF06C080E008952091E80022FD1F
:104FB0001AC08091E902882389F0853089F08091B8
:104FC000EB0085FD0FC02091E4003091E500421711
:104FD0005307F9F29150E1F684E0089582E00895D4
:104FE00083E0089581E008950E9462280E946A2863
:104FF000E0EEF0E0808181608083E8EDF0E0808188
:105000008F77808319BCA7EDB0E08C918E7F8C9355
:1050100080818F7E80831092E80208950F931F9302
:10502000CF93DF930E9462280E946A28C8EDD0E0E7
:1050300088818F77888388818068888388818F7D45
:10504000888319BC1092E9021092E5021092E702DF
:105050001092E60200EE10E0F80180818B7F8083E1
:1050600088818160888342E060E080E00E94702750
:10507000E1EEF0E080818E7F8083E2EEF0E08081DF
:1050800081608083808188608083F80180818E7F49
:105090008083888180618883DF91CF911F910F91F8
:1050A0000895E8EDF0E080818F7E8083E7EDF0E009
:1050B00080818160808384E082BF81E08093E80208
:1050C0000C940E28E8EDF0E080818E7F80831092B2
:1050D000E20008951092DA001092E10008951F9204
:1050E0000F920FB60F9211242F933F934F935F931C
:1050F0006F937F938F939F93AF93BF93EF93FF93A0
:105100008091E10082FF0BC08091E20082FF07C026
:105110008091E1008B7F8093E1000E94392480918F
:10512000DA0080FF19C08091D80080FF15C08091FF
:10513000DA008E7F8093DA008091D90080FF96C0DC
:1051400080E189BD82E189BD09B400FEFDCF81E027
:105150008093E9020E9400248091E10080FF19C041
:105160008091E20080FF15C08091E2008E7F8093E5
:10517000E2008091E20080618093E2008091D8009B
:1051800080628093D80019BC85E08093E9020E9478
:105190001F248091E10084FF2BC08091E20084FFF6
:1051A00027C080E189BD82E189BD89B5982F9170C2
:1051B00080FFFBCF8091D8008F7D8093D8008091B5
:1051C000E1008F7E8093E1008091E2008F7E8093EA
:1051D000E2008091E20081608093E2008091E5022C
:1051E000882309F449C084E08093E9020E942B24BB
:1051F0008091E10083FF29C08091E20083FF25C0F8
:105200008091E100877F8093E10082E08093E90252
:105210001092E5028091E1008E7F8093E100809101
:10522000E2008E7F8093E2008091E20080618093B3
:10523000E20042E060E080E00E9470278091F00090
:1052400088608093F0000E941924FF91EF91BF9134
:10525000AF919F918F917F916F915F914F913F910E
:105260002F910F900FBE0F901F90189519BC1092A0
:10527000E9020E94122470CF8091E30087FD93E041
:105280009093E902B3CF1F920F920FB60F921124A1
:105290002F933F934F935F936F937F938F939F933E
:1052A000AF93BF93CF93DF93EF93FF93D091E90038
:1052B000DF708091EC00C82FC17080FDC0E81092B3
:1052C000E9008091F000877F8093F00078940E943D
:1052D00087291092E9008091F00088608093F000A7
:1052E000CD2BCF70C093E900FF91EF91DF91CF916B
:1052F000BF91AF919F918F917F916F915F914F91EE
:105300003F912F910F900FBE0F901F9018951F93F4
:10531000CF93DF93CDB7DEB7AA970FB6F894DEBF71
:105320000FBECDBF8AEE92E02091F100FC012193E7
:10533000CF01F2E0823F9F07B9F70E94932480914A
:10534000E80083FF1EC18091EA029091EB029A303F
:1053500008F017C1E92FF0E0E557F44D0C94142B39
:10536000803899F0823809F00CC18091EE028F707C
:10537000873008F006C18093E9008091EB0085FB3F
:10538000882780F91092E90006C08091E60290918A
:10539000E702911182609091E800977F9093E80076
:1053A0008093F1001092F1008091E8008E77E5C0C3
:1053B000882309F4D3C0823009F0E3C08091EC0265
:1053C0008111D6C08091EE028F702FEF280F26300A
:1053D00008F0D7C08093E9002091EB0020FFC8C0FF
:1053E000933031F48091EB0080628093EB00C0C079
:1053F0009091EB0090619093EB0021E030E001C0D0
:10540000220F8A95EAF72093EA001092EA00809131
:10541000EB008860EACF8111B4C01091EC021F77D5
:105420008091E3008078812B8093E3008091E800F5
:10543000877F8093E8000E94A4278091E80080FF86
:10544000FCCF8091E30080688093E30082E011113B
:1054500083E08093E90295C08058823008F091C0C3
:105460008091EC029091ED028C3D23E09207A1F532
:1054700083E08A838AE289834FB7F894DE0113962A
:1054800020E03EE051E2E32FF0E050935700E4913A
:1054900020FF03C0E295EF703F5FEF708E2F90E02A
:1054A000EA30C0F0C7968D939D932F5F243159F752
:1054B0004FBF8091E800877F8093E8006AE270E048
:1054C000CE0101960E94B3268091E8008B778093ED
:1054D000E80057C0C096E7CF6091EE027091EF02EE
:1054E000AE014F5F5F4F0E94F525BC01892B09F487
:1054F00048C09091E800977F9093E80089819A8155
:105500000E941127E1CF8038E1F58091E800877F84
:105510008093E8008091E5028093F10045CF8111EE
:1055200030C09091EC02923060F58091E800877F66
:105530008093E8009093E5020E94A4278091E50201
:10554000882311F084E005C08091E30087FDFACF45
:1055500081E08093E9020E947A2413C08091EC02DA
:10556000813079F481E0933009F080E08093E702A4
:105570001092E9008091E800877F8093E8000E9404
:10558000A4278091E80083FF0AC08091E800877F0C
:105590008093E8008091EB0080628093EB00AA96F4
:1055A0000FB6F894DEBF0FBECDBFDF91CF911F9134
:1055B0000895CF938091E9028823A1F0C091E9007A
:1055C000CF709091EC00892F817090FD80E8C82BFE
:1055D0001092E9008091E80083FD0E948729CF7036
:1055E000C093E900CF910895991B79E004C0991FF9
:1055F000961708F0961B881F7A95C9F7809508952D
:1056000097FB072E16F4009407D077FD09D00E946F
:105610001A2B07FC05D03EF4909581959F4F089575
:10562000709561957F4F0895EE0FFF1F0590F491DF
:10563000E02D0994AA1BBB1B51E107C0AA1FBB1F89
:10564000A617B70710F0A61BB70B881F991F5A950E
:10565000A9F780959095BC01CD010895FB01DC016F
:1056600004C08D910190801921F441505040C8F739
:10567000881B990B0895F999FECF92BD81BDF89AC8
:10568000992780B50895A8E1B0E042E050E00C947D
:105690006F2B262FF999FECF92BD81BDF89A019705
:1056A00000B4021639F01FBA20BD0FB6F894FA9A6A
:1056B000F99A0FBE08950396272F0E944A2B0E9445
:1056C000492B252F0E944A2B242F0C944A2B0196FC
:1056D000272F0E944A2B0C94492BDC01CB01FC01A3
:1056E000F999FECF06C0F2BDE1BDF89A319600B43B
:1056F0000D9241505040B8F70895F894FFCF970AA3
:10570000970AC80AC80A5B0B770BF70AF70A820BDD
:105710000E0C1D0C1D0CB029D829C12AD829C12A6C
:0A5720000B2A2C2AC12A832A8F2AA3
:10572A00C8007502280850011E0A14017B23A02311
:10573A007F23FC23F8237E2301E200E900EA00B577
:10574A0000B600B700CD008301CC008A0192019413
:10575A00012102230224022502260227022A02B379
:10576A0000B4006F007000818283E200E900EA0061
:10577A00B500B600B700CD008301CC008A019201C2
:10578A0094012102230224022502260227022A0268
:10579A00B300B4006F007000818283F4F5F6F7312C
:1057AA003332363534C6976692939190943F3F3F91
:1057BA00006D6B5F64656C6179006D6B5F696E7417
:1057CA00657276616C006D6B5F6D61785F73706591
:1057DA006564006D6B5F74696D655F746F5F6D61A1
:1057EA0078006D6B5F776865656C5F6D61785F7374
:1057FA0070656564006D6B5F776865656C5F746979
:10580A006D655F746F5F6D617800407B22B80B3DF8
:0A581A000B1B0BC00AD90AF20A00AA
:00000001FF
