:100000000C943A0B0C94720B0C94720B0C94CD3331
:100010000C94720B0C94720B0C94720B0C94720B6C
:100020000C94720B0C94720B0C94301C0C94732176
:100030000C94B02E0C94720B0C94720B0C94720BEB
:100040000C94720B0C94720B0C94720B0C94720B3C
:100050000C94720B0C94091D0C94720B0C94720B83
:100060000C94720B0C94720B0C94720B0C94720B1C
:100070000C94720B0C94720B0C94720B0C94720B0C
:100080000C94720B0C94720B0C94720B0C94720BFC
:100090000C94720B0C94720B0C94720B0C94720BEC
:1000A0000C94720B0C94720B0C94720B050109806A
:1000B000A101850319012AB700150126B700950192
:1000C00075108100C0050C0901A101850419012AE0
:1000D000A002150126A002950175108100C005013E
:1000E0000906A1018506050719E029E71500250184
:1000F0009508750181020507190029EF15002501F2
:1001000095F075018102050819012905950575010C
:100110009102950175039101C005010902A1010930
:1001200001A1000509190129081500250195087587
:100130000181020501093009311581257F9502757C
:1001400008810609381581257F9501750881060506
:100150000C0A38021581257F950175088106C0C0FB
:1001600005010906A101050719E029E71500250188
:10017000950875018102950175088101050719002F
:1001800029FF150026FF009506750881000508194E
:10019000012905950575019102950175039101C02D
:1001A000000000000000000000000000000000004F
:1001B000000000000000000000000000000000003F
:1001C000000000007E0F00D4FFFFFFC70000007892
:1001D00000000000000000002A2B280000000000A2
:1001E00000000000000000000000002900000000E6
:1001F0002C1E3420212224342627252E362D373854
:10020000271E1F202122232425263333362E37385C
:100210001F0405060708090A0B0C0D0E0F1011121A
:10022000131415161718191A1B1C1D2F3130232DE6
:10023000350405060708090A0B0C0D0E0F101112E4
:10024000131415161718191A1B1C1D2F3130354C95
:100250006020005E200022200027200045613A64D3
:100260003B003C003D003E002D0214001A00090036
:1002700013000A0031420400150016001741070060
:10028000E3001D641B740600194305000000296388
:100290004F002B612C6250004461436442004100D6
:1002A00040003F004C002A001C0018000F000D0009
:1002B000344212000C00080011000B0038003364B7
:1002C0003774360010000E000000656200002861DF
:1002D0000000015327001E001F0020002100220003
:1002E0000100010001000100010001000100010006
:1002F000AD5DE2000100010001000100010001000C
:100300000100010000000100F90001000100FA00F5
:1003100001002700260025002400230001004D00D5
:100320004B004E004A00010001004F0052005100F6
:10033000500001000100AD5DF200F300F10001008A
:100340000000010000000100000001530100460010
:10035000470048006800690001002302A95D2F02E0
:1003600030022202010001001F02260227022002A1
:100370000100010033142F003000210200000100B1
:1003800001000100010001000100380025022D00DC
:100390002E02540001000100A85D2E001E0255002F
:1003A00001000100AA5D370236025700010001007A
:1003B000A75D240231025600000001000000010088
:1003C000000001005300010001000100045301007E
:1003D0000100010001000100010001000100010015
:1003E000A800A90001000100010001000100AA000D
:1003F00001000100000001000100010001000100F6
:1004000001000100610060005F0054000100010074
:100410005E005D005C005500010001005B005A00B9
:100420005900570001000100010001006200560060
:1004300000000100000001000000010029001E0072
:100440001F002000210022002B0014001A000800C9
:1004500015001700E10004001600070009000A005B
:10046000E0001D001B000600190005000000F3005D
:100470004F00E2002C0050002B042700260025002E
:10048000240023002B06130012000C0018001C008F
:10049000010001000F000E000D000B0010500100C4
:1004A000370036001000110000005200000001006B
:1004B0000000510001048E966E773EFE7E5F1DB8EF
:1004C000F2664EFF5D19B0C20469542AD62EBFDD14
:1004D00019B0C3E529B1E023A5A9B1C10082674CD9
:1004E0001A978D795120C7068E7C7C7A764FFD59FC
:1004F00030E2460E9EBEDF1D9991A0A5A1A9D02293
:10050000C6EF5C1B958990A2A7CCFB5528B3E44AA3
:10051000F76C3BF46A562EDE1F9DB8D3058892A671
:10052000CE1EBEDF1D99B0E246EF5C07115D980B51
:100530009D9497EE4E45336B44C729562730C6A786
:10054000D5F256DFB43862CBA0B6E30F840624059B
:10055000656F7689B577412782666582CCD5E620BE
:10056000D52717C5F803237C5F64A51DC1D636CBFC
:100570004CD4DB66D78BB1997E6F4C364006D6EBF8
:10058000D7A2E4F495515A5496D55344D78CE0B988
:100590004068D218E9DD9A239248EE7F43AFEA77AC
:1005A00038848C0A72AF69F8DDF12483A3F84ABF5E
:1005B000F59413DBBBD8B4B3A0FB4550603059129F
:1005C0003171A2D313E7FAE7CE0F63150B6B94BB1F
:1005D000378326059DFB4692FC0A15D10D7392D6F2
:1005E0008C1B8CB8558ACEBDFE8EFCED0912839112
:1005F00082513123FBB40C76AD7CD9B44BB2671475
:10060000099C7F0C18BA3BD68E142AE41B529F2BF0
:100610007DE1FB6A3302FAAC5AF23E887EAED1F33A
:1006200078E805D1E3DC21F6E19ABD170ED9469BA7
:100630008803EAF666BE0E1B5049964097F1F1E436
:1006400080A66EE87734BF294044C2FF4E98D39C01
:10065000A3322B76510409E7A9D1A632B12353E284
:1006600047ABD6F5695C3E5FFAAE4520E5D244FF64
:1006700039326DFD27575CFDF0DEC1B599E5F51CFB
:10068000770175C56D5892F2B247000126967A300F
:10069000FFB7F0EF77C18A5DDCC0D129301E773813
:1006A0007A94F1B87A7EEFA4D1AC314AF25D643D20
:1006B000B2E2F00899FC70EE24A77EEE1E20697D60
:1006C00044BF8742DF883B0CDA42C904F94550FC3D
:1006D000838F116A72BC9995F0AC3DA73BCD1CE2AB
:1006E000887937115F3989950A16847AF68AA428A1
:1006F000E4ED83803BB123A50310F466EABB0C0F45
:10070000C5EC6C69C5D324ABD42AB799887608A008
:10071000A8957CD8386DCD5902514BF1B52B50E3DB
:10072000B6BDD072CF9EFD6EBB44C8248A77188AAE
:100730001306EF977DFA81F031E6FA77ED31063155
:100740005B548A9F3068DBE240F84E73FAAB748BDF
:10075000105813DCD2E678D1322E8A9F2C580648E6
:1007600027C5A95E8147894621910370A43E889CD4
:10077000DA330ACEBC8B8ECF9FD3718043CF6BA967
:100780005183763082C56A853911501A82DC1E1C6D
:10079000D57DA9719933471997B35AB1DFEDA4F20A
:1007A000E62684A2289A9EDFA66AF4D6FC2E5B9DDC
:1007B0001A2A2768FBC183214B90E036DD5B31426A
:1007C00055A013F7D089537199570929C5F321F81A
:1007D000372F40F3D4AF16083602FC77C58B049050
:1007E00056B9C9679A99E800D386FF972D08E9B7EB
:1007F000B391BCDF45C6ED0F8C4C1EE65B6E383006
:10080000E4AAE395DEB9E49AF5B2559A879BF66AB5
:10081000B2F2779A31F47A31D11D04C07C32A29EB3
:100820009AF562F8278DBF51FFD3DF64373F2A6FF7
:10083000763A7D77069E777F5EEB3251F916669A9F
:1008400009F3B008A470964630FFDA4FE91BED8D2E
:10085000F8741F3192B3731736DB9130D688556B1D
:100860003477877AE7EE06C61C8C190C4846235E5F
:100870009C075CBFB47ED64F749CE2C5508BC58B81
:10088000159060625729D01343A18088910044C716
:100890004D1986CC2F2A755AFCEB972A70E378D82D
:1008A00091B04F9907A395EA2421D5DE51209327D3
:1008B0000A3073A8FF8A97E9A76A8E0DE8F0DFEC8B
:1008C000EAB46C1D392A622D3D5A8B65F890052ECD
:1008D0007E912C78EF8E7AC12FAC78EEAF2845064A
:1008E0004C26AF3BA2DBA39306B53CA5D8EE8FAF59
:1008F00025CC3F856848A962CC978F7F2AEAE0150E
:100900000AAD6207BD45F841D836CB4CDB6EE63AFE
:10091000E7DA15E9291E1210A0142C0E3DF4BF3998
:100920004192750B257BA3CE399C1564C8FA3DEF27
:100930007327FE262ECEDA6EFD718EDDFE76EEDC9E
:10094000125C02C53A4E4E4FBFCA4015C76E8D416C
:10095000F110E04F7E977F1CAE478E6BB12531B012
:1009600073C71B9779F980D366223007741EE4D0D1
:100970008021D6EE6B6C4FBFF5B7D909872FA9142C
:10098000BE27D9725001D41373A6A751027525E171
:10099000B345347DA88EEBF31649CB4F8CA1B93605
:1009A0008539755D0800AEEBF6EAD7133A215A5F38
:1009B0003084522695C914F257556BB110C2E1BD6F
:1009C0003B51C0B7554C711226C70DF951A43802DE
:1009D000057FB8F1724BBF718914F37738D9712450
:1009E000F30011A1D8D46927083735C9119D901C8F
:1009F0000EE71CFF2D1EE892E11810957CE080F4B4
:100A0000964321F975216438DD9F1E9516DA561D2F
:100A10004F9A53B2E2E418CB6B1A65EB56C63BE52E
:100A2000FED8263F3A84597266A2F375FFFB60B385
:100A300022AD3F2D6BF9EBEA057CD88F6D2C989E8B
:100A40002B93F15E46F08749297368D77FF9F0E56B
:100A50007DDB1D7519F3C4589B1788A892E0BEBDB5
:100A60008B1D8D9F5676ADAF29E2D9D552F6B5567E
:100A700035573AC8E156431994D3049B6D35D80BCA
:100A80005F4D198EECFA64910A72202BBC1A4AFE53
:100A90008BFDBBED1B23EAAD7282A1299971BDF0DC
:100AA00095C103DD7BC2B23C2854D368A472C866EA
:100AB00096E0D1D87FF8D1262BF7ADBA55CA15B933
:100AC00032C3E588978E5CFB92258BBFA245557A91
:100AD000A76F8B575BCF0ECB1DFB208277A88CCCEA
:100AE00016CE1DFADECC0B62FECCE1B7F0C38164FA
:100AF0007340A0C24D8911753355338DE84AFDEA24
:100B00006E300BD7312CDE47E3BFF85542E27F59F8
:100B1000E517EF99346991B1238E20872DA8FED572
:100B20008AF3843AF037E4090054EE674993E4818C
:100B300070E3904DEFFE41B7997BC183BA62126FAB
:100B40007DDE6BAFDA16F95551EEA60C2B02A3FD34
:100B50008DFB3017E46FDF3671C4CA872548B04774
:100B6000ECEAB4BFA54D9B9F0293C4E3E4E8422D99
:100B70006881150AEB845BD6A874FB7D1DCB2CDA4B
:100B8000462A7662CEBC5C9E8BE7CFBE78F57CEBC6
:100B9000B33A9CAA6FCC72D159F21123D63F48D1F7
:100BA000B7CEB0BFCBEA80DE57D45E972F75D15059
:100BB0008E802C6679BF724BBD8A816CD3E101DCDB
:100BC000D21526C536DA2C1AC02794EDB79B850BB3
:100BD0005E8097C5EC4FEC885D50073547DC0B3BDA
:100BE0003DDD60AFA85D813824255D5C15D1DEB3A5
:100BF000ABEC0569EF83ED5754B8646411163269A4
:100C0000DA9F2D7F36BB445A34E87FBF03EB007F69
:100C100059682279CF736C2C29A7A15F38A11DF0E8
:100C20002053E01A6314587110AA080C3E161A607B
:100C300022827FBAA443A0D0AC1BD56B64B51493B9
:100C4000319E5350D05766EE5A4FFB032A695876AF
:100C5000F183F74EBA8C4206605D6DCE6088AEA41B
:100C6000C3F103A54B98A1FF67E1ACA2B862D76FAF
:100C7000A031B4D277AF211006C69AFF1D09170E16
:100C80005FF1AA54344B458A8763A6DCF9243067A8
:100C9000C6B2D6613369EE50615728E77EEEEC3A72
:100CA0005A734EA88DE418EAEC4164C8E2E866B6CF
:100CB0002DB6FB6A6C16B3DD4643B973006A71ED5D
:100CC0004E9D251AC33C4A95159935811402D69834
:100CD0009BECD8233B8429AF0C9983A69A344FFA16
:100CE000E8D03C4BD0FBB668B89E8FCDF7602D7A2C
:100CF00022E57DAB651B95A7A87FB677477B5F8B09
:100D00001272D0D491EFDE19503CA78BC4A9B32343
:100D1000CB76E681F0C1048FA3B8545B97AC19FF82
:100D20003F55272FE01D429B57FC4B4E0FCE98A9F5
:100D3000435703BDE7C894DF6E367332B4EF2E8598
:100D40007A6EFC6C188275359007F3E49F3EDC6880
:100D5000F3B5F31980920699A2E86FFF2E7FAE4299
:100D6000A45FFBD40E812BC304FF2BB3744E365B00
:100D70009C1500C6472BE88B3DF19C039A587F9B3E
:100D80009CBF854979352E567B411439478326AA65
:100D9000078998111B86E7737AD87D786153E979C2
:100DA000F5368D449284F91350583BA46A36654950
:100DB0008E3C0EF16FD284C47E8E3F39AE7C84F1BE
:100DC00063378E3CCC3E448145F14BB9ED6B365DCB
:100DD000BB20601A0FA3AA55773AA9AE374DBAB80F
:100DE000866BBC0850F6CCA4BD1D4072A586FAE205
:100DF00010AE3D584B97F34374A99EEB21B701A465
:100E0000869397EE2F4F3B86A1416F412690785CE9
:100E10007F30384B3FAAECED5C6F0EAD4387FD93FE
:100E200035E601EF412690999EFB195BADD2918A80
:100E3000E046AF65FA4F84C1A12DCF458BD38550D5
:100E4000557CF96788D44EE9D76B6154A1A4A6A25A
:100E5000C2BF309C409F5FD7692B24825ED9D6A742
:100E600012541AF7559F7650A99584E66B6DB59686
:100E700054D6CDB3A19B46A7944DC494B498E3E156
:100E8000E234D533160754CDB77753DB4F4D469D2B
:100E9000E9D49C8A36B6B838266C0EFF9C1B438B6F
:100EA00080CCB93DDAC7F18AF26DB8D7742F7E1EB7
:100EB000B7D34AB4ACFC79486CBC96B69446572D6F
:100EC000B0A3FC1EB95260852D41D043011E1CD534
:100ED0007DFCF3960DC7CB2A299A93DD882D375DCB
:100EE000AAFB4968A09C50867F685657F979183943
:100EF000D4E001843361CAA5D2D6E4C98A4A234426
:100F00004EBCF0DC24A1A0C4E2073C10C4B5254BC4
:100F10006563F480E7CF61B1718221872CF5910080
:100F2000320CECA9B59A7485E3368F764F9C6DCE62
:100F3000BCAD0A4BED7604CBC3B9339E01939669E1
:100F40007DC5A245799B045C8409ED8843C7AB93BA
:100F50001426A140B5CE4EBF2A42853E2C3B54E814
:100F6000121F0E9759B22789FAF2DF8E6859DC06F4
:100F7000BCB6850D0622ECB1CBE504E63DB3B0412D
:100F800073083F3C588663EB50EE1D2C3774A9D391
:100F900018A3476E9354AD0A5DB82A555D78F6EEF6
:100FA000BE8E3C7669B940C234EC2AB9ED7E20E4AD
:100FB0008D0038C7E68F44A886CEEB2AE990F14C25
:100FC000DF32FB731B6D921E95FEB4DB65DF4D2394
:100FD000548948BF4A2E70D6D762B43329B13A3308
:100FE0004C236DA676A5216348E6905DED90950BA8
:100FF0007A84BEB80D5E630C62264C145AB3AC23DF
:10100000A474A76F333005600142A028B7EE1938E9
:10101000F164808243E141271F1F90547AD5232E2B
:10102000D13DCB28BA587FDC7C9124E92851836ECE
:10103000C5562142EDA05622A140806BA8F794CA64
:10104000136B0C39D9FDE9F36FA69EFC708AB3BC13
:10105000593C1E1D6CF97CAFF9887195EB5700BDAA
:101060009F8C4FE12483C522EAFDD30CE217187C44
:101070006A4CDE77B4539B4C81CD2360AA0E257356
:101080009C02793230DF74DF7519F4A5145CF77AAD
:10109000A8A591847C6003063BCD50B6279CFEB189
:1010A000DDCCD3B05924B2CAE21C81229D078F8EB9
:1010B000B9BE4EFAFC3965BABF9D12375E977EF312
:1010C00089F55DF5E3098C62B5209D0C538A681B98
:1010D000D28F75175DD4E5DA756219146A262DEB87
:1010E000F8AF37F06CA455B1BCE233C09ACAB01166
:1010F000494F689B3B6B3CCC13F6C785616842AE99
:10110000BBDDCD4516291DEADBC803943CEE4F82BA
:1011100011C3EC28BD970599DED7BB5E221FD4EB27
:1011200064D992D985B76A056AE42441F1CDF0D833
:101130003FF89E0ECD0B7A706B5A750A6A3388ECB5
:1011400017750870102F24CFC4E942006194CA1F9C
:101150003A7606FAD24881F077600345D961F4A463
:101160006F3DD930C3046B542AB7EC3BF44BF568A0
:101170005226CEFF5D1991A0A3A5A9B1E023C40A10
:10118000774DF95120A3A5A9B1C10082868E7F5D5C
:101190001991A0A3C4EB540B756852078C9A978DD4
:1011A00079706246EF5C1B95897141E121A1A1A193
:1011B000C002674C1AB6CFFD785324ABB5C9F160B5
:1011C00023A5C812876D5813858892876D5832C73A
:1011D0000C9A97ACDA36EE5E3EDF1DB8F2662FBD94
:1011E000F87247ED5813858892878C7B550990A239
:1011F000C6EF3DF85324ABD42AB7EC5A36EE5E3E28
:10120000DF3CFA764FFD5930E246EF3DF853056971
:1012100031C10082868E7F5D19B0E227CCFB744B12
:10122000148B948B756833C50892878C9AB6CF1C43
:10123000BAD70D98B2E62FDC1B9589716023C40ADA
:10124000968F9CBAF66E3FFC5B15A8D226AFBDF810
:1012500072662FDC1BB4CB148B94AAB7CDF9510165
:101260008082866F3DD930E227CCFB744B14AAB73D
:10127000CDF97043046B35C9F16023A5C8F3450867
:1012800092876D5832E62FBDF872664E1EBEFE7E06
:101290007E7E5F1D9991A0A3C40A774D1893A4ABDD
:1012A000D40B754910A2C6EF3DF85324ABB5E83313
:1012B000E44A16AEDE1FBCDB15A8B3C5087345E9CA
:1012C00031C1E121A1A1A1C002866F5C3AD70D987E
:1012D00093A4CA16AEDE1F9D99B0E246EF3DF872A8
:1012E000470C9AB6CFFD5911A0A3A5C8F3450892A3
:1012F000876D39F043048A96AEDE3EDF1D9991A0DA
:10130000C2066F3DF872470C9A978D989385887343
:1013100045E931E023A5A9D003848A96AEDE1FBC3F
:10132000DB15A8D226CEFF5D1991818082672DD86A
:1013300013A4ABD40B94AAB7CDF95120A3A5C8F33D
:1013400045E95022C6EF5C3AD70D989385887364BF
:101350004AF74DF95120A3C40A96AEDE3EFE7E7ECA
:101360007E5F3CFA764FFD7872662FBDD930C3E5BB
:101370004812878C7B5528D2078C9A97ACDA178D48
:10138000795120A3C4EB540B948B94AAD62EBFFCA6
:101390005B15A8D226AFDC1BB4EA37EC3BF46A3706
:1013A000CD1893856931C1E140E325C812878C9A35
:1013B000B6CFFD5911A0C2068E7F5D38F2470C7B77
:1013C000746A37EC5A36EE3FFC7A764F1C9B95894F
:1013D0007141006344EB542AD60F9CBAD70D989301
:1013E000856931C10082868E9EBEDF3CFA572CDAB9
:1013F00036EE3FFC5B158971410082868E7F5D3839
:10140000F247ED5813A4CAF74DF95101806344EB3C
:10141000542AD62EBFDD1991A0A3A5A9B1E042069A
:101420008E7F5D1991A0A3C40A968F7D7872470CB8
:101430007B746A562EDE1FBCFA570D79510161216B
:10144000A1C0E325A9B1C1E14002674C1A978D986C
:1014500093A4ABD42AD60F9C9BB4CB14AAB7CDF9D6
:101460005120A3C4EB35C9F16042068E7F7C7A76A9
:101470006E3FFC7A766E5E3EFE7E5F3CDB158971C8
:1014800041E121C0E344EB542AB7CDF9706227ADA6
:10149000D832C70C7B744B14AAB7EC3BD528D207C3
:1014A0006D39D120C2E74C1A978D98B2C70C5928D4
:1014B000F39B00010101010101010101020202028D
:1014C00002020202020303030303030303040404EE
:1014D00004040404050505050506060606060707B7
:1014E00007070708080808090909090A0A0A0B0B6F
:1014F0000B0C0C0C0D0D0D0E0E0E0F0F0F1010110E
:101500001111121213131414151516161717181893
:1015100019191A1A1B1B1C1D1D1E1E1F20202122FB
:1015200022232424252626272829292A2B2C2D2D41
:101530002E2F30313232333435363738393A3B3C5E
:101540003D3E3F404142434445464748494A4C4D51
:101550004E4F50515354555658595A5B5D5E5F611A
:101560006264656668696B6C6D6F707273757778AD
:101570007A7B7D7E8082838587888A8C8E8F91930B
:101580009596989A9C9EA0A2A3A5A7A9ABADAFB132
:10159000B3B5B7BABCBEC0C2C4C6C9CBCDCFD1D417
:1015A000D6D8DBDDDFE2E4E7E9EBEEF0F3F5F8FABD
:1015B000FDFF09025400030100A0FA090400000124
:1015C00003010100092111010001224000070581EA
:1015D00003080001090401000103010200092111AF
:1015E00001000122470007058203080001090402E7
:1015F000000103000000092111010001226D000714
:101600000583032000011201000200000008F8A871
:10161000331800010102000130034300680061003B
:1016200072007900620064006900730020002800E5
:101630003400780036002900200045006C00690065
:10164000740065002D004300000024034200610087
:101650007300740061007200640020004B0065009C
:10166000790062006F006100720064007300000086
:101670000403090411241FBECFEFDAE0DEBFCDBFA3
:1016800004B603FE18C080910C0590910D05A09141
:101690000E05B0910F058730904BA740B04B59F421
:1016A00010920C0510920D0510920E0510920F0568
:1016B000E0E0F8E3099512E0A0E0B1E0EAE5FBE63E
:1016C00002C005900D92AA39B107D9F725E0AAE921
:1016D000B2E001C01D92AC30B207E1F70E94D72EF4
:1016E0000C9485350C94000080910305837051F0B3
:1016F00084608093030510925E01809102058160F1
:10170000809302050895FC01AC014B5F5F4F8FEFA2
:1017100091E32191822728E030E087FF09C0880FFC
:10172000892721503109C9F7E417F50791F7089582
:10173000880FF7CF90910305937071F080930405A3
:1017400060930505433308F042E34093060580911A
:1017500002058160809302050895E8EDF0E0808144
:101760008E7F80831092E2001092DA001092E100E6
:10177000A0EEB0E08C9181608C9380818F77808324
:1017800019BCA7EDB0E08C918E7F8C9380818F7E09
:1017900080831092D00408952091E4003091E500F8
:1017A00095E6A9012091EC00822F817020FF06C0F0
:1017B0008091E80080FF06C080E008952091E80055
:1017C00022FD1AC08091F504882389F0853089F0C4
:1017D0008091EB0085FD0FC02091E4003091E50081
:1017E00042175307F9F29150E1F684E0089582E040
:1017F000089583E0089581E00895EF92FF920F939A
:101800001F93CF937C018B010E94CC0BC82F8111B9
:1018100017C08091E80085FD0BC08091E8008E77AD
:101820008093E8000E94CC0B882399F3C82F08C04E
:10183000F70181917F018093F1000150110949F76F
:101840008C2FCF911F910F91FF90EF900895809171
:10185000F70487FF13C08091E80082FF06C08091E3
:10186000E8008B778093E80004C08091F504811133
:10187000F2CF08958091F5048823D9F38091E80090
:1018800080FFF8CF8091E8008E77ECCF982F90936F
:10189000E900242F762F50E0891731F07091EC0089
:1018A0002091ED005091F00021FD07C09F5F97301F
:1018B00071F78093E90081E008953091EB003E7F5D
:1018C0003093EB003091ED003D7F3093ED0030918F
:1018D000EB0031603093EB007093EC002093ED004F
:1018E0005093F0002091EE0027FDE0CF80E00895B6
:1018F000CF92DF92EF92FF920F931F93CF93DF93DC
:10190000C8EDD0E088818F7E8883E7EDF0E08081AC
:101910008160808384E082BF81E08093D0048881ED
:101920008E7F888302EE10E0F80110821092DA00B8
:1019300081EEC82ED12CF601108288818F778883A2
:1019400088818068888388818F7D888319BC109204
:10195000F5041092F6041092F4041092F30490EE41
:10196000E92EF12CF70180818B7F80838881816053
:10197000888342E060E080E00E94460CF6018081AE
:101980008E7F8083F8018081816080838081886080
:101990008083F70180818E7F808388818061888346
:1019A000DF91CF911F910F91FF90EF90DF90CF903B
:1019B0000895FC018091FD049091FE04861797071D
:1019C000A0F06115710529F49091E8009E7790933D
:1019D000E80090E06115710551F4911108C0809103
:1019E000E80082FF34C080E00895BC01F2CF80910E
:1019F000F5048823C1F18530C1F18091E80083FDB1
:101A000030C08091E80082FDEACF8091E80080FF3D
:101A1000E1CF8091F3002091F200382F611571051C
:101A200019F02830310558F091E02830310509F0DF
:101A300090E02091E8002E772093E800CBCF8191B1
:101A40008093F100615071092F5F3F4FE7CF809184
:101A5000F504882341F0853041F08091E80083FF50
:101A6000BECF81E0089582E0089583E0089508954F
:101A70008091D2040895CF92DF92EF92FF922FB718
:101A8000F894C090C704D090C804E090C904F090C6
:101A9000CA042FBFA7019601261B370B480B590B11
:101AA000CA01B901FF90EF90DF90CF9008959C019B
:101AB0004FB7F8948091C7049091C804A091C904CD
:101AC000B091CA044FBF821B930B08952FB7F894AF
:101AD0006091C7047091C8048091C9049091CA04B0
:101AE0002FBF089520915D012223C9F02091CB04DE
:101AF00027FF15C0E62FE695E695E695EE31D8F47A
:101B0000E80FF92FF11D677021E030E001C0220FCE
:101B10006A95EAF720958281282322830895FC01A3
:101B2000329608962191621303C0DF0111971C922F
:101B3000E817F907B9F7089520915D012223C1F054
:101B40002091CB0427FF14C0E62FE695E695E69595
:101B5000EE31F8F4E80FF92FF11D677021E030E065
:101B600001C0220F6A95EAF78281822B8283089551
:101B7000FC0132962FEF30E04191641751F02F3F76
:101B800019F4411101C0232F3F5F3630A9F72F3FD1
:101B900009F40895820F911D27FD9A95FC01628337
:101BA00008952091C4043091C5042817390771F0B5
:101BB0009093C5048093C404E091C204F091C304DF
:101BC000309721F00084F185E02D0994089520914B
:101BD000C0043091C1042817390771F09093C104F3
:101BE0008093C004E091C204F091C304309721F0C7
:101BF0000680F781E02D09940895E091C204F091E8
:101C0000C304309721F00480F581E02D09940895F4
:101C1000FA01811101C0FB010994E3E0F5E02481A0
:101C200030E1231B08F420E02483809102058160C9
:101C3000809302050895E3E0F5E0248130E1230F6D
:101C400008F42FEF248380910205816080930205C0
:101C50000895E3E0F5E0438120E1421B08F440E011
:101C60008181628190E00C949A0BE3E0F5E043817E
:101C700020E1420F08F44FEF8181628190E00C94E3
:101C80009A0BE3E0F5E0628120E1621B08F460E07A
:101C90008181438190E00C949A0BE3E0F5E062814E
:101CA00020E1620F08F46FEF8181438190E00C9492
:101CB0009A0BE3E0F5E08181438162818850990BC2
:101CC0000C949A0BE3E0F5E0818190E0438162811E
:101CD00008960C949A0B8091030586958695815001
:101CE00009F481E00C94740B81E00C94740B8093E4
:101CF0005901809103058370809358010E945E13FF
:101D000083E080935E010895FF920F931F93CF931A
:101D1000DF93182F062FF42ED0E0C0E02F2D402F98
:101D2000612FCE010E9401142196CA33D105B1F76B
:101D3000DF91CF911F910F91FF9008954091C403BF
:101D40008D3E59F48091C50387FF0DC01092C503E5
:101D500041110BC01092B90308C08E3E81F48091EE
:101D6000C50318169CF3442381F08091C60390911B
:101D7000C703892B09F05AC01092B80308958F3E0B
:101D800049F447FFF0CF1092C4038091C50381113D
:101D9000ECCFE0CF803F19F41416ACF3E4CF909170
:101DA000C603893F29F41916F4F61092C603DBCF57
:101DB0008A3F19F497FFD7CFF8CF9091C7038B3F95
:101DC00029F497FFD0CF1092C703CDCF8C3F19F4E1
:101DD0001916CCF3C8CF9FE0980F983090F4815F2C
:101DE000990B21E030E0B90102C0660F771F8A9598
:101DF000E2F7CB0180959091C30389238093C303BD
:101E0000B2CF8D3F31F48091BA038E7F8093BA03B5
:101E1000AACF8E3F21F48091BA038D7FF7CF8F3FF9
:101E200009F0A1CF8091BA038B7FF0CF0895809104
:101E3000BA0380FD16C081FD16C082FD16C08091D8
:101E4000B8038823A1F0803580F428E0829FC00188
:101E5000112460E570E00E94FD34862F672B39F075
:101E6000089582E0089584E0089588E0089581E06F
:101E700008958091BA0380FD16C081FD16C082FDD1
:101E800018C08091B903882391F08C3390F423E239
:101E9000829FC00111246CE370E00E94FD34862F04
:101EA000672B49F0089588E0089581E1089585E061
:101EB000089583E2089581E008958D3E31F40E94F3
:101EC000390F81958093C50308958E3E19F40E94C1
:101ED000390FF8CF8F3E31F40E94390F81958093EE
:101EE000C4030895803F19F40E94390FF8CF893F49
:101EF00029F40E94170F8093C60308958A3F21F4A6
:101F00000E94170F8195F7CF8B3F31F40E94170F76
:101F100081958093C70308958C3F19F40E94170F91
:101F2000F8CF9FE0980F983070F4815F990B21E013
:101F300030E001C0220F8A95EAF78091C303822B1B
:101F40008093C30308958D3F31F48091BA0381607B
:101F50008093BA0308958E3F21F48091BA03826082
:101F6000F7CF8F3FB9F78091BA038460F1CF80E05B
:101F7000089578940895F894E82FE295EF70F0E0D2
:101F800031A1282F2F7081E090E001C0880F2A95A1
:101F9000EAF7982F9095932391A392A1892B82A37E
:101FA0000C94B90F9091CB0492FF06C0282F287192
:101FB0002830F9F4877F846093FF06C0282F2871AA
:101FC0002831F1F4877E84612091CC0420FF06C083
:101FD000382F38713830D9F4877F816021FF06C0EF
:101FE000282F28712831D1F4877E816194FD877E66
:101FF0000895282F24712430F9F68B7F8860DCCF78
:10200000282F2471243101F78B7E8861DDCF382F92
:102010003171313019F78E7F8860E0CF282F217120
:10202000213121F78E7E8861E1CFCF93DF93EC01E0
:1020300082389105A9F1D8F58133910509F496C04C
:1020400048F58932910509F48AC08A9709F495C048
:10205000C11521E5D20708F0BCC0C11530E5D30792
:1020600008F014C1C83ED10508F09CC0C03ED1059F
:1020700060F5C83AD10508F087C0C53AD10508F027
:10208000FDC0C130D10509F12097F9F0C430D10568
:10209000E0F440C08533910509F45AC0C997C1F6F0
:1020A0008091CB04837089F0C0EED0E00EC0833EF7
:1020B000910599F170F4803E910501F1823E910500
:1020C00039F68091CB0482FD21C0CE01DF91CF9102
:1020D0000895863E910561F1873E910571F1843E38
:1020E000910509F0B5CF8091CC0481FFEECF8091AE
:1020F000CB04C7EED0E084FD0DC0E7CF8091CB04C8
:1021000080FD12C19091CC0490FFDFCFC3EED0E0F0
:1021100084FFDBCFD0E0C0E0D8CF8091CB0482FD3C
:1021200006C19091CC0490FDBFCF84FFCECFF2CFFB
:102130008091CB0483FDDDCFC8CF8091CB0483FD9C
:10214000F9C09091CC0491FFF0CFC4EED0E0BDCFA8
:102150008091CB0485FFB9CFC9E2D0E0B6CF8091A2
:10216000CB0485FFB2CFC5E3D0E0AFCF8091CB04E5
:1021700086FFABCFCAE2D0E0A8CF8091CB0486FF28
:10218000A4CFC1E3D0E0A1CFCF3BD10518F6C85A08
:10219000D0E0CC0FDD1FCF58DE4F0990D881C02D85
:1021A000D46493CFC11540E2D40758F4C11581E03F
:1021B000D80708F08ACFCD3ED10508F4ABCFD06563
:1021C00084CFC11590E4D90708F4A4CFDF70D06A9A
:1021D0007CCFC11525E5D20700F5C11534E5D3073D
:1021E00008F08AC0C11543E5D40708F071C0C115D5
:1021F00082E5D80708F467C0CE018370992721E0F3
:1022000030E002C0220F331F8A95E2F7C695C695CB
:1022100080E2C89FE001112452C0C11599E5D90799
:10222000A8F4C11528E5D20708F06BC0C11536E542
:10223000D30708F06FCF8C2F0E94D20FC82FD0E0A9
:10224000DC2FCC27CC27DF71D0623FCFC1154AE508
:10225000D40708F45BC0CE0190568115904208F077
:1022600059CF8D2F8F710E94D20F90E0982F882721
:1022700088279F719C012C2BE901E6CFC55AD0E03D
:10228000C259DE4FC881D0E0D0641FCFCE01E4E058
:1022900096958795EA95E1F783702C2F26952695DC
:1022A000237040E2249F90011124382B8C2F8370DF
:1022B000C1E0D0E002C0CC0FDD1F8A95E2F7C22B4F
:1022C000D32BDC6802CFDC2FCC27C16FD06AFDCEC8
:1022D000CE018370992721E030E002C0220F331F26
:1022E0008A95E2F7C695C69590E2C99FE001112450
:1022F000C22BD32BDA68E9CEDC2FCC27C46FD06A8F
:10230000E4CEDC2FCC27C06FD06ADFCE8C2F8F704D
:102310000E94D20F34E0D695C7953A95E1F7CF7079
:102320009C2FEC01D069D1CEC9E3D0E0CECEC2EE75
:10233000D0E0CBCEC6EED0E0C8CE80914003811174
:10234000109240030895809590913F0398239093B5
:102350003F03089520911C039091EB0256E029134E
:1023600002C080E0089530E0529FF001539FF00DCD
:102370001124E451FD4F7181761306C070817813EA
:1023800003C07281741304C02F5F3F4F2770E7CFE3
:1023900081E0089580911C039091EB02981301C095
:1023A00008958F5F8770FACFAF92BF92CF92DF927E
:1023B000EF92FF920F931F93CF93DF93C0909E03F2
:1023C000D0909F03E090A003F090A10340914103BF
:1023D000509142036091430370914403C42AD52A6B
:1023E000E62AF72ACFE1D0E0082F10E026E0929FFE
:1023F000000D111D11249CE3A92EBC2ED701C6018E
:102400000C2E04C0B695A795979587950A94D2F798
:1024100080FD0FC0219788F7B12C8B2DDF91CF91D4
:102420001F910F91FF90EF90DF90CF90BF90AF90F2
:102430000895AC9EF001AD9EF00D1124E00FF11F48
:10244000EE0FFF1FE45AFD4F859194910E941510E5
:10245000019701F3E2CFCF93DF93EC010E94D411F7
:10246000EC2FF0E096E0D99FE00DF11D11249CE3E4
:10247000899FE00DF11D1124EE0FFF1FE45AFD4F5F
:1024800085919491DF91CF910C941510E92FEE0F67
:10249000E90FEE0F8E0F982F97708695869586958B
:1024A00025E0829FF0011124E354FD4F50E040E00D
:1024B00080E0219130E0092E02C0369527950A94DC
:1024C000E2F721703327042E01C0220F0A94EAF7A5
:1024D000822B4F5F5F4F4530510559F70895E92F23
:1024E000EE0FE90FEE0F8E0F982F977041E001C0AD
:1024F000440F9A95EAF786958695869595E0899F8B
:10250000F0011124E354FD4F30E020E070E05191E0
:10251000DF011197CB01022E02C0969587950A9490
:10252000E2F7817081958527842385278C932F5F1F
:102530003F4F2530310559F70895FC018081918185
:102540000E942B1292959F70963091F058F4925FF2
:102550009F70923058F4803F19F030F4883E30F488
:1025600081E008959A5FF4CF843FD1F380E008952D
:10257000883EB0F3813FD1F7F3CF90914003809133
:102580003F03892B0E94D20F982F927281E009F4A9
:1025900080E008958093CD047093CF046093CE04BF
:1025A0008091F504843001F583E08093E9008FEF9A
:1025B0009091E800815095FD06C095ED9A95F1F750
:1025C00000008111F5CF8091E80085FF0DC050E03B
:1025D00040E063E070E08DEC94E00E94FD0B8091A0
:1025E000E8008E778093E8000895BC0184E00C94A5
:1025F000CA12BC0183E00C94CA129C0182E0809351
:10260000E9009FEF8091E800915085FD06C085EDBF
:102610008A95F1F700009111F5CF8091E80085FFD0
:102620000CC050E040E065E070E0C9010E94FD0B85
:102630008091E8008E778093E8000895CF93DF9330
:10264000EC0180915D018823B1F18091CB0487FF7B
:1026500032C060E283E08093E9008FEF9091E80060
:10266000815095FD06C095ED9A95F1F70000811116
:10267000F5CF8091E80085FF1BC080915D0170E07F
:1026800050E040E0811104C050E040E068E070E0BC
:10269000CE010E94FD0B8091E8008E778093E800C8
:1026A00080E2FE01A3EDB4E001900D928A95E1F77E
:1026B000DF91CF91089568E081E0CDCF539A3BB18F
:1026C000377F2BB128604FB7F89482E194E0FC018A
:1026D0005191CF0168E02BB9000000C057FF3BB912
:1026E000550F000000C000C000C03BB900C06A9593
:1026F00091F7F4E0803C9F0751F74FBF8FE594E0DE
:102700000197F1F700C0000008959F92AF92BF9229
:10271000CF92DF92EF92FF920F931F93CF93DF93AD
:102720007C015B016A0180918D0301E010E08A3039
:1027300010F40AE010E0C1E0D0E0F894B501C70160
:10274000F6010995982E0E94B90F911004C02196A8
:102750000C171D076CF4892DDF91CF911F910F91FC
:10276000FF90EF90DF90CF90BF90AF909F90089533
:10277000CC9F9001CD9F300D300D112490E080E072
:1027800045E34A95F1F70000019682179307C1F7D8
:10279000D4CF80915303811110C08091D800806103
:1027A0008093D8008AE18A95F1F700C08091D90022
:1027B00080FF0AC081E08093530381E0909153032E
:1027C000913009F080E0089582E0809353030E94E5
:1027D000AD0B1092F504F1CF0E94C913882351F07C
:1027E000E091C204F091C304309721F00190F08190
:1027F000E02D099480E008950E94C91391E0892793
:102800000895FF920F931F93CF93DF93EC01F62E61
:10281000042F122F0E94FC1381110FC0CD31D1055E
:102820007CF06D97FE01EE0FFF1FEC0FFD1FEE5EBB
:10283000FB4FF1820083128303C0CD31D10594F3A5
:10284000DF91CF911F910F91FF9008959F92AF92CA
:10285000BF92CF92DF92EF92FF920F931F93CF938D
:10286000DF93082F80915901801321C090910305B7
:1028700093702091580130E081E09217130609F41B
:1028800080E0817080935C018091080590915B01EC
:10289000981739F080935B0140E060E080E00E948F
:1028A000840E002331F0013079F080E044C081E0F3
:1028B000E8CF80915C01882309F43DC040E060E0EE
:1028C00080E00E94840EF1CFB0905A018CE0B89E57
:1028D000B02C1124DCE0DB0DDB3308F0DAE30E94DE
:1028E000FC13882319F0DE3108F0DDE10E94FC13AF
:1028F000811105C02DE1B21610F4CDE1BC2E9090EF
:10290000040540910505E0910605F0E0EE54FB4E0C
:10291000411130C0F4901F2DCF2DCB2CD12CCD16D2
:1029200008F49CC00E94FC13882309F4A9C081E02C
:10293000DD3108F0BACF90915A019F5F90935A0110
:1029400081110CC082E080935E0180915C01811155
:1029500005C0011103C083E080935E01DF91CF9138
:102960001F910F91FF90EF90DF90CF90BF90AF90AD
:102970009F900895E42EF12CC491AC2EEC2FF0E042
:10298000A6E09A9EC00111242FEF30E0B9010E9409
:10299000E934892D90E0880F991F55E5569FD001A5
:1029A000579FB00D11248A1B9B0B982E990C980EE3
:1029B000D901AE19BF09AE9FC001AF9F900DBE9F58
:1029C000900D1124192F499DA0011124452F552741
:1029D000D901A41BB50BAE9F6001AF9FD00CBE9F69
:1029E000D00C1124D901A919B109AE9DA001AF9D48
:1029F000500DBE9D500D1124452F5527241B350B1E
:102A00002E9FA0012F9F500D3E9F500D1124F52E9B
:102A100062307105A1F050F46115710509F47DCFA4
:102A20006130710581F0F92E1D2D77CF643071056D
:102A300069F080F06630710509F46FCFF4CFFC2E99
:102A4000C92F152F6ACFFC2ECD2D67CFF92E1C2F45
:102A5000C52F63CFC92F1A2DFD2C5FCFF601EF5A7A
:102A6000FD4F808190915B01892331F0212F4F2D03
:102A70006C2FC6010E940114BFEFCB1ADB0A4FCFA7
:102A800081E0DA3308F457CF10CFCF93DF93EC0116
:102A90000E94FC13811105C0CE01DF91CF910C94EF
:102AA000D616D093DC03C093DB03DF91CF9108955A
:102AB0008091090586FF04C084E690E00C944515DA
:102AC00087FF09C08295837024E6829FC00111248C
:102AD00088539F4FF3CF8F7028EC829FC001112441
:102AE00080579E4FEBCF0F931F930E94C9138823EB
:102AF00021F01F910F910C94660D0E94660D0091BC
:102B00008E0310918F032091900330919103600FF9
:102B1000711F821F931F1F910F9108954F925F9213
:102B20006F927F928F929F92AF92BF92CF92DF92DD
:102B3000EF92FF928090090490900A04A0900B04F9
:102B4000B0900C040E94C913882309F44AC0C5013F
:102B5000B4010E943B0D6B017C010E9473154B0177
:102B60005C018092090490920A04A0920B04B09236
:102B70000C04A091E003E0EEF3E08A2F90E04FEF29
:102B80005FEF60E070E04C195D096E097F09A913E1
:102B900031C08093E0038091110481113EC0909177
:102BA0000305892F837019F0892F8695869590915A
:102BB0005E01913009F441C0992389F1923009F402
:102BC0004AC0933009F455C0FF90EF90DF90CF904A
:102BD000BF90AF909F908F907F906F905F904F903D
:102BE00008950E9473156B017C01C818D908EA0882
:102BF000FB08B3CF218D328D2901712C612C441536
:102C000055056605770520F481509F5F3296BFCF4A
:102C10002C0D3D1D328F218FF8CF80E0C8CF109250
:102C20005A0180920D0490920E04A0920F04B0926B
:102C3000100481E080935E01C7CFFF90EF90DF909A
:102C4000CF90BF90AF909F908F907F906F905F904C
:102C50004F900C942614FF90EF90DF90CF90BF9090
:102C6000AF909F908F907F906F905F904F900C945B
:102C7000770E80910205882351F046E050E06CE128
:102C800070E083E095E00E943B3510920205C09011
:102C90000D04D0900E04E0900F04F09010040E94F8
:102CA000C913882369F0C701B6010E943B0D60314A
:102CB00071058105910508F487CF10925E0184CFDC
:102CC0000E9473156C197D098E099F09F0CFE3E00E
:102CD000F5E085E080838091600190916101A09191
:102CE000620181839283A3838FE784838FEF85833F
:102CF00046E050E06CE170E0CF010E943B3510925D
:102D00000205089528E030E043E060E080E30E949F
:102D1000533295E09A95F1F700000895CF93C82FAC
:102D20000E9482168C2F0E94CB328FE792E001978F
:102D3000F1F700C000000E94E332C82F95E09A9599
:102D4000F1F700000E94FB3285E68A95F1F700005A
:102D50008C2FCF9108958FE00E948E168F5F24E60E
:102D6000829FC00111240895CF93DF93C82FD62FDF
:102D70000E948216C03511F01092DF038C2F8068FC
:102D80000E94CB328D2F0E94CB32EC018AEB8A95C8
:102D9000F1F700C00E94FB3283E492E00197F1F763
:102DA00000C00000CE01DF91CF91089564E670E08D
:102DB0000E94E934615071096837710510F067E7C6
:102DC00070E08FE00C94B416CF93DF93209A0E94AA
:102DD0004B321092DF030E94FB320E9482160E9447
:102DE000FB3266EB8BE30E94B4162FEF85EA9EE080
:102DF000215080409040E1F700C000000E94821600
:102E0000E5EDEA95F1F700000E94FB32F5EDFA9549
:102E1000F1F700006AE58AE30E94B4162FEF80E71D
:102E200092E0215080409040E1F700C0000082E035
:102E30000E948E1683E00E948E1684E00E948E16F9
:102E400085E00E948E1686E00E948E166DE183E179
:102E50000E94B416EFE3FCE93197F1F700C00000DF
:102E600068E183E10E94B4160E94821682EE0E94FD
:102E7000CB32F0E5FA95F1F7C4EBD4E0FE01849192
:102E80000E94CB32F0E5FA95F1F7219624E1C23B9E
:102E9000D207A1F78FE193E00197F1F700C000009E
:102EA0008AE20E948E1660E080E10E94B4160E94C1
:102EB000FB32EFE3FCE93197F1F700C0000080E45A
:102EC00096E00E94D6168FE99FE00197F1F700C0C7
:102ED000000060E080E10E94B41660EB81E10E9496
:102EE000B41662E083E60E94B41680E00E948E165B
:102EF0008FE30E948E168AE20E948E162898DF9138
:102F0000CF910895DF92EF92FF920F931F93CF938B
:102F1000DF93CDB7DEB76E970FB6F894DEBF0FBE66
:102F2000CDBF0E94C913882309F43FC16091D70324
:102F30007091D8038091D9039091DA030E943B0DE0
:102F4000672B682B692B09F430C10E94660D6093D2
:102F5000D7037093D8038093D9039093DA030E9428
:102F6000FC13811130C14091D2035091D303609181
:102F7000D4037091D5038091D6030E94391D20930C
:102F8000D2033093D3034093D4035093D50360937B
:102F9000D60385E0E2EDF3E0DE01169601900D9296
:102FA0008A95E1F7D090D303D194DF8285E0FE01CA
:102FB0003696DE01509601900D928A95E1F785E0F4
:102FC000FE017096DE01119601900D928A95E1F74F
:102FD00085E0FE013196A2EDB3E001900D928A9555
:102FE000E1F785E0E2EDF3E0DE015A9601900D9203
:102FF0008A95E1F7E090D3031091D403F090D503C4
:103000000091D6030E94C913882309F46EC08091F1
:10301000090586FF42C02091C1033091C2032D0DE6
:10302000311DD7FC3A953093C2032093C1038091A0
:10303000BF039091C003810F911D17FD9A95909346
:10304000C0038093BF03A90137FF04C0442755275D
:10305000421B530B473051054CF00FEF121613066D
:103060000CF401E01092C2031092C1039C0197FF7F
:1030700004C022273327281B390B273031055CF089
:10308000FF24FA941816190614F4FF24F3941092EE
:10309000C0031092BF0310E0E12CEB8E1C8FFD8E5D
:1030A0000E8F85E0FE017A96DE01169601900D9254
:1030B0008A95E1F785E0FE013696DE011B960190C8
:1030C0000D928A95E1F785E0FE013B96DE011196AF
:1030D00001900D928A95E1F785E0FE013196DE01BF
:1030E0005A9601900D928A95E1F7EB8E1C8FFD8E1A
:1030F0000E8F85E0FE017A96DE01559601900D92C5
:103100008A95E1F785E0FE017596DE011196019042
:103110000D928A95E1F785E0FE013196A2EDB3E0CC
:1031200001900D928A95E1F785E0E3ECF3E0DE0192
:103130005A9601900D928A95E1F78091D2039A8D6B
:10314000892B8093D20385E0E2EDF3E0DE01169651
:1031500001900D928A95E1F785E0E8ECF3E0DE015D
:10316000119601900D928A95E1F745E050E0BE017D
:103170006F5F7F4FCE0106960E946F35892B21F03D
:1031800082ED93E00E94FD0D1092D3031092D403C0
:103190001092D5031092D60385E0E2EDF3E0A8EC9F
:1031A000B3E001900D928A95E1F76E960FB6F89410
:1031B000DEBF0FBECDBFDF91CF911F910F91FF906A
:1031C000EF90DF90089585E0EDECF3E0A2EDB3E041
:1031D00001900D928A95E1F7DCCE80913F039091AA
:1031E0003E03892B80939C02909140039923A1F088
:1031F000892B80939C0280915D018823D9F1809175
:10320000CB0487FF37C08EE1EEE9F2E090E0815019
:1032100098F591110E949D1140E250E06EE173E03B
:103220008CE992E00E946F35892B59F180E2ECE93C
:10323000F2E0AEE1B3E001900D928A95E1F7E09102
:10324000C204F091C3043097E1F080915D018823BE
:1032500059F08091CB0487FF07C080919C02809336
:103260009D0286E080939C020280F381E02D8CE930
:1032700092E0099486E0C8CF2191222341F29F5F1A
:10328000C6CF0895882321F00E94A3110C94ED1855
:103290000895882339F090913F03982B90933F0332
:1032A0000C94ED180895CF9384E090E00E942735A8
:1032B000C82F82E290E00E942735982F8C2FCF9163
:1032C0000895DF92EF92FF920F931F93CF93DF93B6
:1032D0007901C82F880FDD0B41155105A9F0FE01BA
:1032E00093E0EE0FFF1F9A95E1F7E050FF4F8181C9
:1032F00092818C5A9C4F208130E04217530708F48A
:103300009A01A9010E947C35CE010E947334D82E07
:103310008823D1F001151105B9F083E0CC0FDD1F32
:103320008A95E1F7FE01E050FF4F438150E004171A
:10333000150708F4A801C050DF4F6C817D816C5ADD
:103340007C4FC7010E947C358D2DDF91CF911F915D
:103350000F91FF90EF90DF9008959F92AF92BF92F0
:10336000CF92DF92EF92FF920F931F93CF93DF9351
:103370000F92CDB7DEB7962E5A016901780101E0B0
:1033800010E09E012F5F3F4F50E040E070E060E0B2
:103390000E946119182F8823D9F1F501608171818C
:1033A000828193810E943B0D6436710581059105F0
:1033B00030F4C7010E94830B9981891749F105E018
:1033C00010E0960150E040E070E060E0892D0E943E
:1033D0006119D82EC7010E94830B11E099819813BF
:1033E00010E01D2139F00E94660DF50160837183A4
:1033F00082839383812F0F90DF91CF911F910F9143
:10340000FF90EF90DF90CF90BF90AF909F90089586
:1034100085E0F701D60101900D928A95E1F7EACF98
:10342000EF92FF920F931F93CF93DF9300D000D0C2
:103430000F92CDB7DEB77B0105E513E09E012F5F4C
:103440003F4F47E753E061E080E00E94AD198823D9
:1034500049F095E0FE013196A2E7B3E001900D92AC
:103460009A95E1F795E0E2E7F3E0D70101900D923C
:103470009A95E1F70F900F900F900F900F90DF91BA
:10348000CF911F910F91FF90EF900895EF92FF92CF
:103490000F931F93CF93DF93CDB7DEB72A970FB665
:1034A000F894DEBF0FBECDBF0E94FC1311E088234D
:1034B00009F44AC00BE613E09E012A5F3F4F49E83A
:1034C00053E066E085E00E94AD19182F882391F043
:1034D00085E0FE013696DE01119601900D928A95E7
:1034E000E1F785E0FE013196ADECB3E001900D927D
:1034F0008A95E1F7E090DB03F090DC03FA82E98241
:10350000E114F10409F142E050E0BE016F5F7F4F2A
:1035100087E893E00E946F35892BB1F0F092710338
:10352000E092700310E000E030E020E042E050E084
:1035300060E773E087E00E946119182F882321F06B
:10354000F0928803E0928703812F2A960FB6F894B1
:10355000DEBF0FBECDBFDF91CF911F910F91FF90C6
:10356000EF9008950F931F93CF93DF9300D000D077
:10357000CDB7DEB760917F037091800380918103A6
:10358000909182030E943B0D11E064367105810524
:10359000910518F10E9473156E5F7F4F8F4F9F4FFB
:1035A00069837A838B839C8310E000E030E020E025
:1035B00044E050E0BE016F5F7F4F83E00E946119DD
:1035C000182F882351F00E94660D60937F0370933B
:1035D00080038093810390938203812F0F900F903B
:1035E0000F900F90DF91CF911F910F910895AF929F
:1035F000BF92CF92DF92EF92FF920F931F93CF93E0
:10360000DF93C82F7B01D42F69015801FB01608132
:103610007181828193810E943B0D64367105810521
:10362000910510F4DD23F9F010E000E030E020E037
:10363000A501B6018C2F0E946119C82F882339F08B
:103640000E94660DF70160837183828393838C2FC0
:10365000DF91CF911F910F91FF90EF90DF90CF906E
:10366000BF90AF900895C1E0F2CF0F931F93CF9317
:10367000DF9300D000D000D00F92CDB7DEB786E048
:10368000E3E0F5E0DE01119601900D928A95E1F7F5
:10369000809111048F8347E050E063E673E0CE0130
:1036A00001960E946F3541E0892B09F440E007E064
:1036B00010E09E012F5F3F4F63E873E084E00E94BB
:1036C000F71A27960FB6F894DEBF0FBECDBFDF9175
:1036D000CF911F910F9108950F931F93CF93DF9375
:1036E000EC0145E050E06AE573E00E946F3541E08F
:1036F000892B09F440E005E010E09E016BE773E0E0
:1037000082E00E94F71ADF91CF911F910F910895E7
:10371000909109059F70811114C08FEF980F9F70D1
:1037200080910905807F982B909309050E94581578
:103730004091090550E070E060E08FE090E00C946B
:103740005D3581E0EBCF90910905929593708111E1
:1037500016C08FEF980F93709295907F8091090516
:103760008F7C982B909309050E945815409109056C
:1037700050E070E060E08FE090E00C945D3581E017
:10378000E9CF69EE7EEF90E080E00E94693560E06D
:1037900082E090E00E944B3560E083E090E00E9480
:1037A0004B35109241031092420310924303109242
:1037B000440360E084E090E00E944B3560E082E2E8
:1037C00090E00E944B3560E085E090E00E944B3530
:1037D00060E086E090E00E944B356FEF87E090E07C
:1037E0000E944B3540E050E0BA0188E090E00E9432
:1037F0005D3560E08DE090E00E944B3540E050E0A8
:10380000BA0188E190E00E945D3560E087E190E0D8
:103810000E944B3540E050E0BA018CE190E00E94FC
:103820005D3570E060E080E290E00E94693540E044
:1038300050E0BA0188E190E00E945D3510920905E0
:1038400040E050E0BA018FE090E00E945D350E94B8
:10385000581540E050E0BA0183E190E00C945D35EA
:103860001F920F920FB60F9211242F933F934F93F5
:103870005F936F937F938F939F93AF93BF93EF93D8
:10388000FF938091E10082FF09C08091E20082FFF6
:1038900005C08091E1008B7F8093E1008091DA0088
:1038A00080FF24C08091D80080FF20C08091DA0082
:1038B0008E7F8093DA008091D90080FF9DC080E1E7
:1038C00089BD82E189BD09B400FEFDCF81E080930E
:1038D000F5048091D004811109C00E94AD0B0E94B3
:1038E000780C8091E20084608093E2008091E10096
:1038F00080FF17C08091E20080FF13C08091E2003A
:103900008E7F8093E2008091E20080618093E200EC
:103910008091D80080628093D80019BC85E08093A4
:10392000F5048091E10084FF2BC08091E20084FFC8
:1039300027C080E189BD82E189BD89B5982F91704A
:1039400080FFFBCF8091D8008F7D8093D80080913D
:10395000E1008F7E8093E1008091E2008F7E809372
:10396000E2008091E20081608093E2008091F604A1
:10397000882309F447C084E08093F5048091F5041E
:103980008091E10083FF27C08091E20083FF23C084
:103990008091E100877F8093E10082E08093F504CD
:1039A0001092F6048091E1008E7F8093E100809177
:1039B000E2008E7F8093E2008091E200806180933C
:1039C000E20042E060E080E00E94460C8091F0005E
:1039D00088608093F000FF91EF91BF91AF919F912C
:1039E0008F917F916F915F914F913F912F910F90A8
:1039F0000FBE0F901F90189519BC1092F5041092ED
:103A0000D00474CF8091E30087FD93E09093F50498
:103A1000B5CF78941F921FB61F9211248F939F9356
:103A2000AF93BF938091C7049091C804A091C9043B
:103A3000B091CA040196A11DB11D8093C704909353
:103A4000C804A093C904B093CA04BF91AF919F91D9
:103A50008F911F901FBE1F9018952FB7F8948091DB
:103A6000C7049091C804A091C904B091CA042FBFA3
:103A700008959F92AF92BF92CF92DF92EF92FF9202
:103A80000F931F93CF93DF93CDB7DEB72A970FB66F
:103A9000F894DEBF0FBECDBF4E83052F5F83162F78
:103AA000688779878A878091DF03811107C060E08A
:103AB00080E50E94B41681E08093DF030E948216A5
:103AC00080E50E94CB328AEB8A95F1F700C00E9414
:103AD000E332B82E0E94E3320E94E3327C010E945E
:103AE000E332982E0E94E3326C010E94E332A82E4A
:103AF0008B2D877011F01092DF030E94FB32B3FC14
:103B00002DC0B7FE2BC08091DD039091DE03892B81
:103B100031F40E942D1D9093DE038093DD03F9287C
:103B200001E880E8E816F1044CF4002711270E198B
:103B30001F090038110514F00FE710E0DA2811E82A
:103B400080E8C816D10454F4882799278C199D0958
:103B50008038910514F08FE790E0182F0F831887B5
:103B600085E0FE013696DE01119601900D928A9550
:103B7000E1F729813A814B815C816D8170E080E0C1
:103B800090E02A960FB6F894DEBF0FBECDBFDF914E
:103B9000CF911F910F91FF90EF90DF90CF90BF904A
:103BA000AF909F9008950E942D1D9C019091C40399
:103BB0008091C503982B21F03093BE032093BD0361
:103BC0009091C6038091C703982B21F03093BC03DA
:103BD0002093BB0383EC93E00C94FD0D90E080E018
:103BE0000E94E70D90E080E00E94D10D10923E030C
:103BF0000E94ED1885E0E3ECF3E0DF011D928A9569
:103C0000E9F71092B9031092B8031092BA030C941A
:103C1000D31D60939E0370939F038093A0039093A2
:103C2000A1030C94EE1D0F931F9341E050E060E060
:103C300070E004C0440F551F661F771F8A95D2F7A6
:103C4000CB01BA01609570958095909500919E0387
:103C500010919F032091A0033091A1036023712351
:103C6000822393231F910F910C94091E90911D03A1
:103C70008095892380931D03282F277091F4282F86
:103C8000082E000C330B9217130659F09091CC04B8
:103C900092FD07C08595859585950E94131E10920B
:103CA0001D030895CF93C091CC04C2FB992790F9CE
:103CB000981799F080FBC2F9C093CC046091CB04B3
:103CC00084E090E00E944B356C2F82E290E00E94ED
:103CD0004B3582E0CF910C94361ECF9108950F930F
:103CE0001F9341E050E060E070E004C0440F551FB6
:103CF000661F771F8A95D2F780919E0390919F034C
:103D0000A091A003B091A1038A019B01082B192B5C
:103D10002A2B3B2BC901B8011F910F910C94091E4E
:103D20006093410370934203809343039093440351
:103D30000C94EE1D10923F0380915D01EEE9F2E0DC
:103D4000882359F08091CB0487FF07C08EE1DF0103
:103D50001D928A95E9F70C94EE1D86E0F8CF1F932B
:103D6000CF93DF93CDB7DEB7AA970FB6F894DEBF37
:103D70000FBECDBF87EF94E02091F100DC012D93C1
:103D8000CD01B4E08F3F9B07B9F78091F8048330F1
:103D900009F472C0B8F4813009F449C0823009F4E2
:103DA000B3C08091E80083FF86C28091F7049091B0
:103DB000F8049A3008F07FC2E92FF0E0E957FA4C96
:103DC0000C9411358A3009F48EC08B3009F471C01F
:103DD000893039F78091F704813219F78091FB041B
:103DE0009091FC04009711F00297D9F68091E800B9
:103DF000877F8093E8008091E80082FF38C090912F
:103E0000F3008091F200029731F48091F10081304B
:103E100011F0863021F48091F1008093D2048091DA
:103E2000E8008B778093E8000E94270CBACF80913E
:103E3000F704813A09F0B5CF8091E800877F80933D
:103E4000E8008091FB049091FC04892B61F460E20E
:103E500083ED94E070E00E94D90C8091E8008B77AC
:103E60008093E8009ECF60E090E080E0F3CF809107
:103E7000F5048111C0CF95CF8091F704813A09F004
:103E800090CF8091FB049091FC04892B09F089CF9D
:103E90008091E800877F8093E8008091E80080FFB0
:103EA000FCCF80915D018093F1008091E8008E77D6
:103EB000B9CF8091F704813209F073CF8091FB0470
:103EC0009091FC04892B09F06CCF8091E800877FEA
:103ED0008093E8000E94270C8091F90480935D0193
:103EE0000E949A1E5ECF8091F704813209F059CF6B
:103EF0008091E800877F8093E8000E94270C8091E2
:103F0000FA048093D1044DCF8091F704813A09F0EF
:103F100048CF8091E800877F8093E8008091E80097
:103F200080FFFCCF8091D104BECF803899F08238D9
:103F300009F0C1C18091FB048F70873008F0BBC1CC
:103F40008093E9008091EB0085FB882780F910922F
:103F5000E90006C08091F3049091F404911182600D
:103F60009091E800977F9093E8008093F100109281
:103F7000F1008091E8008E779AC1882309F488C106
:103F8000823009F098C18091F90481118BC1809130
:103F9000FB048F702FEF280F263008F08CC1809320
:103FA000E9002091EB0020FF7DC1933031F4809136
:103FB000EB0080628093EB0075C19091EB00906103
:103FC0009093EB0021E030E001C0220F8A95EAF7E0
:103FD0002093EA001092EA008091EB008860EACF1B
:103FE000811169C11091F9041F778091E3008078F5
:103FF000812B8093E3008091E800877F8093E80025
:104000000E94270C8091E80080FFFCCF8091E300A4
:1040100080688093E30082E0111183E08093F504CF
:104020004AC18058823008F046C12091F90430918D
:10403000FA042C3DE3E03E07A1F583E08A838AE29F
:1040400089834FB7F894DE01139620E03EE051E2F9
:10405000E32FF0E050935700E49120FF03C0E29576
:10406000EF703F5FEF708E2F90E0EA30C0F0C796A0
:104070008D939D932F5F243159F74FBF8091E800B6
:10408000877F8093E8006AE270E0CE0101960E948B
:10409000D90C8091E8008B778093E8000CC1C09622
:1040A000E7CF8091FB049091FC04432F55274330C8
:1040B000510509F44AC078F54130510509F47AC038
:1040C00084E590E0E2EBF5E14230510509F0F3C000
:1040D0002091E800277F2093E8002091FD04309193
:1040E000FE048217930708F49C0140E02115310576
:1040F00009F065C0411163C08091E80082FDC9CF1D
:104100008091F504882329F2853019F28091E80026
:1041100083FFF2CFBECF4132510509F43CC0423299
:10412000510509F0C8C08330910508F0C4C0FC01F6
:10413000EE0FFF1FE257FD4F0190F081E02D8557F4
:104140009D4FDC018C9190E01AC03327213031055E
:10415000D1F02115310561F02230310509F0ABC0F5
:10416000E8E1F6E1E4918E2F90E0E8E1F6E107C0A6
:10417000E0E7F6E1E4918E2F90E0E0E7F6E10097CA
:1041800009F499C0A5CFEAE4F6E1E4918E2F90E01E
:10419000EAE4F6E1F4CF8330910508F08CC0880F93
:1041A000991FFC01EC56FD4F0190F081E02D89E054
:1041B00090E08ECF82E190E0E6E0F6E189CF809159
:1041C000F504882309F465CF853009F462CF809126
:1041D000E80083FD5ECF8091E80082FD8DCF809165
:1041E000E80080FF83CF9091F3008091F2002115C9
:1041F000310519F08830910550F041E0089709F039
:1042000040E08091E8008E778093E8006FCF449182
:104210004093F1003196215031090196E8CF803862
:1042200009F049C08091E800877F8093E800809181
:10423000F6048093F1009DCE81113DC01091F904E8
:104240001230C8F58091E800877F8093E8001093D2
:10425000F6040E94270C112311F084E005C0809120
:10426000E30087FDFACF81E08093F50442E061EC42
:1042700081E00E94460C42E061EC82E00E94460C24
:1042800042E261EC83E00E94460C8091F50413C089
:104290008091F904813079F481E0933009F080E075
:1042A0008093F4041092E9008091E800877F809366
:1042B000E8000E94270C8091E80083FF0AC08091EB
:1042C000E800877F8093E8008091EB008062809314
:1042D000EB00AA960FB6F894DEBF0FBECDBFDF91FC
:1042E000CF911F9108951F920F920FB60F92112434
:1042F0002F933F934F935F936F937F938F939F93EE
:10430000AF93BF93CF93DF93EF93FF93D091E900E7
:10431000DF708091EC00C82FC17080FDC0E8109262
:10432000E9008091F000877F8093F00078940E94EC
:10433000AF1E1092E9008091F00088608093F00039
:10434000CD2BCF70C093E900FF91EF91DF91CF911A
:10435000BF91AF919F918F917F916F915F914F919D
:104360003F912F910F900FBE0F901F9018958823AB
:1043700079F19CEF980F913A38F4682F8CE992E02C
:104380000E94720D0C94ED1890E2980F983050F442
:10439000877091E001C0990F8A95EAF7892F0E94F2
:1043A000A311F0CF9BE5980F933020F490E080E0CC
:1043B0000C94E70D98E5980F973120F490E080E099
:1043C0000C94D10D8D3E20F00E949E0E0C94D31DB6
:1043D0000895CF93C82F882309F46FC08CEF8C0FFA
:1043E000813AC0F580915D01882311F18091CB0461
:1043F00087FF1EC0EC2FE695E695E695F0E0E456C3
:10440000FD4F828190E04C2F477021E030E002C0E8
:10441000220F331F4A95E2F782239323892B91F0D1
:104420006C2F8CE992E00E94720D0E94ED180AC078
:10443000EEE9F2E084EA92E02191C21789F38E1747
:104440009F07D1F76C2F8CE992E00E949C0DCF91D1
:104450000C94ED1880E28C0F883068F4C77021E06E
:1044600030E001C0220FCA95EAF780913F03822B0A
:1044700080933F03ECCFEBE5EC0FE33040F4F0E04A
:10448000E259FE4F808190E0CF910C94E70DE8E572
:10449000EC0FE73150F4F0E0EE0FFF1FEF58FE4F46
:1044A00080819181CF910C94D10DCD3E30F08C2F35
:1044B0000E945D0FCF910C94D31DCF9108951F934F
:1044C000CF93DF93182FC9E1D0E0893311F4C0E511
:1044D000D0E0812F0E94E9218FE99FE00197F1F759
:1044E00000C000002197C1F7812FDF91CF911F916C
:1044F0000C94B7210F931F93CF93DF93C62FD42F24
:10450000022FFC0182818823A1F0609301050E94A3
:104510002D1D909300058093FF04C77081E001C0BA
:10452000880FCA95EAF7DF91CF911F910F910C94F4
:10453000491980910105681335C08091FF0490915D
:1045400000050E94570D893B910560F510E21D0F93
:10455000CD17B9F080E28C0F883040F4C77081E04D
:1045600001C0880FCA95EAF70E944219183048F432
:1045700081E09D2F977001C0880F9A95EAF70E94FD
:104580004919802F0E945F22183098F4D77081E07B
:1045900001C0880FDA95EAF7DF91CF911F910F9153
:1045A0000C944219C77081E001C0880FCA95EAF7E0
:1045B000F3CFDF91CF911F910F910895AF92BF92EA
:1045C000CF92DF92EF92FF920F931F93CF93DF93DF
:1045D000EC018AE0A82EFE012491222309F494C064
:1045E000213009F03EC031968491813031F4229619
:1045F000FE0184910E945F2207C0823039F4229626
:10460000FE0184910E94E9212196E5CF833031F4A7
:104610002296FE0184910E94B721F6CF843009F0E2
:1046200071C02296FE01249190E080E0FE01319657
:104630002053330B2A30310548F0019728F3EFE976
:10464000FFE03197F1F700C00000F7CFA89EA0016E
:10465000A99E500D1124C901840F951F2491EF01CB
:10466000E5CFE22FF0E0E053FE4FB490822F869525
:104670008695869590E0FC01E054FE4FE49027700B
:10468000F12C022E02C0F594E7940A94E2F731E08F
:10469000E322FF24FC01E055FE4FC490D12C022EF2
:1046A00002C0D594C7940A94E2F7E1E0CE22DD245B
:1046B000FC01E056FE4F049110E002C015950795ED
:1046C0002A95E2F701701127E114F10419F081EE47
:1046D0000E94E921C114D10419F086EE0E94E9215B
:1046E0008B2D0E945F22CD2819F086EE0E94B72103
:1046F000EF2819F081EE0E94B721012B09F484CF35
:104700008CE278CFEF0180CFDF91CF911F910F9195
:10471000FF90EF90DF90CF90BF90AF9008954F92B1
:104720005F926F927F928F929F92AF92BF92CF9241
:10473000DF92EF92FF920F931F93CF93DF93CDB74A
:10474000DEB72F970FB6F894DEBF0FBECDBF7C014A
:10475000FC0183819481892B39F01081D180812FD4
:104760008D218F3F09F073C52F960FB6F894DEBFE9
:104770000FBECDBFDF91CF911F910F91FF90EF90B2
:10478000DF90CF90BF90AF909F908F907F906F9071
:104790005F904F9008950E94D411082F682F89814F
:1047A0009A810E946F12E12FF0E026E0D29EE00D88
:1047B000F11D11243CE3039FE00DF11D1124EE0FC8
:1047C000FF1FE45AFD4F05911491F7018281882360
:1047D00009F43BC6083AFDE51F0709F446C078F422
:1047E000073A3DE51307B1F0F801E75AFD45E83017
:1047F000F10508F0CFC0EF56FA4C0C941135093A88
:104800009DE51907A9F10A3AEDE51E0769F780E56C
:1048100092E002C089E592E00E94DE2280911D03B1
:10482000877009F4A1CFF7018281882309F49CCF16
:104830008091CC0482FD98CF82E02F960FB6F89439
:10484000DEBF0FBECDBFDF91CF911F910F91FF90C3
:10485000EF90DF90CF90BF90AF909F908F907F9020
:104860006F905F904F900C94361E86E592E0D4CF07
:1048700083E592E0D1CF0E94BD1291E089270E948A
:10488000881BF7018281882309F4F2C41092010584
:104890000430FDE51F0708F0B7C00B3F2CE51207F9
:1048A00030F4C80182509C45449708F0B7C00E947C
:1048B00053199093CC048093CB0401319CE51907E4
:1048C00009F482C108F000C10930FCE51F0709F4B2
:1048D00065C108F0CDC005303CE5130709F456C1A9
:1048E00008F0B3C003309CE5190709F445C108F08E
:1048F00049C18091CB04816002301C4509F43FC15D
:104900006091CB041091CC0484E090E00E944B3580
:10491000612F82E290E00E944B350E949A1E7ECF6A
:10492000882309F4AECF0E94BD12A9CF882309F4D1
:10493000A8CF0E94BD1291E089270E94A31BA1CF9E
:10494000882309F49ECF0E94BD12F7CF90910905EC
:1049500080FB97F9909309050E94581592CF882300
:1049600009F48FCF90910905892F97FB87F980581B
:1049700080930905F1CF9091090580FB96F9EACF64
:10498000882309F47ECF90910905892F8F7B96FFAC
:104990008064EECF043FFCE51F0739F1A0F4093D28
:1049A0003CE51307F1F00A3D8CE5180751F1083D8D
:1049B0009CE5190709F065CF26E241EE61EEC701DB
:1049C0000E947A222BCF063FECE51E07B1F088F05B
:1049D000073F2CE5120709F054CF27E245EE66EEBB
:1049E000EECF27E245EE65EEEACF26E241EE60EE3D
:1049F000E6CF27E245EE64EEE2CF26E241EE62EE3C
:104A0000DECF28E241E0EFCF02363DE5130709F49F
:104A10004ECF063A8DE5180709F449CF06312CE54B
:104A2000120709F034C480913F038A7A91E009F4B7
:104A300090E09093BC0269E2811165E38CE992E019
:104A40000E949C0D0E94ED18E9CE8091CB048062FB
:104A500007302CE5120709F492C08091CB048061E5
:104A600008301C4508F48BC08091CB04806487C05B
:104A70000D308CE5180709F49BC098F48091CB04A5
:104A80008E7F0B30ECE51E0709F479C08091CB04D2
:104A90008C600C301C4508F472C08091CB048D7F73
:104AA0006EC08091CB048F7E0F302CE5120709F485
:104AB00066C08091CB04877F00311C4508F45FC03D
:104AC0008091CB048F7D5BC00E3F8CE5180709F405
:104AD00077C050F50531ECE51E0709F47FC098F466
:104AE0008091CB04837F03312CE5120709F447C082
:104AF00008F46EC00E949A1E9091CB04892F97FBF8
:104B000087F980583CC00C3F8CE5180709F442C077
:104B100008F052C08091CC0481600B3F1C4509F025
:104B2000EFCE8093CC04ECCE0230FDE51F0709F4F4
:104B300061C090F48091CC048C7F01153DE5130792
:104B400081F390F18091CC04982F909591708E7F95
:104B5000892B90FB81F9E5CF02369DE5190709F411
:104B60004FC0063AEDE51E0709F451C003301D455C
:104B700009F0C6CE60E03FC08091CB048260809394
:104B8000CB04BECE8091CB048460F9CF8091CB045E
:104B90008860F5CF8091CC048260C3CF0E949A1EBA
:104BA0008091CB048068EBCF8091CC048360B9CF37
:104BB0008091CB048B7FE3CF8091CC048E7FB1CFEB
:104BC0008091CC048D7FADCF8091CB048F7BD7CFEC
:104BD0000E949A1E8091CB048F77D1CF8091CB0415
:104BE00082FB992790F921E0922790FB82F990FBB4
:104BF00083F9C5CF61E08EE090E00E944B3580CE16
:104C00009091CB04892F8F7E94FF8061B8CF9091D3
:104C1000CB04892F8E7F90FF8160B1CF4BE65EE0A1
:104C200064E77EE00E94080EF9CD44E75EE06BE6A3
:104C30007EE0F8CF49E55EE062E67EE0F3CF49E250
:104C40005EE065E37EE0EECF81E00E94740BE6CD8E
:104C50000E949A1E3FEF84E39CE0315080409040D8
:104C6000E1F700C0000081E08093E00080E28093E3
:104C7000D8001092C900EFE1FEE43197F1F700C0CF
:104C8000000087E090EBDC0180930C0590930D050C
:104C9000A0930E05B0930F0588E19CE00FB6F89441
:104CA000A895809360000FBE90936000FFCF81E0D5
:104CB0000EC380E00CC3812F902F0E944612D82E85
:104CC00019C3212F2F70C22E107F19F0C29420EF2C
:104CD000C222DD20B9F0CC2069F080E2800F88305C
:104CE00010F0811009C080913F03C82AC0923F0391
:104CF0000E94ED18802F44C080913E03C82AC092C4
:104D00003E03F6CF802F0E94B721CC20D9F1005E60
:104D1000083010F0811004C08C2D0E94A31106C031
:104D2000C09480913E03C822C0923E030E94ED18B9
:104D300029C0312F3F70C32E107F103219F0C2945A
:104D400090EFC922882059F081E0881609F483C0C9
:104D5000DD2009F48DC0992009F483C0CBCF2091C8
:104D6000CC0422FF55C0DD2009F44BC0CC2039F023
:104D700080913F03C82AC0923F030E94ED1880E053
:104D80000E94E9212A2D2850330B2430310510F4DC
:104D90000E94EC13BB20A9F080911D0380FD11C07F
:104DA000F70112828595859585950E946F1EC70132
:104DB0000E948F2380911D038595859585950E947E
:104DC000131E85E0F701DE01119601900D928A9580
:104DD000E1F789819A810E9446129A81E981F0E087
:104DE00026E0929FE00DF11D11243CE3839FE00D2E
:104DF000F11D1124EE0FFF1FE45AFD4F8591949190
:104E0000B3CC80E00E94B721CC2009F4BBCF84CF83
:104E1000DD20A1F0909140038C2D892B911003C0CF
:104E20000E944919AFCFE1E09E12FACF22FDAACF2E
:104E3000981709F4A7CF80934003A4CF911006C020
:104E40000E949D118C2D0E9442199CCFF1E09F166B
:104E500009F498CFF5CFDD2031F025E0291508F4CD
:104E600091CF8C2DDDCF34E0391508F48BCFEACF0C
:104E7000992041F389E388120DC09FEFE7EEF3E03C
:104E80009150E040F040E1F700C00000802F0E9408
:104E9000B72178CF2FE738E381E0215030408040C0
:104EA000E1F7F2CF812F86958695837061F081308E
:104EB00009F068CFC8019370D11002C090E080E083
:104EC0000E94D10D5FCFC8019370D11002C090E055
:104ED00080E00E94E70D56CF802FDD20B9F10E94BF
:104EE0005D0F015F110B08301105B0F581E090E016
:104EF00001C0880F0A95EAF725E0E2EDF3E0DE0154
:104F0000169601900D922A95E1F725E0FE0136965E
:104F1000DE011B9601900D922A95E1F72E81DD208E
:104F2000C1F0822B8B8785E0FE013B96DE01119656
:104F300001900D928A95E1F785E0FE013196A2ED90
:104F4000B3E001900D928A95E1F71CCF0E949E0E6E
:104F5000C8CF80958223E6CF0E94D31D13CF812F27
:104F6000837009F066C0D1100DCF802F8295869591
:104F70008770880F880F602F6F70462E512C712C10
:104F8000612C082E04C0440C551C661C771C0A9426
:104F9000D2F740E050E0BA0104FF0FC04FE050E00C
:104FA00060E070E004C0440F551F661F771F8A95AC
:104FB000D2F74095509560957095812F869586958E
:104FC0008370823019F1D8F40091410310914203AB
:104FD0002091430330914403813069F044295529DD
:104FE00066297729CB01BA01602371238223932399
:104FF0000E94901EC7CE402A512A622A732ACB01F2
:10500000BA016429752986299729F2CF442955299F
:1050100066297729009141031091420320914303AF
:1050200030914403CB01BA0160277127822793276F
:10503000DFCF8695DD2011F0812F8170882309F460
:10504000A1CE802F829586958770880F880F602F5C
:105050006F70462E512C712C612C082E04C0440C0C
:10506000551C661C771C0A94D2F740E050E0BA0148
:1050700004FF0FC04FE050E060E070E004C0440F58
:10508000551F661F771F8A95D2F7409550956095FA
:105090007095812F869586958370823019F1D8F4AA
:1050A00000919E0310919F032091A0033091A103D2
:1050B000813069F04429552966297729CB01BA0145
:1050C00060237123822393230E94091E5BCE402A12
:1050D000512A622A732ACB01BA01642975298629CB
:1050E0009729F2CF442955296629772900919E03F3
:1050F00010919F032091A0033091A103CB01BA012D
:105100006027712782279327DFCF1F70DD2029F0CA
:10511000812F0E946F1E802F83CE802F0E94421904
:10512000812F0E94131E2ECE802F92EF891609F434
:105130003FC0981570F0E0EF8E16D1F0F1EF8F16AA
:1051400091F0DD2009F46CC09110D4CD812F8F71C6
:1051500033C023EF821699F134EF8312F2CF80919E
:10516000CC0482FF3FC0812F8F71DD20D1F224C09B
:10517000DD20C9F084E0891508F404CE1F7161E0D8
:1051800070E080E090E004C0660F771F881F991FD1
:105190001A95D2F700919E0310919F032091A003CE
:1051A0003091A103ADCF95E0991508F4EBCDE6CF92
:1051B000812F8F71D110B5CF0E946F1EE3CD60E0BB
:1051C00070E0CB01DD2009F47FCF1F7161E070E05A
:1051D00080E090E004C0660F771F881F991F1A9522
:1051E000D2F772CFDD2089F01F71812F0E946F1ED0
:1051F0008091CC0482FD07C0E8E01E9FC00111240D
:10520000836080931D03812FD7CF81E00E94361EDB
:10521000F1E0F91508F0B6CD82E00E94361EB2CD5D
:10522000992091F0893341F42FEF37EE83E021503C
:1052300030408040E1F728CE9FE7E8E3F1E091506D
:10524000E040F040E1F720CE812F8F716ACF85E0FA
:10525000DE01119601900D928A95E1F7F701228106
:1052600089819A81211197CA0E944612082F9BCAF0
:105270000631FCE51F0709F084C08091BC0269E299
:10528000811165E38CE992E00E94720DDBCB0B3556
:105290002DE5120709F40BCD58F401158CE518071C
:1052A00009F4D6CC0F3D1C45A1F40E94C11BB6CA1F
:1052B0000C35EDE51E0709F4FCCC0D351D4549F410
:1052C0008091CC0482FB882780F991E089270E9495
:1052D000521EF701828110810181882309F4EBCCF1
:1052E000812F902F0E94D411D82E682F812F902FBC
:1052F0000E946F12E12FF0E026E0029FE00DF11D09
:1053000011243CE3D39EE00DF11D1124EE0FFF1F8D
:10531000E45AFD4F859194910E9415108C01882EBE
:10532000F701D280958092945FE0952280911D03D1
:105330008770C1F0BD2CDD20B1F0812F807F8034DB
:1053400021F080E2800F883068F08091CC0482FDEB
:1053500009C082E00E94361E80911D038770BB2425
:10536000B3948111B12CA12EA2943FE0A322FBE0C3
:10537000FA1508F407CDEA2DF0E0E756FA4C0C9444
:10538000113580913F0382720A3C2CE5120709F423
:1053900056CCA8F5063C9CE5190709F44BCCC8F49B
:1053A000043CFCE51F0709F439CC08F03ECC033C73
:1053B0001C4509F08ECF8091030591E089278093E9
:1053C000030510925E0180910205816080930205C1
:1053D00025CA41E45EE06DE47EE0083C9CE51907E7
:1053E00009F420CC42E65EE069E57EE0093C1C451C
:1053F00008F418CC4DE45EE061E47EE013CC0E3C92
:10540000FCE51F0709F420CCB0F44DE05EE06BE151
:105410007EE00C3C3CE5130709F404CC45E35EE078
:1054200069E27EE00D3C1C4508F4FCCB4BE15EE0FC
:105430006DE07EE0F7CB073DECE51E0708F4EEC912
:105440000E351D4509F4EAC944CFF801E75AFD4578
:10545000E830F10508F09ECAEB55FA4C0C94113572
:105460001F93CF93DF938091EA02807FA9F480910C
:10547000E702882389F080911C03D091EB026091B0
:10548000E5027091E602A091E802B091E902C62F10
:10549000C72316E0D81304C0DF91CF911F91089560
:1054A00090E0109711F0CF3F19F401968770F2CF7A
:1054B000189F9001199F300D1124F901E451FD4FFF
:1054C00041814713F2CF40814613EFCF4281411112
:1054D000ECCF438154814A1B5B0B493B510528F7B4
:1054E0008091EA028F7080618093EA02F901EF50A7
:1054F000FD4F80818F708061808385EE92E00E94F5
:105500008F23DF91CF911F910C94CA118F929F929C
:10551000AF92BF92CF92DF92EF92FF920F931F93C1
:10552000CF93DF93CDB7DEB761970FB6F894DEBFA8
:105530000FBECDBF8C0185E0F801DE011D96019004
:105540000D928A95E1F7D8011296EC90129785EEAC
:10555000882E82E0982E4091E8025091E902411590
:10556000510509F431C19091E5022091E602892F9D
:1055700082238F3F09F428C1DC901196CC901197BB
:105580001396AD90BC901497F090E702F501E41BE0
:10559000F50BFF2009F4F9C08091EA02382F307F23
:1055A000E93BF10508F0C5C0311185C0FE2C2C1176
:1055B00024C09D1122C0E11020C08F7080618093B3
:1055C000EA02C4010E948F238091EA02D801159655
:1055D0008C938F2D61960FB6F894DEBF0FBECDBFB2
:1055E000DF91CF911F910F91FF90EF90DF90CF90BF
:1055F000BF90AF909F908F900895A114B10429F0AF
:105600008D2D8C218F3F09F0FDC080E080FF14C0FC
:105610004E2D6C2D8D2D0E94AA11882369F085EEE8
:1056200092E00E948F2386E0E5EEF2E0DF011D921A
:105630008A95E9F7F12CCDCFAB2829F08D2D8C215F
:105640008F3F09F0DCC080E0B82FB170AB2E80FF37
:1056500029C04E2D6C2D8D2D0E94AA11B82E8111BE
:1056600021C0DD86CE868D859E850E942B12292F36
:1056700022952F70223050F0243078F49F7051F032
:10568000F8019581907F31F4FB2CA3CF9F7011F02E
:105690008823D1F3805E8830B8F3C8010E948F233D
:1056A000BA2CF2CFEE2009F494CF8091EA02816007
:1056B0008093EA02BFCF2C1112C09D1110C0E110DF
:1056C0000EC015968C93C8010E948F2386E0F801C6
:1056D000A5EEB2E001900D928A95E1F77ACFC8016C
:1056E0000E949D12882309F1EE20F9F08091EA02D0
:1056F000803270F02091E5023091E60238872F83E6
:105700001986BB86AA868C87CE0107960E948F23B6
:1057100086E0F801A5EEB2E001900D928A95E1F7DE
:105720000E94302AFF24F39454CFC8010E948F2393
:10573000F9CF332309F473CF2C110FC09D110DC085
:10574000E1100BC0F8018583C8010E948F2386E019
:10575000D4011D928A95E9F73CCFC8010E949D12A1
:10576000882319F3EE2009F38091EA02803280F257
:105770002091E5023091E6023A8329831B82BD82A3
:10578000AC828E83CE010196C1CFE93BF105B0F426
:10579000FE2CEE2051F22C1103C09D1509F496CF7A
:1057A000C8010E949D128111B3CF8091EA028160ED
:1057B0008093EA02C8010E948F230BCF86E0F40198
:1057C00011928A95E9F705CFEE2009F4AECFC80112
:1057D0000E949D12F82E882309F4A7CF86E0F801D5
:1057E000A5EEB2E001900D928A95E1F78091E50275
:1057F0009091E6020E942B120E94302AEACE81E0AC
:105800008E2522CF81E08E2501CF1F93CF93DF938A
:10581000CDB7DEB767970FB6F894DEBF0FBECDBF2A
:105820004B8B5C8B6D8B7E8B8F8B611110923E034B
:105830001A8A198A85E0FE017396DE011D96019091
:105840000D928A95E1F786E0FE013D96DE011796FE
:1058500001900D928A95E1F7CE0107960E94862A63
:10586000882389F016E080911C039091EB02891344
:1058700049C067960FB6F894DEBF0FBECDBFDF916B
:10588000CF911F91089586E0FE013796DE011196B3
:1058900001900D928A95E1F78A859B85892B11F3FA
:1058A0008F81988589238F3FE9F22091EB0230E0C8
:1058B000C90101968770992740911C034817190662
:1058C00071F40E949A1E1092EB0210921C0386E063
:1058D000E5EEF2E0DF011D928A95E9F7C3CF96E08D
:1058E000929FD001939FB00D1124A451BD4FFE0192
:1058F000319601900D929A95E1F78093EB020E9408
:10590000CA11B0CF819FC001112484519D4F0E94C4
:10591000862A882309F4ADCF80911C0390E001967C
:105920008770992780931C039ECFBF92CF92DF92FE
:10593000EF92FF920F931F93CF93DF93CDB7DEB714
:1059400061970FB6F894DEBF0FBECDBF8E010F5F1B
:105950001F4F8AE0D8011D928A95E9F790E4C92E7D
:1059600091E0D92EBB24B394EE24E394F12CF601FC
:1059700081916F018F3F09F445C0F894E82FE295BB
:10598000EF70F0E021A18F70A70102C0440F551FF6
:105990008A95E2F7CA01922F982B91A392A1809544
:1059A000892382A30E94B90F00C066E471E0F80168
:1059B0004B2D4095DB019D91BD0180819F3F09F4F6
:1059C00073C0292F22952F7030E0D90190962C9129
:1059D00030E09F7002C0359527959A95E2F720FD3B
:1059E00063C08B2980833196B1E06B347B0711F75C
:1059F000F601319780818F3F11F00E94BB0FE0EAE2
:105A0000EA95F1F7BB0CF6E4CF16F1E0DF0609F0FA
:105A1000AECF4AE050E0B80182E993E00E946F35D2
:105A20007C01892B41F08AE0F801A2E9B3E0019002
:105A30000D928A95E1F710919D03E114F104B1F103
:105A400081E0809347030E942D1D9093460380932D
:105A5000450380914503909146030E94570D059799
:105A600078F0A2E9B3E0E12FF0E0EE55FC4F87E9D2
:105A700093E02D9121938A179B07D9F71092470342
:105A800081E090E0EF28B1F061960FB6F894DEBFA8
:105A90000FBECDBFDF91CF911F910F91FF90EF907F
:105AA000DF90CF90BF90089584239CCF80914703CF
:105AB0008111CFCF0E94C913F82EE0919D03882356
:105AC00009F482C06E012BE0C20ED11C85E0D60124
:105AD0001D928A95E9F70E2F10E00E551C4F80910C
