:100000000C94470A0C947F0A0C947F0A0C94AB2F33
:100010000C947F0A0C947F0A0C947F0A0C947F0A3C
:100020000C947F0A0C947F0A0C94601E0C941C1E86
:100030000C94542B0C947F0A0C947F0A0C947F0A26
:100040000C947F0A0C947F0A0C947F0A0C947F0A0C
:100050000C947F0A0C94391F0C947F0A0C947F0A2D
:100060000C947F0A0C947F0A0C947F0A0C947F0AEC
:100070000C947F0A0C947F0A0C947F0A0C947F0ADC
:100080000C947F0A0C947F0A0C947F0A0C947F0ACC
:100090000C947F0A0C947F0A0C947F0A0C947F0ABC
:1000A0000C947F0A0C947F0A0C947F0A0501098046
:1000B000A101850319012AB700150126B700950192
:1000C00075108100C0050C0901A101850419012AE0
:1000D000A002150126A002950175108100C005013E
:1000E0000902A1010901A10005091901290815004A
:1000F0002501950875018102050109300931158135
:10010000257F95027508810609381581257F95019F
:1001100075088106050C0A38021581257F95017541
:10012000088106C0C005010906A101050719E029DB
:10013000E715002501950875018102950175088173
:10014000010507190029FF150026FF00950675080F
:100150008100050819012905950575019102950190
:1001600075039101C029001E001F002000210022FC
:10017000002B0014001A00080015001700E100040D
:10018000001600070009000A00E0001D001B000621
:100190000019000500000001512A00E3002C00E2D4
:1001A000002D002700260025002400230031001325
:1001B0000012000C0018001C00340033000F000E69
:1001C000000D000B00E2003800370036001000116F
:1001D00000000002510000280000004C0035021E03
:1001E000021F02200221022202C45C000000000063
:1001F0000000000000C35CE300E200E000E100005A
:1002000000C55C000000000000DF5C005C00000135
:100210000000000000000000002D02270226022539
:10022000022402230200003000610060005F002F02
:1002300000670056005E005D005C005700630054DC
:10024000005B005A0059005500000000000000014A
:10025000000000620045003A003B003C003D003ECB
:1002600000AB0000000000000000000000AE0050E5
:1002700000520051004F000000AC004A004B004EFD
:10028000004D00000000000000010001000100011D
:1002900000440043004200410040003F00A900002C
:1002A000000000000000000000A800E700E600E4F5
:1002B00000E5000000AA00000000000000DF5C0074
:1002C0005C00000100000000000000000001048E3E
:1002D000966E773EFE7E5F1DB8F2664EFF5D19B0EA
:1002E000C20469542AD62EBFDD19B0C3E529B1E096
:1002F00023A5A9B1C10082674C1A978D795120C7F7
:10030000068E7C7C7A764FFD5930E2460E9EBEDF2B
:100310001D9991A0A5A1A9D022C6EF5C1B9589903B
:10032000A2A7CCFB5528B3E44AF76C3BF46A562EDF
:10033000DE1F9DB8D3058892A6CE1EBEDF1D99B0E4
:10034000E246EF5C07115D980B9D9497EE4E4533A6
:100350006B44C729562730C6A7D5F256DFB438629A
:10036000CBA0B6E30F84062405656F7689B5774187
:100370002782666582CCD5E620D52717C5F80323EA
:100380007C5F64A51DC1D636CB4CD4DB66D78BB160
:10039000997E6F4C364006D6EBD7A2E4F495515ABD
:1003A0005496D55344D78CE0B94068D218E9DD9A09
:1003B000239248EE7F43AFEA7738848C0A72AF69A4
:1003C000F8DDF12483A3F84ABFF59413DBBBD8B45E
:1003D000B3A0FB4550603059123171A2D313E7FA34
:1003E000E7CE0F63150B6B94BB378326059DFB4649
:1003F00092FC0A15D10D7392D68C1B8CB8558ACEFF
:10040000BDFE8EFCED0912839182513123FBB40CA9
:1004100076AD7CD9B44BB26714099C7F0C18BA3BFB
:10042000D68E142AE41B529F2B7DE1FB6A3302FA1D
:10043000AC5AF23E887EAED1F378E805D1E3DC21F8
:10044000F6E19ABD170ED9469B8803EAF666BE0E02
:100450001B5049964097F1F1E480A66EE87734BFCF
:10046000294044C2FF4E98D39CA3322B76510409F5
:10047000E7A9D1A632B12353E247ABD6F5695C3E7A
:100480005FFAAE4520E5D244FF39326DFD27575C57
:10049000FDF0DEC1B599E5F51C770175C56D589283
:1004A000F2B247000126967A30FFB7F0EF77C18AA3
:1004B0005DDCC0D129301E77387A94F1B87A7EEFAE
:1004C000A4D1AC314AF25D643DB2E2F00899FC700F
:1004D000EE24A77EEE1E20697D44BF8742DF883B65
:1004E0000CDA42C904F94550FC838F116A72BC9939
:1004F00095F0AC3DA73BCD1CE2887937115F398977
:10050000950A16847AF68AA428E4ED83803BB12309
:10051000A50310F466EABB0C0FC5EC6C69C5D324C7
:10052000ABD42AB799887608A0A8957CD8386DCD29
:100530005902514BF1B52B50E3B6BDD072CF9EFDA1
:100540006EBB44C8248A77188A1306EF977DFA8118
:10055000F031E6FA77ED3106315B548A9F3068DB83
:10056000E240F84E73FAAB748B105813DCD2E67885
:10057000D1322E8A9F2C58064827C5A95E8147890B
:100580004621910370A43E889CDA330ACEBC8B8E40
:10059000CF9FD3718043CF6BA95183763082C56AD8
:1005A000853911501A82DC1E1CD57DA971993347FB
:1005B0001997B35AB1DFEDA4F2E62684A2289A9ED9
:1005C000DFA66AF4D6FC2E5B9D1A2A2768FBC1833E
:1005D000214B90E036DD5B314255A013F7D08953B3
:1005E0007199570929C5F321F8372F40F3D4AF1675
:1005F000083602FC77C58B049056B9C9679A99E80A
:1006000000D386FF972D08E9B7B391BCDF45C6ED4F
:100610000F8C4C1EE65B6E3830E4AAE395DEB9E43D
:100620009AF5B2559A879BF66AB2F2779A31F47AC4
:1006300031D11D04C07C32A29E9AF562F8278DBF8D
:1006400051FFD3DF64373F2A6F763A7D77069E7776
:100650007F5EEB3251F916669A09F3B008A47096E2
:100660004630FFDA4FE91BED8DF8741F3192B373FA
:100670001736DB9130D688556B3477877AE7EE06EC
:10068000C61C8C190C4846235E9C075CBFB47ED602
:100690004F749CE2C5508BC58B159060625729D072
:1006A0001343A18088910044C74D1986CC2F2A7529
:1006B0005AFCEB972A70E378D891B04F9907A3952D
:1006C000EA2421D5DE512093270A3073A8FF8A97A8
:1006D000E9A76A8E0DE8F0DFECEAB46C1D392A62F6
:1006E0002D3D5A8B65F890052E7E912C78EF8E7AF1
:1006F000C12FAC78EEAF2845064C26AF3BA2DBA35A
:100700009306B53CA5D8EE8FAF25CC3F856848A9A8
:1007100062CC978F7F2AEAE0150AAD6207BD45F8E3
:1007200041D836CB4CDB6EE63AE7DA15E9291E12E2
:1007300010A0142C0E3DF4BF394192750B257BA3FC
:10074000CE399C1564C8FA3DEF7327FE262ECEDA0B
:100750006EFD718EDDFE76EEDC125C02C53A4E4E09
:100760004FBFCA4015C76E8D41F110E04F7E977F95
:100770001CAE478E6BB12531B073C71B9779F980DA
:10078000D366223007741EE4D08021D6EE6B6C4F06
:10079000BFF5B7D909872FA914BE27D9725001D444
:1007A0001373A6A751027525E1B345347DA88EEBDE
:1007B000F31649CB4F8CA1B9368539755D0800AE6B
:1007C000EBF6EAD7133A215A5F3084522695C914C2
:1007D000F257556BB110C2E1BD3B51C0B7554C71DA
:1007E0001226C70DF951A43802057FB8F1724BBF2C
:1007F000718914F37738D97124F30011A1D8D46921
:1008000027083735C9119D901C0EE71CFF2D1EE8E7
:1008100092E11810957CE080F4964321F9752164EB
:1008200038DD9F1E9516DA561D4F9A53B2E2E41832
:10083000CB6B1A65EB56C63BE5FED8263F3A84598A
:100840007266A2F375FFFB60B322AD3F2D6BF9EB2F
:10085000EA057CD88F6D2C989E2B93F15E46F0872D
:1008600049297368D77FF9F0E57DDB1D7519F3C45D
:10087000589B1788A892E0BEBD8B1D8D9F5676AD04
:10088000AF29E2D9D552F6B55635573AC8E15643A5
:100890001994D3049B6D35D80B5F4D198EECFA6417
:1008A000910A72202BBC1A4AFE8BFDBBED1B23EA7A
:1008B000AD7282A1299971BDF095C103DD7BC2B2F1
:1008C0003C2854D368A472C86696E0D1D87FF8D18A
:1008D000262BF7ADBA55CA15B932C3E588978E5C99
:1008E000FB92258BBFA245557AA76F8B575BCF0E26
:1008F000CB1DFB208277A88CCC16CE1DFADECC0B4C
:1009000062FECCE1B7F0C381647340A0C24D89118F
:10091000753355338DE84AFDEA6E300BD7312CDE46
:1009200047E3BFF85542E27F59E517EF99346991E3
:10093000B1238E20872DA8FED58AF3843AF037E4C0
:10094000090054EE674993E48170E3904DEFFE4156
:10095000B7997BC183BA62126F7DDE6BAFDA16F98D
:100960005551EEA60C2B02A3FD8DFB3017E46FDF73
:100970003671C4CA872548B047ECEAB4BFA54D9B81
:100980009F0293C4E3E4E8422D6881150AEB845B7F
:10099000D6A874FB7D1DCB2CDA462A7662CEBC5CD1
:1009A0009E8BE7CFBE78F57CEBB33A9CAA6FCC72F6
:1009B000D159F21123D63F48D1B7CEB0BFCBEA8090
:1009C000DE57D45E972F75D1508E802C6679BF721A
:1009D0004BBD8A816CD3E101DCD21526C536DA2CF9
:1009E0001AC02794EDB79B850B5E8097C5EC4FEC42
:1009F000885D50073547DC0B3B3DDD60AFA85D816E
:100A00003824255D5C15D1DEB3ABEC0569EF83EDD1
:100A10005754B8646411163269DA9F2D7F36BB448F
:100A20005A34E87FBF03EB007F59682279CF736C9B
:100A30002C29A7A15F38A11DF02053E01A63145898
:100A40007110AA080C3E161A6022827FBAA443A035
:100A5000D0AC1BD56B64B51493319E5350D0576600
:100A6000EE5A4FFB032A695876F183F74EBA8C424F
:100A700006605D6DCE6088AEA4C3F103A54B98A15E
:100A8000FF67E1ACA2B862D76FA031B4D277AF21D3
:100A90001006C69AFF1D09170E5FF1AA54344B4584
:100AA0008A8763A6DCF9243067C6B2D6613369EE63
:100AB00050615728E77EEEEC3A5A734EA88DE41841
:100AC000EAEC4164C8E2E866B62DB6FB6A6C16B380
:100AD000DD4643B973006A71ED4E9D251AC33C4A49
:100AE00095159935811402D6989BECD8233B84291F
:100AF000AF0C9983A69A344FFAE8D03C4BD0FBB6A2
:100B000068B89E8FCDF7602D7A22E57DAB651B9589
:100B1000A7A87FB677477B5F8B1272D0D491EFDEA8
:100B200019503CA78BC4A9B323CB76E681F0C1044E
:100B30008FA3B8545B97AC19FF3F55272FE01D4298
:100B40009B57FC4B4E0FCE98A9435703BDE7C89463
:100B5000DF6E367332B4EF2E857A6EFC6C188275B8
:100B6000359007F3E49F3EDC68F3B5F319809206F5
:100B700099A2E86FFF2E7FAE42A45FFBD40E812BBB
:100B8000C304FF2BB3744E365B9C1500C6472BE89D
:100B90008B3DF19C039A587F9B9CBF854979352EEC
:100BA000567B411439478326AA078998111B86E78B
:100BB000737AD87D786153E979F5368D449284F95A
:100BC0001350583BA46A3665498E3C0EF16FD284AF
:100BD000C47E8E3F39AE7C84F163378E3CCC3E447C
:100BE0008145F14BB9ED6B365DBB20601A0FA3AAAE
:100BF00055773AA9AE374DBAB8866BBC0850F6CCDB
:100C0000A4BD1D4072A586FAE210AE3D584B97F385
:100C10004374A99EEB21B701A4869397EE2F4F3B17
:100C200086A1416F412690785C7F30384B3FAAEC1B
:100C3000ED5C6F0EAD4387FD9335E601EF412690E5
:100C4000999EFB195BADD2918AE046AF65FA4F845D
:100C5000C1A12DCF458BD38550557CF96788D44EE3
:100C6000E9D76B6154A1A4A6A2C2BF309C409F5F8C
:100C7000D7692B24825ED9D6A712541AF7559F76CE
:100C800050A99584E66B6DB59654D6CDB3A19B461D
:100C9000A7944DC494B498E3E1E234D533160754D5
:100CA000CDB77753DB4F4D469DE9D49C8A36B6B815
:100CB00038266C0EFF9C1B438B80CCB93DDAC7F104
:100CC0008AF26DB8D7742F7E1EB7D34AB4ACFC79C4
:100CD000486CBC96B69446572DB0A3FC1EB9526022
:100CE000852D41D043011E1CD57DFCF3960DC7CB4D
:100CF0002A299A93DD882D375DAAFB4968A09C506C
:100D0000867F685657F9791839D4E001843361CA6F
:100D1000A5D2D6E4C98A4A23444EBCF0DC24A1A063
:100D2000C4E2073C10C4B5254B6563F480E7CF618E
:100D3000B1718221872CF59100320CECA9B59A741F
:100D400085E3368F764F9C6DCEBCAD0A4BED7604B5
:100D5000CBC3B9339E019396697DC5A245799B04A7
:100D60005C8409ED8843C7AB931426A140B5CE4EF1
:100D7000BF2A42853E2C3B54E8121F0E9759B227DA
:100D800089FAF2DF8E6859DC06BCB6850D0622ECC6
:100D9000B1CBE504E63DB3B04173083F3C588663F0
:100DA000EB50EE1D2C3774A9D318A3476E9354ADA6
:100DB0000A5DB82A555D78F6EEBE8E3C7669B9407C
:100DC000C234EC2AB9ED7E20E48D0038C7E68F44AA
:100DD000A886CEEB2AE990F14CDF32FB731B6D92B3
:100DE0001E95FEB4DB65DF4D23548948BF4A2E7043
:100DF000D6D762B43329B13A334C236DA676A521F8
:100E00006348E6905DED90950B7A84BEB80D5E6305
:100E10000C62264C145AB3AC23A474A76F3330056C
:100E2000600142A028B7EE1938F164808243E141A5
:100E3000271F1F90547AD5232ED13DCB28BA587F37
:100E4000DC7C9124E92851836EC5562142EDA056E1
:100E500022A140806BA8F794CA136B0C39D9FDE925
:100E6000F36FA69EFC708AB3BC593C1E1D6CF97CC6
:100E7000AFF9887195EB5700BD9F8C4FE12483C576
:100E800022EAFDD30CE217187C6A4CDE77B4539B40
:100E90004C81CD2360AA0E25739C02793230DF7419
:100EA000DF7519F4A5145CF77AA8A591847C60031A
:100EB000063BCD50B6279CFEB1DDCCD3B05924B251
:100EC000CAE21C81229D078F8EB9BE4EFAFC39659D
:100ED000BABF9D12375E977EF389F55DF5E3098C05
:100EE00062B5209D0C538A681BD28F75175DD4E5BF
:100EF000DA756219146A262DEBF8AF37F06CA45539
:100F0000B1BCE233C09ACAB011494F689B3B6B3CFD
:100F1000CC13F6C785616842AEBBDDCD4516291DF1
:100F2000EADBC803943CEE4F8211C3EC28BD970561
:100F300099DED7BB5E221FD4EB64D992D985B76AFC
:100F4000056AE42441F1CDF0D83FF89E0ECD0B7A2E
:100F5000706B5A750A6A3388EC17750870102F2465
:100F6000CFC4E942006194CA1F3A7606FAD248819A
:100F7000F077600345D961F4A46F3DD930C3046BA9
:100F8000542AB7EC3BF44BF5685226CEFF5D19911D
:100F9000A0A3A5A9B1E023C40A774DF95120A3A5C8
:100FA000A9B1C10082868E7F5D1991A0A3C4EB54C4
:100FB0000B756852078C9A978D79706246EF5C1BAF
:100FC00095897141E121A1A1A1C002674C1AB6CF58
:100FD000FD785324ABB5C9F16023A5C812876D58BD
:100FE00013858892876D5832C70C9A97ACDA36EE23
:100FF0005E3EDF1DB8F2662FBDF87247ED581385CF
:101000008892878C7B550990A2C6EF3DF85324AB9C
:10101000D42AB7EC5A36EE5E3EDF3CFA764FFD59E5
:1010200030E246EF3DF853056931C10082868E7F7C
:101030005D19B0E227CCFB744B148B948B7568332D
:10104000C50892878C9AB6CF1CBAD70D98B2E62FF6
:10105000DC1B9589716023C40A968F9CBAF66E3F9B
:10106000FC5B15A8D226AFBDF872662FDC1BB4CB93
:10107000148B94AAB7CDF951018082866F3DD93087
:10108000E227CCFB744B14AAB7CDF97043046B353F
:10109000C9F16023A5C8F3450892876D5832E62F41
:1010A000BDF872664E1EBEFE7E7E7E5F1D9991A0CB
:1010B000A3C40A774D1893A4ABD40B754910A2C6EC
:1010C000EF3DF85324ABB5E833E44A16AEDE1FBC5F
:1010D000DB15A8B3C5087345E931C1E121A1A1A180
:1010E000C002866F5C3AD70D9893A4CA16AEDE1F75
:1010F0009D99B0E246EF3DF872470C9AB6CFFD5984
:1011000011A0A3A5C8F3450892876D39F043048A5E
:1011100096AEDE3EDF1D9991A0C2066F3DF8724784
:101120000C9A978D989385887345E931E023A5A99A
:10113000D003848A96AEDE1FBCDB15A8D226CEFF74
:101140005D1991818082672DD813A4ABD40B94AA2A
:10115000B7CDF95120A3A5C8F345E95022C6EF5CED
:101160003AD70D9893858873644AF74DF95120A3B7
:10117000C40A96AEDE3EFE7E7E7E5F3CFA764FFD72
:101180007872662FBDD930C3E54812878C7B55280D
:10119000D2078C9A97ACDA178D795120A3C4EB54FF
:1011A0000B948B94AAD62EBFFC5B15A8D226AFDC7D
:1011B0001BB4EA37EC3BF46A37CD1893856931C12B
:1011C000E140E325C812878C9AB6CFFD5911A0C221
:1011D000068E7F5D38F2470C7B746A37EC5A36EE28
:1011E0003FFC7A764F1C9B95897141006344EB5418
:1011F0002AD60F9CBAD70D9893856931C100828693
:101200008E9EBEDF3CFA572CDA36EE3FFC5B15892A
:1012100071410082868E7F5D38F247ED5813A4CA73
:10122000F74DF95101806344EB542AD62EBFDD19E6
:1012300091A0A3A5A9B1E042068E7F5D1991A0A35C
:10124000C40A968F7D7872470C7B746A562EDE1F17
:10125000BCFA570D7951016121A1C0E325A9B1C1A3
:10126000E14002674C1A978D9893A4ABD42AD60F0D
:101270009C9BB4CB14AAB7CDF95120A3C4EB35C9BC
:10128000F16042068E7F7C7A766E3FFC7A766E5EE7
:101290003EFE7E5F3CDB15897141E121C0E344EBFA
:1012A000542AB7CDF9706227ADD832C70C7B744B86
:1012B00014AAB7EC3BD528D2076D39D120C2E74C30
:1012C0001A978D98B2C70C5928F39B0001010101B0
:1012D00001010101010202020202020202020303F1
:1012E00003030303030304040404040404050505C1
:1012F0000505060606060607070707070808080883
:10130000090909090A0A0A0B0B0B0C0C0C0D0D0D2F
:101310000E0E0E0F0F0F10101111111212131314C5
:1013200014151516161717181819191A1A1B1B1C3D
:101330001D1D1E1E1F202021222223242425262697
:10134000272829292A2B2C2D2D2E2F3031323233CC
:101350003435363738393A3B3C3D3E3F40414243D5
:101360004445464748494A4C4D4E4F5051535455B9
:101370005658595A5B5D5E5F616264656668696B69
:101380006C6D6F7072737577787A7B7D7E808283E7
:101390008587888A8C8E8F91939596989A9C9EA02B
:1013A000A2A3A5A7A9ABADAFB1B3B5B7BABCBEC038
:1013B000C2C4C6C9CBCDCFD1D4D6D8DBDDDFE2E401
:1013C000E7E9EBEEF0F3F5F8FAFDFF09025400034C
:1013D0000100A0FA09040000010301010009211124
:1013E00001000122400007058103080001090401F2
:1013F0000001030102000921110100012247000739
:10140000058203080001090402000103000000092D
:10141000211101000122320007058303200001127F
:1014200001000200000008F8A833180001010200C2
:1014300001300343006800610072007900620064BB
:10144000006900730020002800340078003600296D
:1014500000200045006C006900740065002D004309
:1014600000000024034200610073007400610072F8
:1014700000640020004B006500790062006F00618D
:1014800000720064007300000004030904001124CA
:101490001FBECFEFDAE0DEBFCDBF04B603FE18C03B
:1014A0008091B8049091B904A091BA04B091BB04A2
:1014B0008730904BA740B04B59F41092B80410926B
:1014C000B9041092BA041092BB04E0E0F8E3099565
:1014D00012E0A0E0B1E0EEEDF2E602C005900D9260
:1014E000AA39B107D9F724E0AAE9B2E001C01D92F8
:1014F000A83BB207E1F70E947B2B0C944F310C9470
:1015000000009091AF04937061F081110BC0946062
:101510009093AF0410925E018091AE04816080933D
:10152000AE040895833010F09860F2CF880F880FD2
:10153000982BEECFFC01AC014B5F5F4F8FEF91E337
:101540002191822728E030E087FF09C0880F892792
:1015500021503109C9F7E417F50791F70895880F6D
:10156000F7CF9091AF04937071F08093B0046093C3
:10157000B104413408F040E44093B2048091AE04D9
:1015800081608093AE040895E8EDF0E080818E7F65
:1015900080831092E2001092DA001092E100A0EE37
:1015A000B0E08C9181608C9380818F77808319BCAF
:1015B000A7EDB0E08C918E7F8C9380818F7E8083AD
:1015C0001092940408952091E4003091E50095E68E
:1015D000A9012091EC00822F817020FF06C080912C
:1015E000E80080FF06C080E008952091E80022FD19
:1015F0001AC08091A104882389F0853089F08091F8
:10160000EB0085FD0FC02091E4003091E50042170A
:101610005307F9F29150E1F684E0089582E00895CD
:1016200083E0089581E00895EF92FF920F931F9356
:10163000CF937C018B010E94E30AC82F811117C050
:101640008091E80085FD0BC08091E8008E77809343
:10165000E8000E94E30A882399F3C82F08C0F70125
:1016600081917F018093F1000150110949F78C2F7E
:10167000CF911F910F91FF90EF9008958091A30457
:1016800087FF13C08091E80082FF06C08091E800C8
:101690008B778093E80004C08091A1048111F2CF80
:1016A00008958091A1048823D9F38091E80080FFF8
:1016B000F8CF8091E8008E77ECCF982F9093E900D7
:1016C000242F762F50E0891731F07091EC00209193
:1016D000ED005091F00021FD07C09F5F973071F73A
:1016E0008093E90081E008953091EB003E7F3093D4
:1016F000EB003091ED003D7F3093ED003091EB0039
:1017000031603093EB007093EC002093ED00509328
:10171000F0002091EE0027FDE0CF80E00895CF9209
:10172000DF92EF92FF920F931F93CF93DF93C8ED59
:10173000D0E088818F7E8883E7EDF0E08081816052
:10174000808384E082BF81E08093940488818E7FCF
:10175000888302EE10E0F80110821092DA0081EE28
:10176000C82ED12CF601108288818F7788838881DA
:101770008068888388818F7D888319BC1092A1043A
:101780001092A2041092A00410929F0490EEE92EF1
:10179000F12CF70180818B7F808388818160888331
:1017A00042E060E080E00E945D0BF60180818E7F68
:1017B0008083F8018081816080838081886080835C
:1017C000F70180818E7F8083888180618883DF91AB
:1017D000CF911F910F91FF90EF90DF90CF900895E0
:1017E000FC018091A9049091AA0486179707A0F0A4
:1017F0006115710529F49091E8009E779093E800B7
:1018000090E06115710551F4911108C08091E800D4
:1018100082FF34C080E00895BC01F2CF8091A10422
:101820008823C1F18530C1F18091E80083FD30C08B
:101830008091E80082FDEACF8091E80080FFE1CF4F
:101840008091F3002091F200382F6115710519F095
:101850002830310558F091E02830310509F090E04A
:101860002091E8002E772093E800CBCF81918093E0
:10187000F100615071092F5F3F4FE7CF8091A104C4
:10188000882341F0853041F08091E80083FFBECF8E
:1018900081E0089582E0089583E00895089580919D
:1018A00096040895CF92DF92EF92FF922FB7F894AB
:1018B000C0908D04D0908E04E0908F04F09090043E
:1018C0002FBFA7019601261B370B480B590BCA01E6
:1018D000B901FF90EF90DF90CF9008959C014FB732
:1018E000F89480918D0490918E04A0918F04B09112
:1018F00090044FBF821B930B08952FB7F89460910B
:101900008D0470918E0480918F04909190042FBF6C
:1019100008959C01FC0132969FEF80E041914617AB
:1019200051F09F3F19F4411101C0982F8F5F86300D
:10193000A9F79F3F09F40895290F311D97FD3A95A6
:10194000F9016283089520918A0430918B0428174D
:10195000390771F090938B0480938A04E091880496
:10196000F0918904309721F00084F185E02D0994ED
:10197000089520918604309187042817390771F063
:101980009093870480938604E0918804F091890401
:10199000309721F00680F781E02D09940895FA012F
:1019A000811101C0FB010994EFEAF4E0248130E1E8
:1019B000231B08F420E024838091AE04816080938F
:1019C000AE040895EFEAF4E0248130E1230F08F437
:1019D0002FEF24838091AE0481608093AE0408953C
:1019E000EFEAF4E0438120E1421B08F440E081810A
:1019F000628190E00C94B10AEFEAF4E0438120E1C7
:101A0000420F08F44FEF8181628190E00C94B10A9B
:101A1000EFEAF4E0628120E1621B08F460E081817A
:101A2000438190E00C94B10AEFEAF4E0628120E196
:101A3000620F08F46FEF8181438190E00C94B10A4A
:101A4000EFEAF4E08181438162818850990B0C9424
:101A5000B10AEFEAF4E0818190E043816281089667
:101A60000C94B10A8091AF0486958695815009F453
:101A700082E00C94810A8091AF04869586958F5FF1
:101A8000833008F081E00C94810A809359018091A1
:101A9000AF048370809358010E948D1183E080937E
:101AA0005E010895FF920F931F93CF93DF93182F3A
:101AB000062FF42ED0E0C0E02F2D402F612FCE0155
:101AC0000E9430122196CA33D105B1F7DF91CF9130
:101AD0001F910F91FF900895AF92BF92CF92DF9226
:101AE000FF920F931F93CF93DF93362F472FE82F4B
:101AF000F0E0E553FD4E71110FC0E4918E2F2E2FB3
:101B00006E2F722FDF91CF911F910F91FF90DF9079
:101B1000CF90BF90AF900895C72FD0E02491F22EC0
:101B2000022F10E056E0659FC0011124EFEFF0E0B6
:101B3000BF010E94C730832F90E0880F991F35E5C1
:101B4000369FD001379FB00D11248A1B9B0B982F15
:101B5000990F980F6F01CC1ADD0AC09ED001C19E6B
:101B6000B00DD09EB00D11248B2F499FA0011124E0
:101B7000452F55276F01C41AD50AC09EA001C19EEA
:101B8000500DD09E500D11245F01A91AB108AC9ED2
:101B90006001AD9ED00CBC9ED00C1124CD2CDD2458
:101BA000EC19FD09E09FE001E19FD00DF09FD00D01
:101BB0001124ED2F62307105A1F050F4611571050B
:101BC00009F49ECF6130710581F0EB2F852F98CFFE
:101BD0006430710569F080F06630710509F490CFCA
:101BE000F4CFE22F2B2F8D2F8BCFE22F252F88CFF5
:101BF000EB2F822F2D2F84CF2B2F8F2DE52F80CFF2
:101C000080E0089578940895F894E82FE295EF70B5
:101C1000F0E031A1282F2F7081E090E001C0880F03
:101C20002A95EAF7982F9095932391A392A1892B57
:101C300082A30C94020E9091720392FF06C0282F8B
:101C400028712830F9F4877F846093FF06C0282F1D
:101C500028712831F1F4877E84612091730320FF7D
:101C600006C0382F38713830D9F4877F816021FF62
:101C700006C0282F28712831D1F4877E816194FD18
:101C8000877E0895282F24712430F9F68B7F886091
:101C9000DCCF282F2471243101F78B7E8861DDCFC2
:101CA000382F3171313019F78E7F8860E0CF282FBF
:101CB0002171213121F78E7E8861E1CFCF93DF93AF
:101CC000EC0182389105A9F1D8F58133910509F429
:101CD00096C048F58932910509F48AC08A9709F4BB
:101CE00095C0C11522E5D20708F0B6C0C11531E58F
:101CF000D30708F026C1C83ED10508F09CC0C03EFD
:101D0000D10560F5C83AD10508F087C0C53AD105BC
:101D100008F0EFC0C130D10509F12097F9F0C430C7
:101D2000D105E0F440C08533910509F45AC0C99744
:101D3000C1F680917203837089F0C0EED0E00EC0CE
:101D4000833E910599F170F4803E910501F1823E48
:101D5000910539F68091720382FD21C0CE01DF9199
:101D6000CF910895863E910561F1873E910571F10D
:101D7000843E910509F0B5CF8091730381FFEECFCA
:101D800080917203C7EED0E084FD0DC0E7CF809153
:101D9000720380FD07C19091730390FFDFCFC3EE04
:101DA000D0E084FFDBCFD0E0C0E0D8CF80917203D9
:101DB00082FDFBC09091730390FDBFCF84FFCECF17
:101DC000F2CF8091720383FDDDCFC8CF8091720383
:101DD00083FDEEC09091730391FFF0CFC4EED0E08D
:101DE000BDCF8091720385FFB9CFC9E2D0E0B6CFF5
:101DF0008091720385FFB2CFC5E3D0E0AFCF809171
:101E0000720386FFABCFCAE2D0E0A8CF8091720305
:101E100086FFA4CFC1E3D0E0A1CFCF3BD10518F618
:101E2000C85AD0E0CC0FDD1FCF58DE4F0990D881C3
:101E3000C02DD46493CFC11540E5D40708F064C029
:101E4000C11580E4D80708F05CC0CE019A958115D1
:101E50009F4108F483CFA7CFC11536E5D30718F506
:101E6000C11545E5D40708F084C0C11584E5D8073D
:101E700008F07AC09C2F969596959E012370332783
:101E8000C115D34508F462C0C1E0D0E002C0CC0F58
:101E9000DD1F2A95E2F730E2939FC0011124C82B81
:101EA000D92BDA685BCFC1158AE5D80778F4C1155C
:101EB00099E5D90708F068C0C11528E5D20708F4EC
:101EC00072CFDC2FCC27C06FD06A48CFCE0190569E
:101ED0008115904208F067CF8D2F8F710E941B0EE5
:101EE00090E0982F882788279F719C012C2BE9016F
:101EF00049C0C55AD0E0C259DE4FC881D0E0D06495
:101F00002DCFDF70D06A2ACFCE01E4E09695879579
:101F1000EA95E1F783702C2F26952695237040E2F1
:101F2000249F90011124382B8C2F8370C1E0D0E0C6
:101F300002C0CC0FDD1F8A95E2F7C22BD32BDC68E1
:101F40000DCFDC2FCC27C16FD06A08CFC1E0D0E025
:101F500002C0CC0FDD1F2A95E2F720E2929FC0015C
:101F60001124C82BD92BEBCFDC2FCC27C46FD06A20
:101F7000F5CE8C2F0E941B0EC82FD0E0DC2FCC2773
:101F8000CC27DF71D062EACE8C2F8F700E941B0E9F
:101F900034E0D695C7953A95E1F7CF709C2FEC01C8
:101FA000D069DCCEC9E3D0E0D9CEC2EED0E0D6CE47
:101FB000C6EED0E0D3CE80911003811110921003B1
:101FC0000895809590910F03982390930F0308959F
:101FD000809104039091D302981301C008958F5FFC
:101FE0008770FACFAF92BF92CF92DF92EF92FF92BB
:101FF0000F931F93CF93DF93C0906E03D0906F0326
:10200000E0907003F090710340911103509112031E
:102010006091130370911403C42AD52AE62AF72A83
:10202000CFE1D0E0082F10E026E0929F000D111DB7
:1020300011249CE3A92EBC2ED701C6010C2E04C08E
:10204000B695A795979587950A94D2F780FD0FC00E
:10205000219788F7B12C8B2DDF91CF911F910F9194
:10206000FF90EF90DF90CF90BF90AF900895AC9E1F
:10207000F001AD9EF00D1124E00FF11FEE0FFF1FD8
:10208000EB59FE4F859194910E945E0E019701F3EA
:10209000E2CFCF93DF93EC010E94F20FEC2FF0E040
:1020A00096E0D99FE00DF11D11249CE3899FE00D7E
:1020B000F11D1124EE0FFF1FEB59FE4F85919491F6
:1020C000DF91CF910C945E0EE92FEE0FE90FEE0F2A
:1020D0008E0F982F977086958695869525E0829F1E
:1020E000F0011124EB55FD4F50E040E080E02191DC
:1020F00030E0092E02C0369527950A94E2F7217048
:102100003327042E01C0220F0A94EAF7822B4F5F77
:102110005F4F4530510559F70895E92FEE0FE90F4C
:10212000EE0F8E0F982F977041E001C0440F9A95E3
:10213000EAF786958695869595E0899FF0011124AA
:10214000EB55FD4F30E020E070E05191DF01119739
:10215000CB01022E02C0969587950A94E2F7817012
:1021600081958527842385278C932F5F3F4F2530CA
:10217000310559F70895FC01808191810E94491031
:1021800092959F70963091F058F4925F9F709230C4
:1021900058F4803F19F030F4883E30F481E008951F
:1021A0009A5FF4CF843FD1F380E00895883EB0F386
:1021B000813FD1F7F3CF9091100380910F03892BCA
:1021C0000E941B0E982F927281E009F480E008951E
:1021D0008093910470939304609392048091A1047E
:1021E000843001F583E08093E9008FEF9091E8005F
:1021F000815095FD06C095ED9A95F1F7000081118B
:10220000F5CF8091E80085FF0DC050E040E063E02D
:1022100070E081E994E00E94140B8091E8008E77D1
:102220008093E8000895BC0184E00C94E810BC01A0
:1022300083E00C94E8109C0182E08093E9009FEF1A
:102240008091E800915085FD06C085ED8A95F1F7F3
:1022500000009111F5CF8091E80085FF0CC050E09F
:1022600040E065E070E0C9010E94140B8091E80035
:102270008E778093E8000895CF93DF93EC0181E09F
:102280008093E9008FEF9091E800815095FD06C0A2
:1022900095ED9A95F1F700008111F5CF8091E80056
:1022A00085FF14C050E040E068E070E0CE010E947D
:1022B000140B8091E8008E778093E80088E0FE019F
:1022C000A7E9B4E001900D928A95E1F7DF91CF91F3
:1022D000089581E08093E00080E28093D80010921E
:1022E000C9008FE19EE40197F1F700C0000087E08C
:1022F00090EBDC018093B8049093B904A093BA04E6
:10230000B093BB0488E19CE00FB6F894A895809345
:1023100060000FBE90936000FFCF539A3BB1377FB0
:102320002BB128604FB7F89488ED93E0FC015191F0
:10233000CF0168E02BB9000000C057FF3BB9550F33
:10234000000000C000C000C03BB900C06A9591F712
:10235000F4E086389F0751F74FBF8FE594E001976F
:10236000F1F700C0000008959F92AF92BF92CF9204
:10237000DF92EF92FF920F931F93CF93DF937C0135
:102380005B016A0180915D0301E010E08A3010F486
:102390000AE010E0C1E0D0E0F894B501C701F60111
:1023A0000995982E0E94020E911004C021960C17D8
:1023B0001D076CF4892DDF91CF911F910F91FF9034
:1023C000EF90DF90CF90BF90AF909F900895CC9FFB
:1023D0009001CD9F300D300D112490E080E045E359
:1023E0004A95F1F70000019682179307C1F7D4CF01
:1023F00080912303811110C08091D8008061809367
:10240000D8008AE18A95F1F700C08091D90080FF59
:102410000AC081E08093230381E0909123039130EF
:1024200009F080E0089582E0809323030E94C40AAB
:102430001092A104F1CF0E94F811882351F0E0918D
:102440008804F0918904309721F00190F081E02D0B
:10245000099480E008950E94F81191E08927089579
:10246000FF920F931F93CF93DF93EC01F62E042F6F
:10247000122F0E942B1281110FC0CD31D1057CF09B
:102480006D97FE01EE0FFF1FEC0FFD1FE852FC4F92
:10249000F1820083128303C0CD31D10594F3DF9123
:1024A000CF911F910F91FF900895DF92EF92FF92CD
:1024B0000F931F93CF93DF93082F809159018013BF
:1024C00024C09091AF0493702091580130E081E0D6
:1024D0009217130609F480E0817080935C0180916B
:1024E000B40490915B01981739F080935B0140E050
:1024F00060E080E00E94520D013099F0002339F035
:10250000023009F468C080E03BC081E0E5CF8091F3
:102510005C018823A9F140E060E080E00E94520D58
:10252000F2CFC0915A018CE0C89FC02D11241CE04D
:102530001C0F1B3308F01AE30E942B12882319F09A
:102540001E3108F01DE10E942B12811103C0CD3114
:1025500008F4CDE16091B0047091B1048091B204AF
:102560000E946C0DF62EE72ED82ED0E0C11718F180
:102570000E942B12882309F47DC081E01D3118F6DA
:1025800090915A019F5F90935A0181110CC082E093
:1025900080935E0180915C01811105C0011103C02F
:1025A00083E080935E01DF91CF911F910F91FF90A7
:1025B000EF90DF900895FE01EF5AFD4F80819091DA
:1025C0005B01892331F02D2D4F2D6E2DCE010E9400
:1025D00030122196CBCFC0915A018CE0C89FC02DFC
:1025E00011241CE01C0F1B3308F01AE30E942B126D
:1025F000882319F01E3108F01DE10E942B12811171
:1026000003C0CD3108F4CDE12091B3042695269581
:1026100031E0230F08F42FEF4091D3035091D403FE
:1026200090E080E0429F812D529F800D911D1124EA
:10263000F82ED0E0C11708F09BCFFE01EF5AFD4FF6
:10264000808190915B01892399F07091B104FE0122
:10265000EE0FFF1FEF55FE4F64AD6F198091B2046E
:102660000E946C0D462F282F672FCE010E9430123A
:102670002196E0CF81E01A3308F482CF44CFCF9384
:10268000DF93EC010E942B12811105C0CE01DF9176
:10269000CF910C94D014D093A203C093A103DF91E7
:1026A000CF9108958091B50486FF04C084E690E040
:1026B0000C943F1387FF09C08295837024E6829FA4
:1026C000C001112488539F4FF3CF8F7028EC829F55
:1026D000C001112480579E4FEBCF0F931F930E9490
:1026E000F811882321F01F910F910C947D0C0E940A
:1026F0007D0C00915E0310915F0320916003309187
:102700006103600F711F821F931F1F910F91089526
:102710004F925F926F927F928F929F92AF92BF92F1
:10272000CF92DF92EF92FF928090CF039090D003F0
:10273000A090D103B090D2030E94F811882309F42D
:102740004AC0C501B4010E94520C6B017C010E9479
:102750006D134B015C018092CF039092D003A09245
:10276000D103B092D203A091A603E6EAF3E08A2F48
:1027700090E04FEF5FEF60E070E04C195D096E098B
:102780007F09A91331C08093A6038091D7038111DB
:102790003EC09091AF04892F837019F0892F8695E0
:1027A000869590915E01913009F441C0992389F199
:1027B000923009F44AC0933009F455C0FF90EF906D
:1027C000DF90CF90BF90AF909F908F907F906F9051
:1027D0005F904F9008950E946D136B017C01C818A3
:1027E000D908EA08FB08B3CF218D328D2901712C5D
:1027F000612C441555056605770520F481509F5FCF
:102800003296BFCF2C0D3D1D328F218FF8CF80E047
:10281000C8CF10925A018092D3039092D403A09211
:10282000D503B092D60381E080935E01C7CFFF90BD
:10283000EF90DF90CF90BF90AF909F908F907F9060
:102840006F905F904F900C945512FF90EF90DF9037
:10285000CF90BF90AF909F908F907F906F905F9040
:102860004F900C94450D8091AE04882351F046E0C2
:1028700050E06CE170E08FEA94E00E940531109224
:10288000AE04C090D303D090D403E090D503F09071
:10289000D6030E94F811882369F0C701B6010E948F
:1028A000520C603171058105910508F487CF1092B3
:1028B0005E0184CF0E946D136C197D098E099F09FA
:1028C000F0CFEFEAF4E089E080838091600190919D
:1028D0006101A091620181839283A38380E284835A
:1028E0008FEF858346E050E06CE170E0CF010E94FD
:1028F00005311092AE04089528E030E043E060E036
:1029000080E30E94312E95E09A95F1F7000008953A
:10291000CF93C82F0E947C148C2F0E94A92E8FE782
:1029200092E00197F1F700C000000E94C12EC82F6D
:1029300095E09A95F1F700000E94D92E85E68A95D8
:10294000F1F700008C2FCF9108958FE00E9488143A
:102950008F5F24E6829FC00111240895CF93DF93F7
:10296000C82FD62F0E947C14C03511F01092A503F9
:102970008C2F80680E94A92E8D2F0E94A92EEC0119
:102980008AEB8A95F1F700C00E94D92E83E492E089
:102990000197F1F700C00000CE01DF91CF910895BB
:1029A00064E670E00E94C7306150710968377105B4
:1029B00010F067E770E08FE00C94AE14CF93DF93D4
:1029C000209A0E94292E1092A5030E94D92E0E94BF
:1029D0007C140E94D92E66EB8BE30E94AE142FEF7D
:1029E00085EA9EE0215080409040E1F700C0000061
:1029F0000E947C14E5EDEA95F1F700000E94D92EC3
:102A0000F5EDFA95F1F700006AE58AE30E94AE144D
:102A10002FEF80E792E0215080409040E1F700C026
:102A2000000082E00E94881483E00E94881484E001
:102A30000E94881485E00E94881486E00E94881411
:102A40006DE183E10E94AE14EFE3FCE93197F1F709
:102A500000C0000068E183E10E94AE140E947C1473
:102A600082EE0E94A92EF0E5FA95F1F7CDECD2E0C6
:102A7000FE0184910E94A92EF0E5FA95F1F72196C6
:102A800022E1CB3CD207A1F78FE193E00197F1F768
:102A900000C000008AE20E94881460E080E10E9489
:102AA000AE140E94D92EEFE3FCE93197F1F700C094
:102AB000000080E496E00E94D0148FE99FE0019727
:102AC000F1F700C0000060E080E10E94AE1467EE04
:102AD00081E10E94AE1462E083E60E94AE1480E0C1
:102AE0000E9488148FE30E9488148AE20E9488144E
:102AF0002898DF91CF910895CF93DF93CDB7DEB7BC
:102B00002A970FB6F894DEBF0FBECDBF85E0E8E987
:102B1000F3E0DE01169601900D928A95E1F785E0CB
:102B2000EAE8F3E0DE01119601900D928A95E1F753
:102B300045E050E0BE016F5F7F4FCE0106960E94D8
:102B40003931892B61F0E0918804F0918904309744
:102B500031F00480F581E02D88E993E00995109229
:102B6000990310929A0310929B0310929C0385E0A4
:102B7000E8E9F3E0AAE8B3E001900D928A95E1F765
:102B80002A960FB6F894DEBF0FBECDBFDF91CF916E
:102B90000895EF92FF920F931F93CF93DF93CDB7DA
:102BA000DEB769970FB6F894DEBF0FBECDBF0E94A7
:102BB000F811882309F414C160919D0370919E035C
:102BC00080919F039091A0030E94520C672B682B69
:102BD000692B09F405C10E947D0C60939D037093DD
:102BE0009E0380939F039093A0030E942B12811158
:102BF000EDC0409198035091990360919A037091B0
:102C00009B0380919C030E949F28209398033093FC
:102C1000990340939A0350939B0360939C0385E030
:102C2000E8E9F3E0DE01169601900D928A95E1F74E
:102C300085E0FE013696DE01509601900D928A9550
:102C4000E1F785E0FE017096DE01119601900D928C
:102C50008A95E1F785E0FE013196A8E9B3E001909D
:102C60000D928A95E1F785E0E8E9F3E0DE015596FB
:102C700001900D928A95E1F70091990310919A03C2
:102C8000E0909B03F0909C030E94F811882309F4C4
:102C900070C08091B50486FF44C0209191033091AB
:102CA0009203200F311D07FD3A9530939203209334
:102CB000910380918F0390919003810F911D17FDD7
:102CC0009A959093900380938F03A90137FF04C0D6
:102CD00044275527421B530B473051055CF0FF2416
:102CE000FA941216130614F4FF24F394109292032C
:102CF000109291039C0197FF04C022273327281BC1
:102D0000390B273031055CF0EE24EA9418161906C9
:102D100014F4EE24E3941092900310928F0310E0C9
:102D200000E00E8B1F8BE88EF98E85E0FE01759614
:102D3000DE011B9601900D928A95E1F785E0FE0178
:102D40003B96DE01119601900D928A95E1F785E0A0
:102D5000FE013196DE01169601900D928A95E1F7FB
:102D600085E0FE013696DE01559601900D928A951A
:102D7000E1F70E8B1F8BE88EF98E85E0FE017596CC
:102D8000DE01169601900D928A95E1F785E0FE012D
:102D90003696DE011B9601900D928A95E1F785E04B
:102DA000FE013B96A8E9B3E001900D928A95E1F708
:102DB00069960FB6F894DEBF0FBECDBFDF91CF91FD
:102DC0001F910F91FF90EF900C947C1585E0E3E943
:102DD000F3E0A8E9B3E001900D928A95E1F71FCFE7
:102DE00069960FB6F894DEBF0FBECDBFDF91CF91CD
:102DF0001F910F91FF90EF90089580910F03909194
:102E00000E03892B80939C0290911003992391F0DB
:102E1000892B80939C0220E08EE992E0FC013191A5
:102E2000CF0131112F5FF2E0843A9F07B9F72111EA
:102E30000E94DB0F48E050E066E073E08CE992E02E
:102E40000E943931892BA9F088E0ECE9F2E0A6E094
:102E5000B3E001900D928A95E1F7E0918804F0913A
:102E60008904309731F00280F381E02D8CE992E003
:102E70000994089590E080E00E94B90C90E080E011
:102E80000E94A30C10920E030C94FD1660936E0327
:102E900070936F0380937003909371030C943A17AF
:102EA0000F931F9341E050E060E070E004C0440FD6
:102EB000551F661F771F8A95D2F7CB01BA0160951F
:102EC00070958095909500916E0310916F032091FD
:102ED00070033091710360237123822393231F9128
:102EE0000F910C9446179091050380958923809348
:102EF0000503282F277091F4282F082E000C330B80
:102F00009217130659F09091730392FD07C08595AF
:102F1000859585950E9450171092050308950F938B
:102F20001F9341E050E060E070E004C0440F551F83
:102F3000661F771F8A95D2F780916E0390916F0379
:102F4000A0917003B09171038A019B01082B192B8A
:102F50002A2B3B2BC901B8011F910F910C944617E6
:102F600060931103709312038093130390931403DF
:102F70000C943A17882321F00E94E10F0C94FD165F
:102F80000895882339F090910F03982B90930F03A5
:102F90000C94FD160895882381F19CEF980F913AC7
:102FA00078F4EEE9F2E024EA32E09191891303C06B
:102FB000DF0111971C922E173F07B9F70C94FD16ED
:102FC00090E2980F983050F4877091E001C0990F0B
:102FD0008A95EAF7892F0E94E10FF0CF9BE5980FC1
:102FE000933020F490E080E00C94B90C885A87313B
:102FF00020F490E080E00C94A30C0895CF93C82FA8
:10300000882309F44EC08CEF8C0F813AF8F4EEE976
:10301000F2E084EA92E0DF012D91C21759F08A179D
:103020009B07D1F76C2F8CE992E00E94890CCF911D
:103030000C94FD162191C21303C0DF0111971C925D
:103040008E179F07B9F70E94FD16ECCF80E28C0F18
:10305000883068F4C77021E030E001C0220FCA95C3
:10306000EAF780910F03822B80930F03E0CFEBE50B
:10307000EC0FE33040F4F0E0E259FE4F808190E045
:10308000CF910C94B90CC85AC73158F4EC2FF0E02A
:10309000EE0FFF1FEF58FE4F80819181CF910C946E
:1030A000A30CCF910895CF9384E090E00E94F1307B
:1030B000C82F82E290E00E94F130982F8C2FCF91A0
:1030C000089510920F03EEE9F2E086E0DF011D9211
:1030D0008A95E9F70C943A171F93CF93DF93CDB7F6
:1030E000DEB7AA970FB6F894DEBF0FBECDBF83EA56
:1030F00094E02091F100DC012D93CD01B4E08B3AF6
:103100009B07B9F78091A404833009F472C0B8F426
:10311000813009F449C0823009F4B3C08091E800DD
:1031200083FF86C28091A3049091A4049A3008F092
:103130007FC2E92FF0E0EF5AFE4C0C94DB308A306E
:1031400009F48EC08B3009F471C0893039F7809151
:10315000A304813219F78091A7049091A8040097E5
:1031600011F00297D9F68091E800877F8093E800FC
:103170008091E80082FF38C09091F3008091F200C6
:10318000029731F48091F100813011F0863021F402
:103190008091F100809396048091E8008B77809372
:1031A000E8000E943E0BBACF8091A304813A09F057
:1031B000B5CF8091E800877F8093E8008091A704D5
:1031C0009091A804892B61F468E087E994E070E0AD
:1031D0000E94F00B8091E8008B778093E8009ECFEF
:1031E00060E090E080E0F3CF8091A1048111C0CF36
:1031F00095CF8091A304813A09F090CF8091A704E4
:103200009091A804892B09F089CF8091E800877FED
:103210008093E8008091E80080FFFCCF80915D0101
:103220008093F1008091E8008E77B9CF8091A3045C
:10323000813209F073CF8091A7049091A804892B63
:1032400009F06CCF8091E800877F8093E8000E94AE
:103250003E0B8091A50480935D010E9461185ECFB2
:103260008091A304813209F059CF8091E800877FD3
:103270008093E8000E943E0B8091A6048093950401
:103280004DCF8091A304813A09F048CF8091E800A6
:10329000877F8093E8008091E80080FFFCCF8091D9
:1032A0009504BECF803899F0823809F0C1C1809171
:1032B000A7048F70873008F0BBC18093E90080912C
:1032C000EB0085FB882780F91092E90006C0809109
:1032D0009F049091A004911182609091E800977FE3
:1032E0009093E8008093F1001092F1008091E80043
:1032F0008E779AC1882309F488C1823009F098C179
:103300008091A50481118BC18091A7048F702FEF4C
:10331000280F263008F08CC18093E9002091EB0043
:1033200020FF7DC1933031F48091EB008062809367
:10333000EB0075C19091EB0090619093EB0021E060
:1033400030E001C0220F8A95EAF72093EA0010923C
:10335000EA008091EB008860EACF811169C1109189
:10336000A5041F778091E3008078812B8093E30090
:103370008091E800877F8093E8000E943E0B809157
:10338000E80080FFFCCF8091E30080688093E30039
:1033900082E0111183E08093A1044AC180588230F9
:1033A00008F046C12091A5043091A6042C3DE3E02D
:1033B0003E07A1F583E08A838AE289834FB7F894B8
:1033C000DE01139620E03EE051E2E32FF0E050935F
:1033D0005700E49120FF03C0E295EF703F5FEF706C
:1033E0008E2F90E0EA30C0F0C7968D939D932F5FAB
:1033F000243159F74FBF8091E800877F8093E80020
:103400006AE270E0CE0101960E94F00B8091E80024
:103410008B778093E8000CC1C096E7CF8091A7041A
:103420009091A804432F55274330510509F44AC011
:1034300078F54130510509F47AC084E590E0EBEC71
:10344000F3E14230510509F0F3C02091E800277FF5
:103450002093E8002091A9043091AA0482179307D1
:1034600008F49C0140E02115310509F065C04111C7
:1034700063C08091E80082FDC9CF8091A1048823B8
:1034800029F2853019F28091E80083FFF2CFBECF98
:103490004132510509F43CC04232510509F0C8C01F
:1034A0008330910508F0C4C0FC01EE0FFF1FE25706
:1034B000FD4F0190F081E02D85579D4FDC018C91EF
:1034C00090E01AC0332721303105D1F021153105A4
:1034D00061F02230310509F0ABC0E1E3F4E1E491A1
:1034E0008E2F90E0E1E3F4E107C0E9E8F4E1E49134
:1034F0008E2F90E0E9E8F4E1009709F499C0A5CF98
:10350000E3E6F4E1E4918E2F90E0E3E6F4E1F4CF1A
:103510008330910508F08CC0880F991FFC01EC5690
:10352000FD4F0190F081E02D89E090E08ECF82E1A7
:1035300090E0EFE1F4E189CF8091A104882309F4C0
:1035400065CF853009F462CF8091E80083FD5ECFBE
:103550008091E80082FD8DCF8091E80080FF83CFCD
:103560009091F3008091F2002115310519F0883017
:10357000910550F041E0089709F040E08091E800A3
:103580008E778093E8006FCF44914093F10031969D
:10359000215031090196E8CF803809F049C0809167
:1035A000E800877F8093E8008091A2048093F10077
:1035B0009DCE81113DC01091A5041230C8F58091B7
:1035C000E800877F8093E8001093A2040E943E0BDE
:1035D000112311F084E005C08091E30087FDFACF4C
:1035E00081E08093A10442E061EC81E00E945D0BE8
:1035F00042E061EC82E00E945D0B42E261EC83E01C
:103600000E945D0B8091A10413C08091A5048130BC
:1036100079F481E0933009F080E08093A004109267
:10362000E9008091E800877F8093E8000E943E0BCC
:103630008091E80083FF0AC08091E800877F809333
:10364000E8008091EB0080628093EB00AA960FB6B1
:10365000F894DEBF0FBECDBFDF91CF911F910895CB
:10366000DF92EF92FF920F931F93CF93DF93790135
:10367000C82F880FDD0B41155105A9F0FE0193E01D
:10368000EE0FFF1F9A95E1F7E050FF4F8181928185
:103690008C5D9C4F208130E04217530708F49A015B
:1036A000A9010E944631CE010E945130D82E8823B4
:1036B000D1F001151105B9F083E0CC0FDD1F8A951B
:1036C000E1F7FE01E050FF4F438150E0041715077A
:1036D00008F4A801C050DF4F6C817D816C5D7C4F88
:1036E000C7010E9446318D2DDF91CF911F910F911F
:1036F000FF90EF90DF9008959F92AF92BF92CF928C
:10370000DF92EF92FF920F931F93CF93DF930F926D
:10371000CDB7DEB7962E5A016901780101E010E0BD
:103720009E012F5F3F4F50E040E070E060E00E945C
:10373000301B182F8823D9F1F501608171818281B6
:1037400093810E94520C643671058105910530F415
:10375000C7010E949A0A9981891749F105E010E092
:10376000960150E040E070E060E0892D0E94301B3F
:10377000D82EC7010E949A0A11E09981981310E08F
:103780001D2139F00E947D0CF501608371838283D5
:103790009383812F0F90DF91CF911F910F91FF9015
:1037A000EF90DF90CF90BF90AF909F90089585E00D
:1037B000F701D60101900D928A95E1F7EACFEF92D9
:1037C000FF920F931F93CF93DF9300D000D00F92FF
:1037D000CDB7DEB77B0105E213E09E012F5F3F4FBF
:1037E00047E453E061E080E00E947C1B882349F0BD
:1037F00095E0FE013196A2E4B3E001900D929A9516
:10380000E1F795E0E2E4F3E0D70101900D929A959B
:10381000E1F70F900F900F900F900F90DF91CF91E5
:103820001F910F91FF90EF900895EF92FF920F93E9
:103830001F93CF93DF93CDB7DEB72A970FB6F894D7
:10384000DEBF0FBECDBF0E942B1211E0882309F40A
:103850004AC00BE313E09E012A5F3F4F49E553E066
:1038600066E085E00E947C1B182F882391F085E09C
:10387000FE013696DE01119601900D928A95E1F7D0
:1038800085E0FE013196A3E9B3E001900D928A959F
:10389000E1F7E090A103F090A203FA82E982E1143B
:1038A000F10409F142E050E0BE016F5F7F4F87E510
:1038B00093E00E943931892BB1F0F0924103E092FC
:1038C000400310E000E030E020E042E050E060E43F
:1038D00073E087E00E94301B182F882321F0F092BC
:1038E0005803E0925703812F2A960FB6F894DEBF53
:1038F0000FBECDBFDF91CF911F910F91FF90EF9041
:1039000008950F931F93CF93DF9300D000D0CDB7CE
:10391000DEB760914F0370915003809151039091F5
:1039200052030E94520C11E0643671058105910525
:1039300018F10E946D136E5F7F4F8F4F9F4F698309
:103940007A838B839C8310E000E030E020E044E049
:1039500050E0BE016F5F7F4F83E00E94301B182F45
:10396000882351F00E947D0C60934F0370935003A5
:103970008093510390935203812F0F900F900F90DB
:103980000F90DF91CF911F910F910895AF92BF9249
:10399000CF92DF92EF92FF920F931F93CF93DF931B
:1039A000C82F7B01D42F69015801FB01608171810F
:1039B000828193810E94520C6436710581059105C4
:1039C00010F4DD23F9F010E000E030E020E0A50184
:1039D000B6018C2F0E94301BC82F882339F00E941B
:1039E0007D0CF70160837183828393838C2FDF9139
:1039F000CF911F910F91FF90EF90DF90CF90BF90EC
:103A0000AF900895C1E0F2CF0F931F93CF93DF9350
:103A100000D000D000D00F92CDB7DEB786E0EFEA3D
:103A2000F4E0DE01119601900D928A95E1F7809104
:103A3000D7038F8347E050E063E373E0CE01019644
:103A40000E94393141E0892B09F440E007E010E0A1
:103A50009E012F5F3F4F63E573E084E00E94C61C28
:103A600027960FB6F894DEBF0FBECDBFDF91CF9182
:103A70001F910F9108950F931F93CF93DF93EC0144
:103A800045E050E06AE273E00E94393141E0892B61
:103A900009F440E005E010E09E016BE473E082E091
:103AA0000E94C61CDF91CF911F910F9108959091B4
:103AB000B5049F70811114C08FEF980F9F70809193
:103AC000B504807F982B9093B5040E9452134091C7
:103AD000B50450E070E060E08FE090E00C94273196
:103AE00081E0EBCF9091B50492959370811116C04F
:103AF0008FEF980F93709295907F8091B5048F7C93
:103B0000982B9093B5040E9452134091B50450E055
:103B100070E060E08FE090E00C94273181E0E9CF25
:103B200069EE7EEF90E080E00E94333160E082E059
:103B300090E00E94153160E083E090E00E94153132
:103B40001092110310921203109213031092140397
:103B500060E084E090E00E94153160E082E290E055
:103B60000E94153160E085E090E00E94153160E030
:103B700086E090E00E9415316FEF87E090E00E94B0
:103B8000153140E050E0BA0188E090E00E94273112
:103B900060E08DE090E00E94153140E050E0BA0115
:103BA00088E190E00E94273160E087E190E00E9488
:103BB000153140E050E0BA018CE190E00E942731DD
:103BC00070E060E080E290E00E94333140E050E03D
:103BD000BA0188E190E00E9427311092B50440E0DC
:103BE00050E0BA018FE090E00E9427310E9452130A
:103BF00040E050E0BA0183E190E00C942731CF938C
:103C0000C0917303C2FB992790F9981799F080FB34
:103C1000C2F9C09373036091720384E090E00E9444
:103C200015316C2F82E290E00E94153182E0CF9135
:103C30000C947317CF9108951F920F920FB60F92A5
:103C400011242F933F934F935F936F937F938F93A1
:103C50009F93AF93BF93CF93DF93EF93FF93D09155
:103C6000E900DF708091EC00C82FC17080FDC0E8D2
:103C70001092E9008091F000877F8093F0007894A3
:103C80000E946C181092E9008091F0008860809387
:103C9000F000CD2BCF70C093E900FF91EF91DF9141
:103CA000CF91BF91AF919F918F917F916F915F91D4
:103CB0004F913F912F910F900FBE0F901F9018952D
:103CC0001F920F920FB60F9211242F933F934F9391
:103CD0005F936F937F938F939F93AF93BF93EF9374
:103CE000FF938091E10082FF09C08091E20082FF92
:103CF00005C08091E1008B7F8093E1008091DA0024
:103D000080FF24C08091D80080FF20C08091DA001D
:103D10008E7F8093DA008091D90080FF9DC080E182
:103D200089BD82E189BD09B400FEFDCF81E08093A9
:103D3000A10480919404811109C00E94C40A0E94C8
:103D40008F0B8091E20084608093E2008091E1001B
:103D500080FF17C08091E20080FF13C08091E200D5
:103D60008E7F8093E2008091E20080618093E20088
:103D70008091D80080628093D80019BC85E0809340
:103D8000A1048091E10084FF2BC08091E20084FFB8
:103D900027C080E189BD82E189BD89B5982F9170E6
:103DA00080FFFBCF8091D8008F7D8093D8008091D9
:103DB000E1008F7E8093E1008091E2008F7E80930E
:103DC000E2008091E20081608093E2008091A20491
:103DD000882309F447C084E08093A1048091A10462
:103DE0008091E10083FF27C08091E20083FF23C020
:103DF0008091E100877F8093E10082E08093A104BD
:103E00001092A2048091E1008E7F8093E100809166
:103E1000E2008E7F8093E2008091E20080618093D7
:103E2000E20042E060E080E00E945D0B8091F000E3
:103E300088608093F000FF91EF91BF91AF919F91C7
:103E40008F917F916F915F914F913F912F910F9043
:103E50000FBE0F901F90189519BC1092A1041092DC
:103E6000940474CF8091E30087FD93E09093A104C4
:103E7000B5CF78941F921FB61F9211248F939F93F2
:103E8000AF93BF9380918D0490918E04A0918F0485
:103E9000B09190040196A11DB11D80938D04909363
:103EA0008E04A0938F04B0939004BF91AF919F9123
:103EB0008F911F901FBE1F9018952FB7F894809177
:103EC0008D0490918E04A0918F04B09190042FBF27
:103ED00008950F931F93CF93DF93C62FD42F022FF4
:103EE000FC0182818823A1F06093AD040E945D1FD4
:103EF0009093AC048093AB04C77081E001C0880F3D
:103F0000CA95EAF7DF91CF911F910F910C94C117D9
:103F10008091AD04681338C08091AB049091AC04DB
:103F20000E946E0C883C910578F510E21D0FCD17AC
:103F3000B9F080E28C0F883040F4C77081E001C096
:103F4000880FCA95EAF70E94BA17183048F481E042
:103F50009D2F977001C0880F9A95EAF70E94C117AC
:103F6000802F0E94FE17802F0E94CB17183098F4E4
:103F7000D77081E001C0880FDA95EAF7DF91CF9121
:103F80001F910F910C94BA17C77081E001C0880F80
:103F9000CA95EAF7F3CFDF91CF911F910F91089562
:103FA0004F925F926F927F928F929F92AF92BF9249
:103FB000CF92DF92EF92FF920F931F93CF93DF93F5
:103FC000CDB7DEB72F970FB6F894DEBF0FBECDBFCB
:103FD0007C01DC0113968D919C911497892B41F003
:103FE0001C911196DC90812F8D218F3F09F03BC5EC
:103FF0002F960FB6F894DEBF0FBECDBFDF91CF91E5
:104000001F910F91FF90EF90DF90CF90BF90AF90F6
:104010009F908F907F906F905F904F9008950E9437
:10402000F20F082F682F89819A810E948D10E12F4D
:10403000F0E0B6E0DB9EE00DF11D11242CE3029FC1
:10404000E00DF11D1124EE0FFF1FEB59FE4F0591FE
:104050001491F801E75AFD45E830F10578F4E55A86
:10406000FE4CD70112968C910C94DB30882331F0F2
:104070000E94DB1091E089270E94571DC801815FD3
:104080009109089708F0C3C085E0E8E9F3E0DE0194
:10409000169601900D928A95E1F785E0FE0136961D
:1040A000DE011B9601900D928A95E1F72E813FE08B
:1040B000300F81E090E001C0880F3A95EAF7F701F0
:1040C0003281332309F4A0C0822B8B8785E0FE0167
:1040D0003B96DE01119601900D928A95E1F785E0FD
:1040E000FE013196A8E9B3E001900D928A95E1F7BF
:1040F0000E947C15D70112968C91882309F4C6C4BE
:104100001092AD040430BDE51B0708F0E4C00B3F7E
:10411000ECE51E0730F4C80182509C45449708F036
:10412000E4C00E945318909373038093720301318B
:104130003CE5130709F4B0C108F02DC109309CE536
:10414000190709F49BC108F0F7C00530BCE51B074F
:1041500009F488C108F0E0C00330FCE51F0709F44A
:1041600077C108F07BC180917203816002301C45E9
:1041700009F471C1609172031091730384E090E0BF
:104180000E941531612F82E290E00E9415310E9459
:10419000611867C0882309F471CF0E94DB106CCFCF
:1041A000882309F46BCF0E94DB1091E089270E94DD
:1041B000721D64CF882309F461CF0E94DB10F7CF12
:1041C0009091B50480FB97F99093B5040E94521327
:1041D00055CF882309F452CF9091B504892F97FBCE
:1041E00087F980588093B504F1CF9091B50480FB96
:1041F00096F9EACF882309F441CF9091B504892F2D
:104200008F7B96FF8064EECF809582235ECF043F44
:10421000FCE51F0709F450C098F4093D3CE513077D
:1042200009F446C00A3D8CE5180709F451C0083D61
:104230009CE5190709F05ECF26E241EE61EE0EC063
:10424000063FACE51A0709F43FC0D0F127E245EE7E
:1042500066EE073FECE51E0709F04CCFC7010E9450
:10426000691F80910503877009F4C2CEF70182812E
:10427000882309F4BDCE8091730382FDB9CE82E01C
:104280002F960FB6F894DEBF0FBECDBFDF91CF9152
:104290001F910F91FF90EF90DF90CF90BF90AF9064
:1042A0009F908F907F906F905F904F900C947317BA
:1042B00027E245EE65EED2CF26E241EE60EECECFAC
:1042C00027E245EE64EECACF26E241EE62EEC6CFAB
:1042D00028E241E0EFCF0236FDE51F0709F421CFC8
:1042E000063A2DE5120709F41CCF06318CE51807B4
:1042F00009F0E4C380910F038A7A91E009F490E019
:104300009093A40269E2811165E38CE992E00E9436
:10431000890C0E94FD16A5CF07308CE5180709F41B
:10432000A9C080917203806108301C4508F493C0D5
:104330008091720380648FC0809172038B7F0D30F7
:10434000ACE51A0709F487C098F4809172038E7F58
:104350000B30ECE51E0709F47EC0809172038C607F
:104360000C301C4508F477C0809172038D7F73C0B8
:10437000809172038F7E0F302CE5120709F46BC019
:1043800080917203877F00311C4508F464C08091DE
:1043900072038F7D60C00E3F8CE5180709F478C06A
:1043A00050F50531ACE51A0709F480C098F4809106
:1043B0007203837F0331ECE51E0709F44CC008F457
:1043C0006FC00E94611890917203892F97FB87F943
:1043D000805841C00C3F2CE5120709F447C008F093
:1043E00053C00B3F1C4509F0C5CE8091730381601B
:1043F00080937303BFCE02309DE5190709F462C0B4
:10440000B8F4809173038C7F0115BDE51B0781F320
:1044100080917303836001301D4550F380917303D5
:10442000982F909591708E7F892B90FB81F9E0CF2A
:104430000236FDE51F0709F44BC0063A2DE51207C9
:1044400009F44DC003301D4509F094CE60E03BC037
:10445000809172038260809372038CCE809172038C
:104460008460F9CF809172038860F5CF80917303E7
:104470008260BECF809172038062EDCF0E9461188E
:10448000809172038068E7CF809173038E7FB0CFF5
:10449000809173038D7FACCF809172038F7BDBCFD4
:1044A0000E946118809172038F77D5CF809172033B
:1044B00082FB992790F921E0922790FB82F990FBEB
:1044C00083F9C9CF61E08EE090E00E94153152CEB1
:1044D00090917203892F8F7E94FF8061BCCF909161
:1044E0007203892F8E7F90FF8160B5CF85E3D8C29C
:1044F00042E35DE06BE37DE00E94CF0CB2CE4BE384
:104500005DE062E37DE0F8CF40E25DE069E27DE0FE
:10451000F3CF49E25DE060E27DE0EECF48E05DE0B0
:1045200064E17DE0E9CF44E15DE068E07DE0E4CF77
:104530004CEF5CE060EF7CE0DFCF42EE5CE064EDEE
:104540007CE0DACF0E9461189FEFA4E3BCE09150B9
:10455000A040B040E1F700C000000E94691181E076
:10456000CDC280E0CBC2812F902F0E946410D82E44
:10457000DBC2E12FEF70CE2E107F19F0C29420EF36
:10458000C222DD20B9F0CC2069F080E2800F8830B3
:1045900010F0811009C080910F03C82AC0920F0348
:1045A0000E94FD16802F4BC080910E03C82AC09236
:1045B0000E03F6CF802F0E94CB17CC2009F441C008
:1045C000005E083010F0811004C08C2D0E94E10FB5
:1045D00006C0C09480910E03C822C0920E030E94B0
:1045E000FD162FC0F12FFF70CF2E107F103219F063
:1045F000C29490EFC922882089F021E0821609F444
:1046000088C0DD2009F492C0992009F488C0F70120
:10461000858180FFC7CF8F70858381C02091730310
:1046200022FF54C0DD2009F44AC0CC2039F080912B
:104630000F03C82AC0920F030E94FD1680E00E945B
:10464000FE17AA2DA850BB0B149710F40E941B1242
:10465000BB20A9F08091050380FD11C0F7011282F3
:104660008595859585950E948F17C7010E94D01F5B
:10467000809105038595859585950E94501785E065
:10468000F701DE01119601900D928A95E1F789817B
:104690009A810E9464109A81E981F0E026E0929F5D
:1046A000E00DF11D11243CE3839FE00DF11D112469
:1046B000EE0FFF1FEB59FE4F8591949199CC80E04E
:1046C0000E94CB17CC2009F4BCCF7FCFDD20A1F016
:1046D000909110038C2D892B911003C00E94C1175B
:1046E000B0CF31E09312FACF22FDABCF981709F487
:1046F000A8CF80931003A5CF911006C00E94DB0FB6
:104700008C2D0E94BA179DCF81E0981609F499CF9D
:10471000F5CFDD2031F095E0991508F492CF8C2D7E
:10472000DDCFA4E0A91508F48CCFEACF992041F39E
:10473000F9E38F1209C02FEF37EE83E021503040AC
:104740008040E1F700C00000802F0E94CB1779CF96
:10475000812F86958695837061F0813009F071CF45
:10476000C8019370D11002C090E080E00E94A30CB9
:1047700068CFC8019370D11002C090E080E00E9421
:10478000B90C5FCF812F837009F066C0D11059CF6B
:10479000802F829586958770880F880F602F6F70A5
:1047A000462E512C712C612C082E04C0440C551C33
:1047B000661C771C0A94D2F740E050E0BA0104FF6F
:1047C0000FC04FE050E060E070E004C0440F551FA0
:1047D000661F771F8A95D2F7409550956095709522
:1047E000812F869586958370823019F1D8F40091D7
:1047F000110310911203209113033091140381309F
:1048000069F04429552966297729CB01BA0160232B
:104810007123822393230E94B01713CF402A512A79
:10482000622A732ACB01BA0164297529862997293E
:10483000F2CF442955296629772900911103109157
:1048400012032091130330911403CB01BA016027A6
:10485000712782279327DFCF8695DD2011F0812FE6
:104860008170882309F4EDCE802F8295869587701C
:10487000880F880F602F6F70462E512C712C612C81
:10488000082E04C0440C551C661C771C0A94D2F7F1
:1048900040E050E0BA0104FF0FC04FE050E060E09C
:1048A00070E004C0440F551F661F771F8A95D2F72A
:1048B0004095509560957095812F8695869583706B
:1048C000823019F1D8F400916E0310916F0320919A
:1048D000700330917103813069F0442955296629AC
:1048E0007729CB01BA0160237123822393230E948D
:1048F0004617A7CE402A512A622A732ACB01BA0151
:104900006429752986299729F2CF442955296629D2
:10491000772900916E0310916F03209170033091FD
:104920007103CB01BA016027712782279327DFCF5C
:104930001F70DD2029F0812F0E948F17802FCECE8F
:10494000802F0E94BA17812F0E9450177ACE802F95
:1049500092EF891609F43FC0981570F0A0EF8A16FF
:10496000D1F0B1EF8B1691F0DD2009F46CC09110FD
:1049700019CE812F8F7133C0E3EF8E1699F1F4EFCA
:104980008F12F2CF8091730382FF3FC0812F8F710E
:10499000DD20D1F224C0DD20C9F024E0291508F47F
:1049A00050CE1F7161E070E080E090E004C0660FBF
:1049B000771F881F991F1A95D2F700916E031091E7
:1049C0006F032091700330917103ADCF35E039153D
:1049D00008F437CEE6CF812F8F71D110B5CF0E946A
:1049E0008F172FCE60E070E0CB01DD2009F47FCF80
:1049F0001F7161E070E080E090E004C0660F771FF7
:104A0000881F991F1A95D2F772CFDD2089F01F7188
:104A1000812F0E948F178091730382FD07C0A8E049
:104A20001A9FC0011124836080930503812FD7CF83
:104A300081E00E947317B1E0B91508F002CE82E060
:104A40000E947317FECD992059F0893309F07CCE6E
:104A5000EFEFF7EE23E0E150F0402040E1F772CEB7
:104A6000812F8F7171CF85E0F701DE0111960190E2
:104A70000D928A95E1F7D70112962C9189819A813E
:104A80002111CDCA0E946410082FD1CA0631BCE59D
:104A90001B0709F093C08091A402811127CD89E200
:104AA000EEE9F2E024EA32E09191891303C0DF01DC
:104AB00011971C922E173F07B9F72BCC0B35EDE55C
:104AC0001E0709F44CCD58F401152CE5120709F422
:104AD00039CD0F3D1C45A1F40E94901DC2CB0C3571
:104AE0008DE5180709F43DCD0D351D4549F480913C
:104AF000730382FB882780F991E089270E94FF1DBC
:104B0000D70112968C9112971C9111960C918823C3
:104B100009F429CD812F902F0E94F20FD82E682FF3
:104B2000812F902F0E948D10E12FF0E0B6E00B9FB7
:104B3000E00DF11D11242CE3D29EE00DF11D112496
:104B4000EE0FFF1FEB59FE4F859194910E945E0E70
:104B50008C01882ED7011296DC90129715969C90A6
:104B600092945FE09522809105038770C1F0BD2C7F
:104B7000DD20B1F0812F807F803421F080E2800F32
:104B8000883068F08091730382FD09C082E00E9442
:104B90007317809105038770BB24B3948111B12CE6
:104BA000A12EA2943FE0A322BBE0BA1508F449CDA0
:104BB000EA2DF0E0ED59FE4C0C94DB3080910F03B0
:104BC00082720B3CACE51A0709F4B2CCA0F5063CA6
:104BD000ECE51E0709F498CCC8F4043C2CE5120758
:104BE00009F486CC08F08BCC033C1C4509F088CF37
:104BF0008091AF0491E089278093AF0410925E0109
:104C00008091AE0481608093AE042BCB083C9CE580
:104C1000190709F483CC08F47CCC093CBCE51B07DC
:104C200009F481CC40EF5CE06CEF7CE00A3C1C4571
:104C300009F462CC65CF0F3CFCE51F0709F411CBEA
:104C400088F40D3C3CE5130709F477CC44ED5CE0B7
:104C500062EE7CE00E3C1C4508F44ECC81E00E94E4
:104C6000810AFFCA073DACE51A0728F482E0013D3E
:104C70001C45A8F3F6CA0E351D4509F4F2CA40CF0B
:104C80001F93CF93DF938091D202807FA9F480910C
:104C9000CF02882389F080910403D091D3026091E0
:104CA000CD027091CE02A091D002B091D102C62F58
:104CB000C72316E0D81304C0DF91CF911F91089548
:104CC00090E0109711F0CF3F19F401968770F2CF62
:104CD000189F9001199F300D1124F901EC52FD4FDE
:104CE00041814713F2CF40814613EFCF42814111FA
:104CF000ECCF438154814A1B5B0B483C510528F79C
:104D00008091D2028F7080618093D202F901E752C4
:104D1000FD4F80818F70806180838DEC92E00E94D6
:104D2000D01FDF91CF911F910C94E80FAF92BF92EB
:104D3000CF92DF92EF92FF920F931F93CF93DF9367
:104D4000CDB7DEB761970FB6F894DEBF0FBECDBF0B
:104D50008C0185E0F801DE011D9601900D928A9587
:104D6000E1F7F801E2808DECA82E82E0B82E609188
:104D7000D0027091D1026115710509F432C1909190
:104D8000CD024091CE02892F84238F3F09F429C19F
:104D900020813181C380D480F090CF02F601E61BE0
:104DA000F70BFF2009F4E8C08091D202582F507F02
:104DB000E83CF10508F0ABC0511177C0FE2C43135D
:104DC00021C092131FC0E1101DC08F7080618093BD
:104DD000D202C5010E94D01F8091D202F8018583C2
:104DE0008F2D61960FB6F894DEBF0FBECDBFDF9159
:104DF000CF911F910F91FF90EF90DF90CF90BF90D8
:104E0000AF900895CD2829F0822F83238F3F09F09A
:104E100003C180E0F82FF170DF2E80FF3CC080914D
:104E200004034091D30256E0841315C02D873E87BA
:104E30008D859E850E944910292F22952F70223042
:104E4000F0F0243018F59F70F1F0F8019581907F13
:104E5000D1F4D12C1EC090E0589FF001599FF00D65
:104E60001124EC52FD4F6181361306C06081261378
:104E700003C06281E6120FC001968770D5CF9F7084
:104E800011F0882331F3805E883018F3C8010E9446
:104E9000D01FFD2CA5CFEE2009F4A2CF8091D20225
:104EA00081608093D202F12C9BCF431306C09213F2
:104EB00004C0F801EE2009F479C0C8010E94BB10BB
:104EC000882309F1EE20F9F08091D202803270F04F
:104ED0002091CD023091CE0238872F831986DB8650
:104EE000CA868C87CE0107960E94D01F86E0F80103
:104EF000ADECB2E001900D928A95E1F70E94402658
:104F0000FF24F3946DCFC8010E94D01FF9CF511137
:104F10000AC08DEC92E00E94D01F86E0F50111924C
:104F20008A95E9F7C0CF43130FC092130DC0E1106B
:104F30000BC0F8018583C8010E94D01F86E0F501EF
:104F400011928A95E9F74CCFC8010E94BB108823C3
:104F5000D1F2EE20C1F28091D202803238F220915B
:104F6000CD023091CE023A8329831B82DD82CC822E
:104F70008E83CE010196B8CFE83CF105F8F6FE2C01
:104F8000EE2009F243131FC092131DC08091D2027C
:104F900080FD10C0982F907F69F0F8018583903FC5
:104FA00031F0982F907F905F8F70892B8583C80197
:104FB0000E94D01F86E0F801ADECB2E001900D92A6
:104FC0008A95E1F70DCFC8010E94BB1081118ECFE9
:104FD0008091D20281608093D202C8010E94D01FCA
:104FE000FFCEEE2009F48FCFC8010E94BB10F82E2F
:104FF000882309F488CF86E0F801ADECB2E0019097
:105000000D928A95E1F78091CD029091CE020E9497
:1050100049100E944026E4CE81E08E25FBCE1F93EE
:10502000CF93DF93CDB7DEB767970FB6F894DEBFA7
:105030000FBECDBF4B8B5C8B6D8B7E8B8F8B6111CD
:1050400010920E031A8A198A85E0FE017396DE011A
:105050001D9601900D928A95E1F786E0FE013D963E
:10506000DE01179601900D928A95E1F7CE01079621
:105070000E949626882389F016E08091040390917F
:10508000D302891349C067960FB6F894DEBF0FBEEE
:10509000CDBFDF91CF911F91089586E0FE01379635
:1050A000DE01119601900D928A95E1F78A859B8524
:1050B000892B11F38F81988589238F3FE9F2209105
:1050C000D30230E0C901019687709927409104030B
:1050D0004817190671F40E9461181092D3021092B9
:1050E000040386E0EDECF2E0DF011D928A95E9F71A
:1050F000C3CF96E0929FD001939FB00D1124AC5284
:10510000BD4FFE01319601900D929A95E1F7809383
:10511000D3020E94E80FB0CF819FC00111248C52AE
:105120009D4F0E949626882309F4ADCF80910403F9
:1051300090E0019687709927809304039ECF9F92F9
:10514000AF92BF92CF92DF92EF92FF920F931F9395
:10515000CF93DF93CDB7DEB72A970FB6F894DEBFB3
:105160000FBECDBF4E83052F5F83162F68877987CB
:105170008A878091A503811107C060E080E50E94C5
:10518000AE1481E08093A5030E947C1480E50E9408
:10519000A92E8AEB8A95F1F700C00E94C12EB82E85
:1051A0000E94C12E0E94C12E7C010E94C12E982E09
:1051B0000E94C12E6C010E94C12EA82E8B2D8770DB
:1051C00011F01092A5030E94D92EB3FC2DC0B7FE9A
:1051D0002BC08091A3039091A403892B31F40E94EA
:1051E0005D1F9093A4038093A303F92801E880E84E
:1051F000E816F1044CF4002711270E191F09003896
:10520000110514F00FE710E0DA2811E880E8C8165D
:10521000D10454F4882799278C199D098038910569
:1052200014F08FE790E0182F0F83188785E0FE01B8
:105230003696DE01119601900D928A95E1F729814B
:105240003A814B815C816D8170E080E090E02A962C
:105250000FB6F894DEBF0FBECDBFDF91CF911F9187
:105260000F91FF90EF90DF90CF90BF90AF909F9005
:105270000895BF92CF92DF92EF92FF920F931F9308
:10528000CF93DF93CDB7DEB761970FB6F894DEBF4B
:105290000FBECDBF8E010F5F1F4F8AE0D8011D9258
:1052A0008A95E9F790E4C92E91E0D92EBB24B394F6
:1052B000EE24E394F12CF60181916F018F3F09F404
:1052C00045C0F894E82FE295EF70F0E021A18F70CF
:1052D000A70102C0440F551F8A95E2F7CA01922F19
:1052E000982B91A392A18095892382A30E94020EFC
:1052F00000C066E471E0F8014B2D4095DB019D9103
:10530000BD0180819F3F09F473C0292F22952F7022
:1053100030E0D90190962C9130E09F7002C0359515
:1053200027959A95E2F720FD63C08B2980833196FB
:10533000B1E06B347B0711F7F601319780818F3F25
:1053400011F00E94040EE0EAEA95F1F7BB0CF6E4D6
:10535000CF16F1E0DF0609F0AECF4AE050E0B80129
:1053600082E693E00E9439317C01892B41F08AE08A
:10537000F801A2E6B3E001900D928A95E1F7109151
:105380006D03E114F104B1F181E0809317030E94F1
:105390005D1F9093160380931503809115039091E0
:1053A00016030E946E0C059778F0A2E6B3E0E12F99
:1053B000F0E0EC58FC4F87E693E02D9121938A179B
:1053C0009B07D9F71092170381E090E0EF28B1F026
:1053D00061960FB6F894DEBF0FBECDBFDF91CF91BF
:1053E0001F910F91FF90EF90DF90CF90BF900895A5
:1053F00084239CCF809117038111CFCF0E94F81195
:10540000F82EE0916D03882309F482C06E012BE031
:10541000C20ED11C85E0D6011D928A95E9F70E2FA8
:1054200010E00C581C4F80915D038A30E8F54FED79
:105430005BE1B601C8010E94B411882309F444C09D
:105440004BE35DE1B601C8010E94B4118823E1F18C
:1054500041E85CE1B601C8010E94B4118823A1F1C2
:1054600044E05DE1B601C8010E94B411882361F1F6
:1054700045E15CE1B601C8010E94B411882321F125
:1054800010925D0380916C0390E045E050E0B6011E
:105490008C589C4F0E94393121E020932203892BA4
:1054A00051F5F12C8F2D94CF809118039091190311
:1054B0000E946E0C843F914008F0B9CF8091220386
:1054C000811112C080E084CF80915D038F3F29F06D
:1054D0008F5F80935D038A30A8F20E945D1F9093D6
:1054E000190380931803EACF85E0F60111928A959B
:1054F000E9F710922203A0916C03B0E0AC58BC4FC6
:1055000085E0FE013B9601900D928A95E1F7CACFA6
:10551000F0E0EC58FC4F00916C0310E00C581C4F6D
:10552000F89485E0A5E2B3E001900D928A95E1F749
:1055300085E293E00E949A0A809324030E94020E5F
:10554000F89485E0EAE2F3E0D80101900D928A95A3
:10555000E1F70E94020EF894C0902F03D090300320
:10556000E0903103F090320380911A0390911B0375
:10557000A0911C03B0911D03C816D906EA06FB06CC
:10558000D1F0C0921A03D0921B03E0921C03F09258
:105590001D030E94F81181110EC00E947D0CC61AD5
:1055A000D70AE80AF90AC0925E03D0925F03E0923C
:1055B0006003F09261030E94020EF89486E0E3E338
:1055C000F3E0AFEAB4E001900D928A95E1F7109113
:1055D0003903112349F08091D703811105C00E943E
:1055E000551280E00E94450D1093D7030E94020ED1
:1055F000F8940E942B12811154C060911E03709187
:105600001F0380912003909121030E94520C672B6D
:10561000682B692B09F445C00E947D0C60931E0322
:1056200070931F0380932003909321030E94A5147D
:10563000998B888B0091400310914103011511054E
:1056400071F042E050E0BE01605F7F4F80E493E084
:105650000E943931892B19F0C8010E94D0148E01A3
:10566000055F1F4F85E0F82ED801EF2D1D92EA95BA
:10567000E9F74B855C856D857E858F850E949F2827
:105680002B873C874D875E876F87F801ABE3B3E0DC
:1056900001900D92FA94E1F7C8010E949A0A809352
:1056A0003A030E94020E0ECF1F921FB61F921124C2
:1056B0008F939F93AF93BF9380918C04811113C0FC
:1056C00080918D0490918E04A0918F04B0919004EC
:1056D0004196A11DB11D80938D0490938E04A093DB
:1056E0008F04B0939004BF91AF919F918F911F90C1
:1056F0001FBE1F901895CDB7DEB72B970FB6F89445
:10570000DEBF0FBECDBF84B7877F84BF0FB6F894CE
:10571000A89580916000886180936000109260007D
:105720000FBE80E890E00FB6F894809361009093EC
:1057300061000FBE85B7806885BF85B7806885BF6B
:1057400080E09EE090939B0280939A020E94C40A9C
:105750000E948F0B8091E20084608093E200789435
:105760008091A1048823A1F01091E9001F7090910D
:10577000EC00892F817090FD80E8182B1092E900D1
:105780008091E80083FD0E946C181F701093E9005F
:1057900082E084BD93E095BD9AEF97BD80936E0043
:1057A00010925E0310925F031092600310926103E7
:1057B0000E942B1280934B010E94F81181110E94CC
:1057C000642F80914B0181112CC085E0E3E6F1E06C
:1057D000DE01179601900D928A95E1F78F818093F3
:1057E00046018885809347018985809348018A8591
:1057F000809349018B8580934A0186E0E8E6F1E0D9
:10580000DE01119601900D928A95E1F7FE01319625
:10581000A0E4B1E0CE01079621912D93E817F90796
:10582000D9F780914B0195E0811190E090936D0341
:1058300085E0891B80936C0320E4E22E21E0F22EA8
:1058400036E4C32E31E0D32ED7018D917D018F3FF9
:1058500011F00E94040ECE14DF04B1F796E4E92E95
:1058600091E0F92EF70181917F018F3F11F00E94A5
:10587000040EFBE4EF16F1E0FF06A1F78AE0E4E78F
:10588000F3E0DF01282F1D922A95E9F7E2E6F3E025
:10589000DF011D928A95E9F78FE090E00E94F930D0
:1058A0006F736093B50490E080E00E94FF30893E02
:1058B0009E4F11F00E94901D82E090E00E94F13016
:1058C00080937E030E945318909373038093720316
:1058D0000E943929EFE3FCE93197F1F700C000009D
:1058E0000E9439298091740380FF08C06FEF7FEF19
:1058F00090E080E00E9433310E94691183E090E0E3
:105900000E94F130682F70E090E080E00E94B017B4
:105910001092A6038FEF9FEF9093C0038093BF0375
:105920009093C2038093C1039093C4038093C303F5
:105930009093C6038093C5039093C8038093C703D5
:105940009093CA038093C9039093CC038093CB03B5
:105950009093CE038093CD0390E080E00E94FF30CF
:10596000893E9E4F21F00E94901D0E94611446E0E6
:1059700050E06CE170E08FEA94E00E94E130109218
:10598000AE048091AF048C7F11F40E9461140E94D8
:105990002B12811104C00E94DE140E9452130E9437
:1059A000F811811102C00E94672F8CE491E090935E
:1059B00089048093880418E1E12EF12C80E4782E8C
:1059C00066246394B8E0CB2ED12C8091A104A0E191
:1059D000BA2E12E1853009F4E7C00E9439298111FD
:1059E0000E947D0CA4E7B3E0EFE7F3E0B12CA12C1B
:1059F0005A2C1D918191811709F4FCC08127912CAB
:105A000088248394982F982109F4EFC00E94F811FC
:105A10001821882399F099825A8281E0111101C0DE
:105A200080E08B830E945D1F8160782F9D838C8333
:105A300049815A816B818D810E940F28F501E158BF
:105A4000FC4F808188268082112381F086E08A9D28
:105A5000F0018B9DF00D1124EF55FE4FE90DF11D66
:105A6000808110E08F3F11F0082F11E0A12EB12CA2
:105A70008091A6038A0D9B2D911D09975CF146012B
:105A80008A189B08B50169557C4FA40187EA93E009
:105A90000E944631B50161557C4FA4018FEA93E025
:105AA0000E944631A401440F551FB501660F771FB0
:105AB00061547C4F8FEB93E00E944631B5016954ED
:105AC0007C4FA40187EB93E00E94463188E0811B64
:105AD0008093A6038091A60390E0A02FB0E09D01E3
