:100000000C94A7070C94C4070C94C4070C94132EEB
:100010000C94C4070C94C4070C94C4070C94C40734
:100020000C94C4070C94C4070C941A130C94D617A0
:100030000C9472250C94C4070C94C4070C94C40748
:100040000C94C4070C94C4070C94C4070C94C40704
:100050000C94C4070C94F3130C94C4070C94C407B9
:100060000C94C4070C94C4070C94C4070C94C407E4
:100070000C94C4070C94C4070C94C4070C94C407D4
:100080000C94C4070C94C4070C94C4070C94C407C4
:100090000C94C4070C94C4070C94C4070C94C407B4
:1000A0000C94C4070C94C4070C94C407000000000F
:1000B0000000000000000000000000000000000040
:1000C0000000000000000000000000000000000030
:1000D0007E0F00D4FFFFFFC7000000780000000083
:1000E000000000002A2B2800000000000000000093
:1000F0000000000000000029000000002C1E342039
:10010000212224342627252E362D3738271E1F205E
:100110002122232425263333362E37381F040506A3
:100120000708090A0B0C0D0E0F10111213141516E7
:100130001718191A1B1C1D2F3130232D35040506E5
:100140000708090A0B0C0D0E0F10111213141516C7
:100150001718191A1B1C1D2F3130354C00050105CD
:10016000020503050405050500060106020603064F
:100170000406050600070107020703070407050731
:10018000000801080208030804080508000901091D
:100190000209030904090509000001000200030027
:1001A0000400050000010101020103010401050131
:1001B000000201020202030204020502000301031D
:1001C00002030303040305030004010402040304FF
:1001D000040405046020005E200022200027200087
:1001E00045613A643B003C003D003E002D02140096
:1001F0001A00090013000A0031420400150016001D
:1002000017410700E3001D641B7406001943050035
:1002100050004F002B612C622963A80044614364A5
:100220004200410040003F004C002A001C00180022
:100230000F000D00344212000C00080011000B00EA
:10024000380033643774360010000E00520051003D
:10025000015328616562480027001E001F0020002E
:100260002100220001000100010001000100010045
:10027000010001000100E200010001000100010095
:10028000010001000100010001000100F300FA007B
:10029000F9000000010027002600250024002300AB
:1002A00001004D004B004E004A00010001004F00CC
:1002B000520051005000010001004500440043007D
:1002C00042000100010001000100010001000000E6
:1002D0000100460047004800680069000100230251
:1002E000A95D2F0230022202010001001F02260236
:1002F000270220020100010033142F0030002102E8
:1003000001000100010001000100000001003800AF
:1003100025022D002E02540001000100A85D2E00D0
:100320001E02550001000100AA5D37023602570087
:1003300001000100A75D2402310256000100010006
:100340000100010001000000530001000100010054
:10035000045301000100010001000100010001003F
:1003600001000100A800A900010001000100010036
:100370000100AA00010001000100010001000100CC
:100380000100000001000100610060005F005400F6
:10039000010001005E005D005C0055000100670087
:1003A0005B005A00590057000100010001000100E4
:1003B0006200560001000100010001000100000080
:1003C00029001E001F002000210022002B00140025
:1003D0001A00080015001700E100040016000700CD
:1003E00009000A00E0001D001B00060019000500BE
:1003F00050004F00E2002C00F30001002B04270006
:1004000026002500240023002B06130012000C00F8
:1004100018001C00010001000F000E000D000B0071
:10042000105001003700360010001100520051003A
:10043000010001000100010000DA0281FFD9F1DBB7
:1004400020A4A62EAF00A0C000A1C800AED580A8F1
:100450001FD300408D14200000000000E0100808A9
:10046000C8B08080808080808040403C1404089028
:10047000180408B040800000000000000102C4A47D
:10048000FC00000000800000000000000000008070
:10049000C858282A100F000000000000000E0904B0
:1004A00004040402030201010202040810262B3294
:1004B0000405060000000000000000E01010F0003D
:1004C00000000000000000808080782808102030A4
:1004D00008102040800000000000000304081011F4
:1004E000F90101010101010000000000000000010C
:1004F00010B05055201F0000000000000000000058
:100500000001020C10202837021E2020180C141E97
:1005100001000000000000000000000000804020FA
:1005200010909090A0C080808070081408901010E7
:1005300008A478800000000000000000000708FC0C
:100540000100000000800000010000000000000821
:1005500018EA100F00000000000000000000000377
:100560001C20203C0F111F03061820203C0C121EDB
:1005700001000000000000000000000000008040BA
:10058000202020408000000000E0102810202020C3
:100590001048F0000000000000000000001F20F8DC
:1005A000020101010101010103000000000100102E
:1005B00030D5201F00000000000000000000003FB8
:1005C00020300C020509121E021C140810202C32C7
:1005D000010000000000000000000000000000001A
:1005E000000000000000E01C02050224040402A92F
:1005F0001EE0000000000000000000000000E0100D
:1006000008681008040300000000000000020682D1
:100610007C03000000000000000000000000010258
:10062000040C1010202020283E1C20203E0F111FFB
:1006300000000000000000000000000000000000BA
:10064000000000000000E01C02050224040402A9CE
:100650001EE00000000000000000000000E0900824
:1006600018601008040300000000000000020E8261
:100670007C030000000000000000000000000102F8
:10068000040C1010202020283E1C20203E0F111F9B
:10069000000000000000000000000000000080409A
:1006A00040404080000000000000C04040800080CA
:1006B0004080000000000000000000001E21F00447
:1006C0000202020203020204040403010000090101
:1006D0008080AB04F8000000000000000000031C54
:1006E00020203C0F111F0206182020380810180483
:1006F0000402020100000000000000000000804031
:1007000040408000000000000000E0A0204080C0C9
:100710002040800000000000000000003E41F00486
:1007200002020203020202040402010000000400AB
:10073000404055827C0000000000000000003F2087
:10074000300C020509121E04181008102028340667
:10075000020101000000000000C02010D0300000A5
:1007600000000000008080403C1404089018040839
:10077000B040800000000000000304081011F901DF
:1007800001010101010000000000000080C84828AC
:100790002A100F000000000000000000000000010F
:1007A000020C102028370202040810262B32040500
:1007B000060000000000000000E01010F000000043
:1007C0000000000000808040402C140408901804B1
:1007D00008B0408000000000000304081011F90177
:1007E0000101010101000000000000000080C0487C
:1007F000282A100F204A0910000000000000000104
:10080000020C102028370202040810262B3204059F
:100810000600000000000000414C544752005348BD
:100820004654004354524C004C414C54004E4D4CE5
:10083000434B00556E6465660A0047414D450A000A
:100840004E4D50440A00434F44450A004E4156491C
:100850000A00414C5048410A008081828384858689
:100860008788898A8B8C8D8E8F9091929394A0A18A
:10087000A2A3A4A5A6A7A8A9AAABACADAEAFB0B1E0
:10088000B2B3B4C0C1C2C3C4C5C6C7C8C9CACBCC41
:10089000CDCECFD0D1D2D3D40007087F0807003EF9
:1008A0005B4F5B3E003E6B4F6B3E001C3E7C3E1C34
:1008B00000183C7E3C18001C577D571C001C5E7FB6
:1008C0005E1C0000183C180000FFE7C3E7FF0000B3
:1008D0001824180000FFE7DBE7FF0030483A060E57
:1008E00000262979292600407F05050700407F055D
:1008F000253F005A3CE73C5A007F3E1C1C0800087C
:100900001C1C3E7F0014227F2214005F5F005F5F8B
:100910000006097F017F00006689956A00606060BB
:1009200060600094A2FFA2940008047E04080010F6
:10093000207E20100008082A1C0800081C2A08082D
:10094000001E10101010000C1E0C1E0C0030383E43
:10095000383000060E3E0E060000000000000000C9
:10096000005F000000000700070000147F147F14E0
:1009700000242A7F2A120023130864620036495695
:10098000205000000807030000001C224100000066
:1009900041221C00002A1C7F1C2A0008083E08086F
:1009A000000080703000000808080808000000609F
:1009B0006000002010080402003E5149453E00003E
:1009C000427F4000007249494946002141494D3368
:1009D000001814127F10002745454539003C4A494C
:1009E000493100412111090700364949493600467D
:1009F0004949291E00000014000000004034000096
:100A000000000814224100141414141400004122A0
:100A10001408000201590906003E415D594E007C50
:100A20001211127C007F49494936003E4141412262
:100A3000007F4141413E007F49494941007F09090A
:100A40000901003E41415173007F0808087F000002
:100A5000417F4100002040413F01007F08142241B6
:100A6000007F40404040007F021C027F007F04085E
:100A7000107F003E4141413E007F09090906003ECA
:100A80004151215E007F0919294600264949493212
:100A90000003017F0103003F4040403F001F204012
:100AA000201F003F4038403F0063140814630003D8
:100AB00004780403006159494D4300007F414141DE
:100AC00000020408102000004141417F000402019F
:100AD000020400404040404000000307080000209E
:100AE00054547840007F2844443800384444442813
:100AF00000384444287F0038545454180000087EBD
:100B000009020018A4A49C78007F0804047800005F
:100B1000447D4000002040403D00007F10284400FC
:100B20000000417F4000007C04780478007C0804C9
:100B3000047800384444443800FC18242418001871
:100B4000242418FC007C080404080048545454244D
:100B50000004043F4424003C4040207C001C204012
:100B6000201C003C4030403C004428102844004CED
:100B70009090907C004464544C440000083641003E
:100B8000000000770000000041360800000201026A
:100B90000402003C2623263C000000000000004028
:100BA0004040F0F8F8FF38FFF8F83FF8F8FF38FF5A
:100BB000F8F8F040404000000000000080C0C0C0D5
:100BC000800000C0C08000000080C0C000C0C00025
:100BD0000080C0C00000000000C0C0C0C0C000C095
:100BE000C000000000000000000000000000000045
:100BF00000000000000000000000000000000000F5
:100C000000000000000000000000000000000000E4
:100C10000000000000000000C0F0F8FC3E1E0601CD
:100C20000000007F4141417F007F4141417F000042
:100C300080C0E07E5B4F5BFEC00000C000DCD7DE02
:100C4000DEDED7DC00C00000000000000000000075
:100C5000000000000000000000000000000000494B
:100C60004949FFFFFFFFE0DFBFBF00BFBFDFE0FF7D
:100C7000FFFFFF49494900000000001F3F6060E09E
:100C8000BF1F007F7F071E381E077F7F007F7F0EFC
:100C90001F3B716000000000007F7F0C0C0C007E89
:100CA0007E007F7E0303007F7E03037E7E03037F3F
:100CB0007E000F3E703C063C703E0F00327B49497F
:100CC0003F7E007F7E0303001E3F69696F260000A0
:100CD0000000000000000000030F1F3F3C78706020
:100CE0000000007F4141417F007F4141417F003052
:100CF0007B7F7830202030787F3B0003000F7F0F10
:100D00000F0F7F0F00030000000000000000000034
:100D100000000000000000000000000000000001D2
:100D20000101070F0F7F0F7F0F0F7E0F0F7F0F7FC8
:100D30000F0F07010101000000000000000000008B
:100D400001010000000000000000000000000000A1
:100D50000000000000000000000000000000000093
:100D60000000000000000000000000000000000083
:100D70000000000000000000000000000000000073
:100D80000000000000000000000000000000000063
:100D90000000000000000000000000000000000053
:100DA0000000000000000000000000000000000043
:100DB0000000000000000000000000000000000033
:100DC0000000000000000000000000000000000023
:100DD00000000000000000000000AF00AE050109A7
:100DE00002A10185020901A10005091901290815BF
:100DF00000250195087501810205010930093115A9
:100E000081257F95027508810609381581257F9512
:100E10000175088106050C0A38021581257F9501A8
:100E200075088106C0C005010980A101850319016B
:100E30002AB700150126B700950175108100C0057D
:100E40000C0901A101850419012AA002150126A09F
:100E500002950175108100C005010906A1018506F2
:100E6000050719E029E7150025019508750181029C
:100E70000507190029EF1500250195F0750181027C
:100E8000050819012905950575019102950175035C
:100E90009101C005010906A101050719E029E7151F
:100EA00000250195087501810295017508810105EC
:100EB00007190029FF150026FF0095067508810017
:100EC000050819012905950575019102950175031C
:100ED0009101C009023B00020100A0FA09040000D0
:100EE0000103010100092111010001224000070551
:100EF0008103080001090401000103000000092129
:100F00001101000122B60007058203200001120131
:100F100000020000000832FC87020100010200010B
:100F20000C0353006F0066006C00650000001A039C
:100F30004A006F00730065006600410064006100B4
:100F40006D00630069006B000000040309041124B4
:100F50001FBECFEFDAE0DEBFCDBF11E0A0E0B1E011
:100F6000E8E9F0E602C005900D92AE39B107D9F775
:100F700025E0AEE9B1E001C01D92AE37B207E1F75E
:100F80000E9499250C942D300C940000CF93DF9390
:100F900040917C0550917D054C5753409A01205A51
:100FA0003F4F21303240C0F020E032E0241B350BAF
:100FB00060917A0370917B03FC01CA01240F351FF5
:100FC000C1E0D0E08217930750F070937B036093E9
:100FD0007A03DF91CF91089520E630E0E9CF449184
:100FE000DC01A458BC4F5C91451781F04C93AC01D7
:100FF000A5E056954795AA95E1F7DE0102C0AA0F34
:10100000BB1F4A95E2F7AD016A2B752B019631960D
:10101000D9CFE8EDF0E080818E7F80831092E200EE
:101020001092DA001092E100A0EEB0E08C918160A5
:101030008C9380818F77808319BCA7EDB0E08C9171
:101040008E7F8C9380818F7E8083109248030895D9
:101050002091E4003091E50095E6A9012091EC0093
:10106000822F817020FF06C08091E80080FF06C0BB
:1010700080E008952091E80022FD1AC080916D0360
:10108000882389F0853089F08091EB0085FD0FC0C1
:101090002091E4003091E50042175307F9F2915096
:1010A000E1F684E0089582E0089583E0089581E008
:1010B0000895EF92FF920F931F93CF937C018B01C2
:1010C0000E942808C82F811117C08091E80085FD73
:1010D0000BC08091E8008E778093E8000E9428087A
:1010E000882399F3C82F08C0F70181917F0180936D
:1010F000F1000150110949F78C2FCF911F910F91E9
:10110000FF90EF90089580916F0387FF13C0809147
:10111000E80082FF06C08091E8008B778093E800AA
:1011200004C080916D038111F2CF089580916D0309
:101130008823D9F38091E80080FFF8CF8091E80000
:101140008E77ECCF982F9093E900242F762F50E0E4
:10115000891731F07091EC002091ED005091F00072
:1011600021FD07C09F5F973071F78093E90081E010
:1011700008953091EB003E7F3093EB003091ED000D
:101180003D7F3093ED003091EB0031603093EB0008
:101190007093EC002093ED005093F0002091EE004E
:1011A00027FDE0CF80E00895CF92DF92EF92FF928B
:1011B0000F931F93CF93DF93C8EDD0E088818F7E8C
:1011C0008883E7EDF0E080818160808384E082BFE6
:1011D00081E08093480388818E7F888302EE10E04F
:1011E000F80110821092DA0081EEC82ED12CF6019F
:1011F000108288818F77888388818068888388813E
:101200008F7D888319BC10926D0310926E0310922B
:101210006C0310926B0390EEE92EF12CF7018081A4
:101220008B7F808388818160888342E060E080E0FA
:101230000E94A208F60180818E7F8083F801808160
:1012400081608083808188608083F70180818E7FC8
:101250008083888180618883DF91CF911F910F9176
:10126000FF90EF90DF90CF900895FC01809175037F
:101270009091760386179707A0F06115710529F400
:101280009091E8009E779093E80090E061157105D9
:1012900051F4911108C08091E80082FF34C080E0D1
:1012A0000895BC01F2CF80916D038823C1F1853090
:1012B000C1F18091E80083FD30C08091E80082FD9B
:1012C000EACF8091E80080FFE1CF8091F300209188
:1012D000F200382F6115710519F02830310558F0EA
:1012E00091E02830310509F090E02091E8002E7758
:1012F0002093E800CBCF81918093F1006150710978
:101300002F5F3F4FE7CF80916D03882341F08530F9
:1013100041F08091E80083FFBECF81E0089582E034
:10132000089583E00895089580914A030895CF9227
:10133000DF92EF92FF922FB7F894C0903F03D090C6
:101340004003E0904103F09042032FBFA7019601B4
:10135000261B370B480B590BCA01B901FF90EF90C0
:10136000DF90CF9008952FB7F89460913F0370916C
:10137000400380914103909142032FBF0895209133
:1013800040012223C9F02091430327FF15C0E62F17
:10139000E695E695E695EE31D8F4E80FF92FF11DC4
:1013A000677021E030E001C0220F6A95EAF72095CE
:1013B0008281282322830895FC0132960896219188
:1013C000621303C0DF0111971C92E817F907B9F700
:1013D0000895209140012223C1F02091430327FF6B
:1013E00014C0E62FE695E695E695EE31F8F4E80FA1
:1013F000F92FF11D677021E030E001C0220F6A95DE
:10140000EAF78281822B82830895FC0132962FEFC6
:1014100030E04191641751F02F3F19F4411101C0A0
:10142000232F3F5F3630A9F72F3F09F40895820F2D
:10143000911D27FD9A95FC016283089520913C033C
:1014400030913D032817390771F090933D03809345
:101450003C03E0913A03F0913B03309721F0008484
:10146000F185E02D099408952091380330913903D6
:101470002817390771F09093390380933803E0916E
:101480003A03F0913B03309721F00680F781E02D7D
:101490000994089520912B0336E0839FC001112405
:1014A000629F800D911D1124811522E0920714F096
:1014B00090E080E084589C4F90937D0580937C055C
:1014C0000895FC01680F791F8FEF91E32191822726
:1014D00028E030E087FF09C0880F892721503109B3
:1014E000C9F7E617F70791F70895880FF7CF4091EE
:1014F00027038D3E59F48091280387FF0DC0109279
:10150000280341110BC010921F0308C08E3E81F4C6
:101510008091280318169CF3442381F080912903BD
:1015200090912A03892B09F05AC010921E03089546
:101530008F3E49F447FFF0CF109227038091280394
:101540008111ECCFE0CF803F19F41416ACF3E4CF57
:1015500090912903893F29F41916F4F61092290372
:10156000DBCF8A3F19F497FFD7CFF8CF90912A03AA
:101570008B3F29F497FFD0CF10922A03CDCF8C3F19
:1015800019F41916CCF3C8CF9FE0980F983090F457
:10159000815F990B21E030E0B90102C0660F771F2F
:1015A0008A95E2F7CB018095909126038923809359
:1015B0002603B2CF8D3F31F4809120038E7F80933C
:1015C0002003AACF8E3F21F4809120038D7FF7CF97
:1015D0008F3F09F0A1CF809120038B7FF0CF08953A
:1015E0008091200380FD16C081FD16C082FD16C0CB
:1015F00080911E038823A1F0883280F428E0829F26
:10160000C001112468E270E00E944F2F862F672BE3
:1016100039F0089582E0089584E0089588E00895FF
:1016200081E008958091200380FD14C081FD14C0E5
:1016300082FD16C080911F03882381F08E3180F4D3
:1016400020E5829FC00111246EE170E00E944F2FBF
:10165000862F089584E1089588E2089588E008952A
:1016600080E508958D3E31F40E94120B81958093A0
:10167000280308958E3E19F40E94120BF8CF8F3E76
:1016800031F40E94120B8195809327030895803FC7
:1016900019F40E94120BF8CF893F29F40E94F00A36
:1016A0008093290308958A3F21F40E94F00A8195CE
:1016B000F7CF8B3F31F40E94F00A819580932A0383
:1016C00008958C3F19F40E94F00AF8CF9FE0980F1C
:1016D000983070F4815F990B21E030E001C0220F57
:1016E0008A95EAF780912603822B8093260308953A
:1016F0008D3F31F480912003816080932003089511
:101700008E3F21F4809120038260F7CF8F3FB9F79D
:10171000809120038460F1CF80E00895789408954B
:10172000F894E82FE295EF70F0E031A1282F2F70A8
:1017300081E090E001C0880F2A95EAF7982F9095F4
:10174000932391A392A1892B82A30C948E0B909149
:10175000430392FF06C0282F28712830F9F4877FB1
:10176000846093FF06C0282F28712831F1F4877E0A
:1017700084612091440320FF06C0382F387138302F
:10178000D9F4877F816021FF06C0282F2871283176
:10179000D1F4877E816194FD877E0895282F24717E
:1017A0002430F9F68B7F8860DCCF282F2471243118
:1017B00001F78B7E8861DDCF382F3171313019F719
:1017C0008E7F8860E0CF282F2171213121F78E7E16
:1017D0008861E1CFCF93DF93EC0182389105A9F1C5
:1017E000D8F58133910509F496C048F58932910501
:1017F00009F48AC08A9709F495C0C11522E5D20779
:1018000008F0C1C0C11531E5D30708F031C1C83EA9
:10181000D10508F09CC0C03ED10560F5C83AD1059D
:1018200008F087C0C53AD10508F0FDC0C130D10528
:1018300009F12097F9F0C430D105E0F440C08533B8
:10184000910509F45AC0C997C1F68091430383708A
:1018500089F0C0EED0E00EC0833E910599F170F49E
:10186000803E910501F1823E910539F68091430356
:1018700082FD21C0CE01DF91CF910895863E910572
:1018800061F1873E910571F1843E910509F0B5CF74
:101890008091440381FFEECF80914303C7EED0E0F7
:1018A00084FD0DC0E7CF8091430380FD17C1909167
:1018B000440390FFDFCFC3EED0E084FFDBCFD0E066
:1018C000C0E0D8CF8091430382FD0BC190914403C7
:1018D00090FDBFCF84FFCECFF2CF8091430383FD35
:1018E000DDCFC8CF8091430383FDFEC090914403B8
:1018F00091FFF0CFC4EED0E0BDCF8091430385FFD0
:10190000B9CFC9E2D0E0B6CF8091430385FFB2CF13
:10191000C5E3D0E0AFCF8091430386FFABCFCAE2EF
:10192000D0E0A8CF8091430386FFA4CFC1E3D0E0ED
:10193000A1CFCF3BD10518F6C85AD0E0CC0FDD1FA0
:10194000C65BDE4F0990D881C02DD46493CFC115FA
:1019500040E2D40758F4C11581E0D80708F08ACFD7
:10196000CD3ED10508F4ABCFD06584CFC11590E44E
:10197000D90708F4A4CFC11520E5D20708F05BC051
:10198000DF70D06A77CFC11536E5D30718F5C115DA
:1019900045E5D40708F084C0C11584E5D80708F0F0
:1019A0007AC09C2F969596959E0123703327C1157A
:1019B000D34508F462C0C1E0D0E002C0CC0FDD1F07
:1019C0002A95E2F730E2939FC0011124C82BD92B4E
:1019D000DA6850CFC11589E5D80768F4C11598E5D4
:1019E000D90708F068C0C11527E5D20708F067CF0E
:1019F000DD27D0663FCFC1153AE5D30708F460C0B4
:101A0000CE0190568115904208F059CF8D2F8F71DD
:101A10000E94A70B90E0982F882788279F719C0130
:101A20002C2BE90146C0C55AD0E0C95BDE4FC88106
:101A3000D0E0D0641FCFCE01E4E096958795EA957B
:101A4000E1F783702C2F26952695237090E2299F2D
:101A500090011124382B8C2F8370C1E0D0E002C09C
:101A6000CC0FDD1F8A95E2F7C22BD32BDC6802CFA7
:101A7000DC2FCC27C16FD06AFDCEC1E0D0E002C020
:101A8000CC0FDD1F2A95E2F720E2929FC0011124BE
:101A9000C82BD92BEBCFDC2FCC27C46FD06AEACE72
:101AA0008C2F0E94A70BC82FD0E0DC2FCC27CC278F
:101AB000DF71D062DFCEDC2FCC27C06FD06ADACEE8
:101AC0008C2F8F700E94A70B34E0D695C7953A955E
:101AD000E1F7CF709C2FEC01D069CCCEC9E3D0E008
:101AE000C9CEC2EED0E0C6CEC6EED0E0C3CE0C94D6
:101AF000B30980915002811110925002089580958F
:101B00009091E70298239093E702089520912D0287
:101B10009091FC0156E0291302C080E0089530E066
:101B2000529FF001539FF00D1124E350FE4F71813D
:101B3000761306C07081781303C07281741304C0D9
:101B40002F5F3F4F2770E7CF81E0089580912D02EE
:101B50009091FC01981301C008958F5F8770FACFB0
:101B6000AF92BF92CF92DF92EF92FF920F931F93AB
:101B7000CF93DF93C090F302D090F402E090F5028F
:101B8000F090F6024091510250915202609153023E
:101B900070915402C42AD52AE62AF72ACFE1D0E070
:101BA000082F10E026E0929F000D111D11249CE3E8
:101BB000A92EBC2ED701C6010C2E04C0B695A79540
:101BC000979587950A94D2F780FD0FC0219788F7E3
:101BD000B12C8B2DDF91CF911F910F91FF90EF9042
:101BE000DF90CF90BF90AF900895AC9EF001AD9E76
:101BF000F00D1124E00FF11FEE0FFF1FE052FE4F1A
:101C0000859194910E94EA0B019701F3E2CFCF9363
:101C1000DF93EC010E94B00DEC2FF0E096E0D99F2D
:101C2000E00DF11D11249CE3899FE00DF11D1124AD
:101C3000EE0FFF1FE052FE4F85919491DF91CF91FF
:101C40000C94EA0BE92FEE0FE90FEE0F8E0F982F91
:101C5000977086958695869525E0829FF0011124E0
:101C6000E453FE4F50E040E080E0219130E0092E47
:101C700002C0369527950A94E2F721703327042E87
:101C800001C0220F0A94EAF7822B4F5F5F4F453065
:101C9000510559F70895E92FEE0FE90FEE0F8E0F5A
:101CA000982F977041E001C0440F9A95EAF7869506
:101CB0008695869595E0899FF0011124E453FE4FA7
:101CC00030E020E070E05191DF011197CB01022E4E
:101CD00002C0969587950A94E2F7817081958527D1
:101CE000842385278C932F5F3F4F2530310559F78B
:101CF0000895FC01808191810E94070E92959F704A
:101D0000963091F058F4925F9F70923058F4803F73
:101D100019F030F4883E30F481E008959A5FF4CFF2
:101D2000843FD1F380E00895883EB0F3813FD1F73E
:101D3000F3CFCF92DF92EF92FF920F931F93CF9347
:101D4000DF936C017B0164E670E088E70E946A2CF7
:101D5000EC0197FD12C010E000E0F601E00FF11F6A
:101D6000849164E670E00E94E42CEC01892B29F454
:101D70000F5F1F4F0E151F0581F70E94672DCE01C3
:101D8000DF91CF911F910F91FF90EF90DF90CF9057
:101D900008958091360390913703911103C091E02B
:101DA00089270895882369F062E070E08BED9DE05B
:101DB0000E94990E892B19F0809136030895109294
:101DC000360380913603EBCFCF93C09136038091D9
:101DD00037038823D1F00E94B309605F784D8F4F9D
:101DE0009F4F609332037093330380933403909337
:101DF0003503C11108C062E070E089ED9DE00E94EA
:101E0000990E892B29F0C09136038C2FCF9108951C
:101E100081E080933603F7CF8093450370934703A7
:101E20006093460380916D03843001F582E08093D6
:101E3000E9008FEF9091E800815095FD06C095ED87
:101E40009A95F1F700008111F5CF8091E80085FFA8
:101E50000DC050E040E063E070E085E493E00E9454
:101E600059088091E8008E778093E8000895BC01BE
:101E700084E00C940C0FBC0183E00C940C0F9C01CB
:101E800082E08093E9009FEF8091E800915085FD0A
:101E900006C085ED8A95F1F700009111F5CF80918C
:101EA000E80085FF0CC050E040E066E070E0C9014A
:101EB0000E9459088091E8008E778093E800089589
:101EC000CF93DF93EC01809140018823B1F18091A1
:101ED000430387FF32C060E282E08093E9008FEF26
:101EE0009091E800815095FD06C095ED9A95F1F727
:101EF00000008111F5CF8091E80085FF1BC0809123
:101F0000400170E050E040E0811104C050E040E04A
:101F100068E070E0CE010E9459088091E8008E7759
:101F20008093E80080E2FE01ABE4B3E001900D9203
:101F30008A95E1F7DF91CF91089568E081E0CDCFF8
:101F40009F92AF92BF92CF92DF92EF92FF920F9348
:101F50001F93CF93DF937C015B016A0180917D0227
:101F600001E010E08A3010F40AE010E0C1E0D0E0B7
:101F7000F894B501C701F6010995982E0E948E0BC1
:101F8000911004C021960C171D076CF4892DDF9168
:101F9000CF911F910F91FF90EF90DF90CF90BF9066
:101FA000AF909F900895CC9F9001CD9F300D300D44
:101FB000112490E080E045E34A95F1F70000019696
:101FC00082179307C1F7D4CF80915F02811110C0AF
:101FD0008091D80080618093D8008AE18A95F1F7DA
:101FE00000C08091D90080FF0AC081E080935F0229
:101FF00081E090915F02913009F080E0089582E0E5
:1020000080935F020E94090810926D03F1CF0E9435
:10201000E40F882351F0E0913A03F0913B033097AD
:1020200021F00190F081E02D099480E008958091E5
:10203000E70290914F02892B8093A001909150026A
:102040009923A1F0892B8093A001809140018823DE
:10205000D9F18091430387FF37C08EE1E2EAF1E0D6
:1020600090E0815098F591110E94790D40E250E086
:102070006FE272E080EA91E00E94D52F892B59F13E
:1020800080E2E0EAF1E0AFE2B2E001900D928A95E1
:10209000E1F7E0913A03F0913B033097E1F0809152
:1020A0004001882359F08091430387FF07C0809146
:1020B000A0018093A10186E08093A0010280F381BA
:1020C000E02D80EA91E0099486E0C8CF2191222397
:1020D00041F29F5FC6CF0895882321F00E947F0DB3
:1020E0000C9417100895882339F09091E702982BEB
:1020F0009093E7020C94171008951F93CF93DF93EA
:10210000162F8A3031F481E0DF91CF911F910C942A
:1021100031118D3011F480E0F7CFC0917C05D09162
:102120007D0596E0FE01ACE2B3E001900D929A9538
:10213000E1F7803EA8F186E0FE0111928A95E9F769
:10214000C0917C05D0917D05111136C046E050E06C
:10215000BE018CE293E00E94D52F9E012C573340A4
:10216000892BA9F52A5F3F4F40912B03642F70E024
:10217000C9010E942F2F481B463010F4240F311D37
:10218000211572E0370710F030E020E024583C4F72
:1021900030937D0520937C05DF91CF911F910895A9
:1021A000F6E08F9FB00111246756774F46E050E06C
:1021B000CE010E94CC2FC4CF9E012A5F3F4FFE016B
:1021C0002E173F0719F2808180958193F9CFC901BD
:1021D00045E0969587954A95E1F741E050E0BA01D0
:1021E00002C0660F771F8A95E2F7CB0160917A03F0
:1021F00070917B03862B972BB9016B5F7F4FE5E0D6
:1022000076956795EA95E1F702C0440F551F6A95E8
:10221000E2F7842B952B90937B0380937A03A2CFD4
:10222000CF93DF93C1E4D1E060E089910E947D10FB
:1022300081E0C634D807C1F7DF91CF9108951F938D
:10224000CF93DF93EC01162FFE018491811104C01E
:10225000DF91CF911F910895612F0E947D102196EB
:10226000F3CFCF93382FE0917C05F0917D05EC57AB
:10227000F34020912B03622F70E0CF010E942F2F9B
:10228000281B822F332369F066E00E94432FC82F5A
:10229000C15010F4CF91089560E080E20E947D105B
:1022A000F7CF9F01280F311D2115324018F080E033
:1022B000F0E0E0E08E0F9F2F911D84589C4F90938B
:1022C0007D0580937C05E6CF0E941F1181E00C9470
:1022D0003111CF9384E090E00E94EB2FC82F82E26F
:1022E00090E00E94EB2F982F8C2FCF9108950F93A1
:1022F0001F93CF93DF9300D000D0CDB7DEB76091AE
:10230000790270917A0280917B0290917C020E9406
:10231000970911E0643671058105910590F10E94DD
:10232000E40F8823C1F10E94B3096E5F7F4F8F4F86
:102330009F4F69837A838B839C8380912101909145
:10234000220183599D4F4091200150E045305105B5
:1023500010F044E050E0BE016F5F7F4F0E94E22F1B
:1023600084E090E00E94B92E182F882351F00E943B
:10237000B3096093790270937A0280937B02909301
:102380007C02812F0F900F900F900F90DF91CF91D3
:102390001F910F9108950E94B30900917E02109140
:1023A0007F022091800230918102600F711F821F95
:1023B000931FBBCF4F925F927F928F929F92AF926B
:1023C000BF92CF92DF92EF92FF920F931F93CF9322
:1023D000DF930F92CDB7DEB7C62E4A015901482EC2
:1023E000880F5508C2010E94B92E782E882309F45F
:1023F00073C0C20133E0880F991F3A95E1F7FC01E1
:10240000E050FF4F438150E04115510511F041E08C
:1024100050E080509F4FFC016481758163597D4F6E
:10242000CE0101960E94E22FF401608171818281C8
:1024300093810E949709643671058105910540F4E6
:10244000B701C8010E94610A9981891709F444C043
:102450000C2C000CDD08C6010E94B92E782E8111CB
:1024600013C0712C872D0F90DF91CF911F910F9189
:10247000FF90EF90DF90CF90BF90AF909F908F90A4
:102480007F905F904F900895C60123E0880F991FB9
:102490002A95E1F7FC01E050FF4F438150E0E4163C
:1024A000F50608F4A70180509F4FFC0164817581F7
:1024B00063597D4FC5010E94E22FB701C8010E94F8
:1024C000610A99818913CDCF0E94B309F401608319
:1024D000718382839383C6CFA701B801C5010E948F
:1024E000E22FC0CFCF92DF92EF92FF920F931F9314
:1024F000CF93DF9300D000D00F92CDB7DEB76B0142
:1025000085E0E82EF12C0EE612E09E012F5F3F4F92
:1025100045E652E061E080E00E94DA11882349F04C
:1025200095E0FE013196A0E6B2E001900D929A95F9
:10253000E1F795E0E0E6F2E0D60101900D929A9580
:10254000E1F70F900F900F900F900F90DF91CF91C8
:102550001F910F91FF90EF90DF90CF90089569EE5B
:102560007EEF90E080E00E94173060E082E090E033
:102570000E94F92F60E083E090E00E94F92F109212
:10258000510210925202109253021092540260E0D3
:1025900084E090E00E94F92F60E082E290E00E94E7
:1025A000F92F60E085E090E00E94F92F60E086E07E
:1025B00090E00E94F92F6FEF87E090E00E94F92FE2
:1025C00040E050E0BA0188E090E00E940B3060E00B
:1025D0008DE090E00E94F92F40E050E0BA0188E1E0
:1025E00090E00E940B3060E087E190E00E94F92FBC
:1025F00040E050E0BA018CE190E00E940B3070E0C6
:1026000060E080E290E00E94173040E050E0BA01C4
:1026100088E190E00E940B3040E050E0BA018FE08A
:1026200090E00E940B3040E050E0BA0183E190E07E
:102630000C940B301F920F920FB60F9211242F9310
:102640003F934F935F936F937F938F939F93AF933A
:10265000BF93EF93FF938091E10082FF09C08091C7
:10266000E20082FF05C08091E1008B7F8093E10052
:102670008091DA0080FF24C08091D80080FF20C0C4
:102680008091DA008E7F8093DA008091D90080FFFC
:102690009DC080E189BD82E189BD09B400FEFDCF06
:1026A00081E080936D0380914803811109C00E94ED
:1026B00009080E94D4088091E20084608093E200BF
:1026C0008091E10080FF17C08091E20080FF13C07D
:1026D0008091E2008E7F8093E2008091E200806131
:1026E0008093E2008091D80080628093D80019BC6A
:1026F00085E080936D038091E10084FF2BC0809181
:10270000E20084FF27C080E189BD82E189BD89B5EF
:10271000982F917080FFFBCF8091D8008F7D8093A0
:10272000D8008091E1008F7E8093E1008091E200EB
:102730008F7E8093E2008091E20081608093E200CE
:1027400080916E03882309F447C084E080936D0371
:1027500080916D038091E10083FF27C08091E200AA
:1027600083FF23C08091E100877F8093E10082E0B6
:1027700080936D0310926E038091E1008E7F8093B1
:10278000E1008091E2008E7F8093E2008091E20080
:1027900080618093E20042E060E080E00E94A20855
:1027A0008091F00088608093F000FF91EF91BF91DD
:1027B000AF919F918F917F916F915F914F913F91D9
:1027C0002F910F900FBE0F901F90189519BC10926B
:1027D0006D031092480374CF8091E30087FD93E06E
:1027E00090936D03B5CF78941F921FB61F9211245A
:1027F0008F939F93AF93BF9380913F03909140033A
:10280000A0914103B09142030196A11DB11D809397
:102810003F0390934003A0934103B0934203BF91C1
:10282000AF919F918F911F901FBE1F9018959C0193
:102830004FB7F89480913F0390914003A0914103DA
:10284000B09142034FBF821B930B08952FB7F894AA
:1028500080913F0390914003A0914103B0914203C6
:102860002FBF08950E9426149C0190912703809108
:102870002803982B21F03093240320932303909175
:10288000290380912A03982B21F03093220320936F
:102890002103E0913A03F0913B03309749F082E045
:1028A000809325030480F581E02D85E293E009946F
:1028B000089590E080E00E94340A90E080E00E9459
:1028C0001E0A10924F020E94171086E0E5E2F3E024
:1028D000DF011D928A95E9F710921F0310921E03E3
:1028E000109220030C9432146093F3027093F4025C
:1028F0008093F5029093F6020C9459140F931F9352
:1029000041E050E060E070E004C0440F551F661FD6
:10291000771F8A95D2F7CB01BA01609570958095A3
:1029200090950091F3021091F4022091F5023091FC
:10293000F60260237123822393231F910F910C943D
:10294000741490912E028095892380932E02282F53
:10295000277091F4282F082E000C330B92171306C2
:1029600059F09091440392FD07C085958595859512
:102970000E947E1410922E020895CF93C0914403BA
:10298000C2FB992790F9981799F080FBC2F9C09380
:1029900044036091430384E090E00E94F92F6C2F80
:1029A00082E290E00E94F92F82E0CF910C94A11472
:1029B000CF9108950F931F9341E050E060E070E0E5
:1029C00004C0440F551F661F771F8A95D2F7809168
:1029D000F3029091F402A091F502B091F6028A01FF
:1029E0009B01082B192B2A2B3B2BC901B8011F91E6
:1029F0000F910C947414609351027093520280935F
:102A00005302909354020C9459141092E70280914F
:102A10004001E2EAF1E0882359F08091430387FF07
:102A200007C08EE1DF011D928A95E9F70C945914D5
:102A300086E0F8CF1F93CF93DF93CDB7DEB7AA9789
:102A40000FB6F894DEBF0FBECDBF8FE693E02091A6
:102A5000F100FC012193CF01F3E087379F07B9F71D
:102A600080917003833009F470C0B8F4813009F4A8
:102A700047C0823009F4B1C08091E80083FF7EC274
:102A800080916F03909170039A3008F077C2E92F1C
:102A9000F0E0E15DFF4C0C94A42F8A3009F48CC067
:102AA0008B3009F46FC0893039F780916F03813220
:102AB00019F780917303909174030297E8F680915F
:102AC000E800877F8093E8008091E80082FF38C0AB
:102AD0009091F3008091F200029731F48091F1001F
:102AE000813011F0863021F48091F10080934A0307
:102AF0008091E8008B778093E8000E948308BCCF28
:102B000080916F03813A09F0B7CF8091E800877F09
:102B10008093E8008091730390917403892B61F492
:102B200060E28BE493E070E00E9435098091E80058
:102B30008B778093E800A0CF60E090E080E0F3CF57
:102B400080916D038111C0CF97CF80916F03813A3F
:102B500009F092CF8091730390917403892B09F04F
:102B60008BCF8091E800877F8093E8008091E80018
:102B700080FFFCCF809140018093F1008091E800BC
:102B80008E77B9CF80916F03813209F075CF809134
:102B9000730390917403892B09F06ECF8091E80044
:102BA000877F8093E8000E9483088091710380935F
:102BB00040010E94051560CF80916F03813209F0BA
:102BC0005BCF8091E800877F8093E8000E948308B4
:102BD00080917203809349034FCF80916F03813AB4
:102BE00009F04ACF8091E800877F8093E8008091C8
:102BF000E80080FFFCCF80914903BECF803899F078
:102C0000823809F0BBC1809173038F70873008F060
:102C1000B5C18093E9008091EB0085FB882780F99E
:102C20001092E90006C080916B0390916C039111A2
:102C300082609091E800977F9093E8008093F10084
:102C40001092F1008091E8008E7794C1882309F4F6
:102C500082C1823009F092C180917103811185C1D6
:102C6000809173038F702FEF280F263008F086C1F4
:102C70008093E9002091EB0020FF77C1933031F47D
:102C80008091EB0080628093EB006FC19091EB002C
:102C900090619093EB0021E030E001C0220F8A9513
:102CA000EAF72093EA001092EA008091EB00886036
:102CB000EACF811163C1109171031F778091E30006
:102CC0008078812B8093E3008091E800877F809358
:102CD000E8000E9483088091E80080FFFCCF80918B
:102CE000E30080688093E30082E0111183E0809329
:102CF0006D0344C18058823008F040C18091710357
:102D0000909172038C3D23E09207A1F583E08A83C2
:102D10008AE289834FB7F894DE01139620E03EE003
:102D200051E2E32FF0E050935700E49120FF03C0FD
:102D3000E295EF703F5FEF708E2F90E0EA30C0F0C9
:102D4000C7968D939D932F5F243159F74FBF809184
:102D5000E800877F8093E8006AE270E0CE01019688
:102D60000E9435098091E8008B778093E80006C1C6
:102D7000C096E7CF4091730350917403292F3327F6
:102D80002330310509F444C078F52130310509F4C8
:102D90006FC08BE390E0E3EDFEE02230310509F0F7
:102DA000EDC02091E800277F2093E8002091750373
:102DB000309176038217930708F49C0140E02115B7
:102DC000310509F064C0411162C08091E80082FDC4
:102DD000C9CF80916D03882329F2853019F2809143
:102DE000E80083FFF2CFBECF21323105A9F12232B4
:102DF000310509F0C3C04115510509F443C0413004
:102E0000510509F0BBC086EB90E0EDEDFDE0C9CFC8
:102E1000992781309105C1F0009759F0029709F088
:102E2000ADC0E0E2FFE0E4918E2F90E0E0E2FFE051
:102E300007C0EAE4FFE0E4918E2F90E0EAE4FFE0CF
:102E4000009709F49BC0ADCFEEE2FFE0E4918E2F36
:102E500090E0EEE2FFE0F4CF4115510571F0413012
:102E6000510509F08BC089E090E0EEEFFEE099CFCC
:102E700082E190E0EEE0FFE094CF89E090E0E5EEC3
:102E8000FEE08FCF80E490E0E3E9FEE08ACF80911E
:102E90006D03882309F466CF853009F463CF8091F0
:102EA000E80083FD5FCF8091E80082FD8ECF8091A6
:102EB000E80080FF84CF9091F3008091F20021150B
:102EC000310519F08830910550F041E0089709F07C
:102ED00040E08091E8008E778093E80070CF4491C5
:102EE0004093F1003196215031090196E8CF8038A6
:102EF00009F044C08091E800877F8093E8008091CA
:102F00006E038093F1009ECE811138C01091710341
:102F10001230A0F58091E800877F8093E80010933D
:102F20006E030E948308112311F084E005C0809194
:102F3000E30087FDFACF81E080936D0342E061EC0E
:102F400081E00E94A20842E261EC82E00E94A208B5
:102F500080916D0313C080917103813079F481E019
:102F6000933009F080E080936C031092E900809127
:102F7000E800877F8093E8000E9483088091E80042
:102F800083FF0AC08091E800877F8093E8008091EA
:102F9000EB0080628093EB00AA960FB6F894DEBF38
:102FA0000FBECDBFDF91CF911F9108951F920F9259
:102FB0000FB60F9211242F933F934F935F936F930C
:102FC0007F938F939F93AF93BF93CF93DF93EF93B1
:102FD000FF93D091E900DF708091EC00C82FC170A1
:102FE00080FDC0E81092E9008091F000877F809317
:102FF000F00078940E941A151092E9008091F00078
:1030000088608093F000CD2BCF70C093E900FF91D2
:10301000EF91DF91CF91BF91AF919F918F917F9170
:103020006F915F914F913F912F910F900FBE0F9035
:103030001F901895882379F19CEF980F913A38F4F6
:10304000682F80EA91E00E94BF090C94171090E26B
:10305000980F983050F4877091E001C0990F8A95CD
:10306000EAF7892F0E947F0DF0CF9BE5980F9330F0
:1030700020F490E080E00C94340A98E5980F9731A2
:1030800020F490E080E00C941E0A8D3E20F00E9417
:10309000770A0C9432140895CF93C82F882309F42B
:1030A0006FC08CEF8C0F813AC0F58091400188236E
:1030B00011F18091430387FF1EC0EC2FE695E69542
:1030C000E695F0E0E056FE4F828190E04C2F47708D
:1030D00021E030E002C0220F331F4A95E2F782233D
:1030E0009323892B91F06C2F80EA91E00E94BF0915
:1030F0000E9417100AC0E2EAF1E088EA91E021910B
:10310000C21789F38E179F07D1F76C2F80EA91E0E1
:103110000E94E909CF910C94171080E28C0F88303F
:1031200068F4C77021E030E001C0220FCA95EAF7C9
:103130008091E702822B8093E702ECCFEBE5EC0F66
:10314000E33040F4F0E0E95BFE4F808190E0CF9106
:103150000C94340AE8E5EC0FE73150F4F0E0EE0FA0
:10316000FF1FE65BFE4F80819181CF910C941E0A78
:10317000CD3E30F08C2F0E94320BCF910C94321444
:10318000CF9108951F93CF93DF93182FC9E1D0E01B
:10319000893311F4C0E5D0E0812F0E944C188FE9EB
:1031A0009FE00197F1F700C000002197C1F7812F40
:1031B000DF91CF911F910C941A180F931F93CF9307
:1031C000DF93C62FD42F022FFC0182818823A1F028
:1031D000609379030E942614909378038093770379
:1031E000C77081E001C0880FCA95EAF7DF91CF91DF
:1031F0001F910F910C94731080917903681335C05F
:1032000080917703909178030E941714893B910570
:1032100060F510E21D0FCD17B9F080E28C0F8830F9
:1032200040F4C77081E001C0880FCA95EAF70E9498
:103230006C10183048F481E09D2F977001C0880F02
:103240009A95EAF70E947310802F0E94C2181830D6
:1032500098F4D77081E001C0880FDA95EAF7DF9122
:10326000CF911F910F910C946C10C77081E001C039
:10327000880FCA95EAF7F3CFDF91CF911F910F9195
:103280000895AF92BF92CF92DF92EF92FF920F9389
:103290001F93CF93DF93EC018AE0A82EFE012491C7
:1032A000222309F494C0213009F03EC03196849164
:1032B000813031F42296FE0184910E94C21807C029
:1032C000823039F42296FE0184910E944C18219696
:1032D000E5CF833031F42296FE0184910E941A18C2
:1032E000F6CF843009F071C02296FE01249190E05F
:1032F00080E0FE0131962053330B2A30310548F02F
:10330000019728F3EFE9FFE03197F1F700C00000E3
:10331000F7CFA89EA001A99E500D1124C901840FCA
:10332000951F2491EF01E5CFE22FF0E0E452FF4F2B
:10333000B490822F86958695869590E0FC01E453A3
:10334000FF4FE4902770F12C022E02C0F594E79411
:103350000A94E2F731E0E322FF24FC01E454FF4F3A
:10336000C490D12C022E02C0D594C7940A94E2F7DF
:10337000E1E0CE22DD24FC01E455FF4F049110E092
:1033800002C0159507952A95E2F701701127E114FF
:10339000F10419F081EE0E944C18C114D10419F007
:1033A00086EE0E944C188B2D0E94C218CD2819F071
:1033B00086EE0E941A18EF2819F081EE0E941A1862
:1033C000012B09F484CF8CE278CFEF0180CFDF911D
:1033D000CF911F910F91FF90EF90DF90CF90BF9012
:1033E000AF900895811108C089EA611101C08AEA8D
:1033F0000E94C21880E008958130E1F78BE26111EC
:10340000F7CF81EE0E944C188BE20E94C21881EE29
:103410000E941A18EFCFCF92DF92EF92FF920F9394
:103420001F93CF93DF930F92CDB7DEB7EE24E394D3
:10343000F12C04E712E09E012F5F3F4F49E652E076
:1034400063E082E00E94DA11082F882321F1C09006
:103450008E028C2D90E09C012F513D4F79011981F6
:10346000F9018081181BD12E80E00AC0DA94F7019F
:1034700080818F5F808360E08C2D0E94F219802F05
:103480001D14A4F3912F17FD90E0191B11110EC00C
:1034900081110E94770D802F0F90DF91CF911F91A6
:1034A0000F91FF90EF90DF90CF9008951F5FF7018D
:1034B00080818150808361E08C2D0E94F219802FE1
:1034C000E5CF4F925F926F927F928F929F92AF92D1
:1034D000BF92CF92DF92EF92FF920F931F93CF9301
:1034E000DF9300D000D00F92CDB7DEB76C01FC01A6
:1034F00083819481892B39F01081F180812F8F2174
:103500008F3F09F08CC60F900F900F900F900F9087
:10351000DF91CF911F910F91FF90EF90DF90CF90AF
:10352000BF90AF909F908F907F906F905F904F90E3
:1035300008950E94B00D082F682F89819A810E94FA
:103540004B0EE12FF0E026E0F29EE00DF11D11247C
:103550003CE3039FE00DF11D1124EE0FFF1FE0522D
:10356000FE4F05911491F6012281222309F429C608
:10357000C80190568115F0E29F0750F0905E8115CA
:1035800030E1930728F0915C81159F4108F049C014
:10359000C8019927AC01445051094432510518F033
:1035A0008B970E9780F4E091AA02F0E0EE0FFF1FD8
:1035B000E155FD4F808191818F3F3FE7930719F0DF
:1035C000019691838083083A3DE5130709F45CC0B6
:1035D00008F0EAC5073A9DE5190761F10C321105BB
:1035E00009F458C00C3282E6180709F453C0043FAE
:1035F0009CE5190709F4D6C008F0C9C5093DFCE5EA
:103600001F0709F4CBC00A3D3CE5130709F4D6C0F7
:10361000083D8CE5180709F456C0222309F4F1C5CA
:1036200065C090E080E00F3F110511F008F0B2CFC7
:10363000C801B0CF8DED91E00E94411980912E021A
:10364000877009F460CFF6018281882309F45BCF8B
:103650008091440382FD57CF82E00F900F900F902E
:103660000F900F90DF91CF911F910F91FF90EF90EE
:10367000DF90CF90BF90AF909F908F907F906F9092
:103680005F904F900C94A1148AED91E0D5CF87ED17
:1036900091E0D2CF81E08093E90210923801043F9B
:1036A0008CE5180709F47EC0A8F4093DECE51E0777
:1036B00009F474C00A3DFCE51F0709F47FC0083D0A
:1036C0003CE5130799F426E241EE61EEC6010E9443
:1036D000DD18B4CF063F8CE5180709F46BC008F479
:1036E00065C0073FECE51E0709F454C0109279034A
:1036F00004303DE5130708F064C00B3F8CE5180764
:1037000030F4C80182509C45449708F064C00E9480
:10371000691190934403809343030131FCE51F0733
:1037200009F431C108F0ADC009303CE5130709F4D4
:1037300018C108F07AC005309CE5190709F405C1E5
:1037400008F063C00330FCE51F0709F4F4C008F07B
:10375000F8C080914303816002301C4509F4EEC03B
:10376000609143031091440384E090E00E94F92F9C
:10377000612F82E290E00E94F92F0E9405155ECF32
:10378000063FECE51E07B1F088F0073F2CE5120775
:1037900009F037C527E245EE66EE98CF27E245EE01
:1037A00065EE94CF26E241EE60EE90CF27E245EE43
:1037B00064EE8CCF26E241EE62EE88CF28E241E053
:1037C000EFCF02369DE5190709F4A1CF063AEDE5E2
:1037D0001E0709F49CCF06318CE5180709F001C1DA
:1037E000222309F412C58091E7028A7A91E009F454
:1037F00090E09093CA0169E2811165E380EA91E06B
:103800000E94E9090E94171019CF07308CE51807AC
:1038100009F4A3C080914303806108301C4508F47B
:103820008DC080914303806489C0809143038B7F66
:103830000D30ECE51E0709F481C098F48091430334
:103840008E7F0B302CE5120709F478C0809143037A
:103850008C600C301C4508F471C0809143038D7F4F
:103860006DC00F308CE5180709F489C080914303BF
:10387000877F00311C4508F461C0809143038F7D30
:103880005DC00E3FECE51E0709F475C038F5053143
:103890002CE5120709F485C080F403318CE5180784
:1038A00009F47BC008F473C00E940515909143038E
:1038B000892F97FB87F9805841C00C3FECE51E0724
:1038C00009F447C008F053C08091440381600B3F66
:1038D0001C4509F045CF8093440342CF02303DE5BB
:1038E000130709F46AC0B8F4809144038C7F011572
:1038F0009DE5190781F380914403836001301D45E4
:1039000050F380914403982F909591708E7F892B6E
:1039100090FB81F9E0CF0236FDE51F0709F453C0A3
:10392000063A2DE5120709F455C003301D4509F08C
:1039300017CF60E043C080914303826080934303CC
:103940000FCF809143038460F9CF80914303886057
:10395000F5CF809144038260BECF809143038062A3
:10396000EDCF0E940515809143038068E7CF8091D9
:1039700044038E7FB0CF809144038D7FACCF809184
:1039800043038F7EDBCF809143038F7BD7CF0E9491
:103990000515809143038F77D1CF80914303837FB7
:1039A000CDCF8091430382FB992790F921E09227A4
:1039B00090FB82F990FB83F9C1CF61E08EE090E04B
:1039C0000E94F92FCDCE90914303892F8F7E94FFD3
:1039D0008061B4CF90914303892F8E7F90FF8160E7
:1039E000ADCF222381F00B359DE5190709F49BC06B
:1039F00008F068C00115FCE51F0709F475C00F3D0C
:103A00001C4509F48DC0F601828110810181882353
:103A100009F48DC0812F902F0E94B00DF82E682FD1
:103A2000812F902F0E944B0EE12FF0E026E0029FA5
:103A3000E00DF11D11243CE3F39EE00DF11D112476
:103A4000EE0FFF1FE052FE4F859194910E94EA0B0A
:103A5000082FF92EA82EF6011281B580B2948FE0BE
:103A6000B82280912E028770E9F0912E1123D9F0AF
:103A7000892F807F803449F090E2900F983090F049
:103A8000803619F4F6EF0F1769F08091440382FD38
:103A900009C082E00E94A11480912E0287709924AF
:103AA00093948111912C8F2C8294FFE08F22ABE0B4
:103AB0004A2E481408F4A4C0E82DF0E0E75CFF4C5F
:103AC0000C94A42F0C353DE5130779F10D351D45F8
:103AD00009F099CF8091440382FB882780F991E017
:103AE00089270E94BD148FCF0E9405159FEFE4E344
:103AF000FCE09150E040F040E1F700C0000087E7B3
:103B000097E7909301088093000888E19AE00FB648
:103B1000F894A895809360000FBE90936000FFCF4B
:103B20000E94AF128BCD81E0DCCF80E0DACF812F15
:103B3000902F0E94220EF82E77CF2F2D2F70E22E7D
:103B40008F2D807F19F0E294E0EFEE221123B9F07F
:103B5000EE2069F080E2800F883010F0A11009C0DB
:103B60008091E702E82AE092E7020E941710802F76
:103B700045C080914F02E82AE0924F02F6CF802F95
:103B80000E941A18EE20E1F1005E083010F0A1103A
:103B900004C08E2D0E947F0D06C0E09480914F02DC
:103BA000E822E0924F020E9417102AC03F2D3F707A
:103BB000E32E8F2D807F803219F0E29470EFE722A0
:103BC000AA2059F081E0A81609F494C0112309F441
:103BD000A0C0BB2009F495C0CACF2091440322FFA6
:103BE00066C0112309F45CC0EE2039F08091E70231
:103BF000E82AE092E7020E94171080E00E944C1829
:103C0000282D2850330B2430310510F40E94071062
:103C1000112379F08F2D807F803619F436EFA316AB
:103C200041F08091CB01823009F0A9C283E08093FA
:103C3000CB019920A9F080912E0280FD11C0F601E0
:103C400012828595859585950E94DA14C6010E9499
:103C5000611A80912E028595859585950E947E1426
:103C600085E0F601DE01119601900D928A95E1F74B
:103C700089819A810E94220E9A81E981F0E026E0F2
:103C8000929FE00DF11D11243CE3839FE00DF11D97
:103C90001124EE0FFF1FE052FE4F8591949133CC1B
:103CA00080E00E941A18EE2009F4AACF72CF1123E7
:103CB000A1F0909150028E2D892BB11003C00E946B
:103CC00073109ECFE1E0BE12FACF22FD99CF981774
:103CD00009F496CF8093500293CFB11006C00E9492
:103CE000790D8E2D0E946C108BCFF1E0BF1609F478
:103CF00087CFF5CF112339F065E0462E4B1408F439
:103D00007FCF8E2DDCCF54E0552E5B1408F478CF96
:103D1000E8CFBB2031F349E3642EA6100DC02FEF8E
:103D200037EE83E0215030408040E1F700C00000D2
:103D3000802F0E941A1864CF9FE7E8E3F1E09150CA
:103D4000E040F040E1F7F2CF8F2D869586958370A5
:103D500069F0813009F054CF802F9F2D937011119D
:103D600002C090E080E00E941E0A4ACF802F9F2D63
:103D70009370111102C090E080E00E94340A40CF9D
:103D8000802F112329F00E94320B0E94321438CF69
:103D90000E94770AFACF8F2D837009F067C0111146
:103DA0002FCF202F229526952770220F220F402FEC
:103DB0004F7050E070E060E0022E04C0440F551FC9
:103DC000661F771F0A94D2F780E090E0DC0104FFC1
:103DD0000FC08FE090E0A0E0B0E004C0880F991F12
:103DE000AA1FBB1F2A95D2F780959095A095B095F4
:103DF0002F2D269526952370223029F1D8F4409056
:103E0000510250905202609053027090540221303F
:103E100069F0842B952BA62BB72BBC01CD01642117
:103E20007521862197210E94FB14EACE4429552949
:103E3000662977292A013B01482A592A6A2A7B2ABE
:103E4000C301B201F0CF842B952BA62BB72B40904A
:103E50005102509052026090530270905402BC0183
:103E6000CD016425752586259725DDCF86951123FF
:103E700011F08F2D8170882309F4C2CE202F229556
:103E800026952770220F220F402F4F7050E070E0D0
:103E900060E0022E04C0440F551F661F771F0A946E
:103EA000D2F780E090E0DC0104FF0FC08FE090E0EB
:103EB000A0E0B0E004C0880F991FAA1FBB1F2A957D
:103EC000D2F780959095A095B0952F2D26952695A3
:103ED0002370223029F1D8F44090F3025090F4027C
:103EE0006090F5027090F602213069F0842B952BDA
:103EF000A62BB72BBC01CD0164217521862197210A
:103F00000E9474147DCE44295529662977292A01F7
:103F10003B01482A592A6A2A7B2AC301B201F0CF01
:103F2000842B952BA62BB72B4090F3025090F402D4
:103F30006090F5027090F602BC01CD0164257525F4
:103F400086259725DDCF2F2D2F70E22E112329F006
:103F5000822F0E94DA14802FB2CE802F0E946C1024
:103F60008E2D0E947E144CCE802F32EFA31609F4C2
:103F700043C03A1570F090EFA916D9F0E1EFAE16F4
:103F800099F0112309F472C0B110F1CD8F2D8F710A
:103F900037C0F3EFAF16B9F134EF432EA410F1CFD1
:103FA0008091440382FF43C08F2D8F711123C9F28A
:103FB00027C01123D9F024E0522E5B1408F420CE40
:103FC0002F2D2F7161E070E080E090E004C0660F5B
:103FD000771F881F991F2A95D2F74090F3025090BF
:103FE000F4026090F5027090F602A8CF95E0692E79
:103FF0006B1408F405CEE4CF8F2D8F711111B1CF62
:104000000E94DA14FDCD60E070E0CB01112309F4C9
:1040100077CF2F2D2F7161E070E080E090E004C039
:10402000660F771F881F991F2A95D2F769CF112332
:1040300091F00F2D0F71802F0E94DA1480914403AC
:1040400082FD07C028E0029FC00111248360809395
:104050002E02802FD5CF81E00E94A11431E03B15C4
:1040600008F0CECD82E00E94A114CACDBB2091F011
:10407000893341F48FEF97EEE3E081509040E040C8
:10408000E1F754CEFFE728E331E0F1502040304023
:10409000E1F74CCE8F2D8F7164CFE0E1E00FE73078
:1040A00008F03FC0F0E0EB5BFF4C0C94A42F112311
:1040B00009F4A6CD8091F50191E089278093F5015F
:1040C0009FCD1093F5019CCD81E08127F7CF111191
:1040D00097CD81E0F3CF111193CD1092F50190CDE2
:1040E000112321F082E08093CB01F3CF8091CB01AB
:1040F000823021F481E08093CB0182CD833009F0BE
:104100007FCD1092CB01E9CF112339F08091F401DA
:10411000882381F21092F40173CD84E08B1550F660
:104120006FCD8091F401BB20F1F0882341F08091A4
:10413000F50191E089278093F5011092F4011111A6
:1041400016CD9FE7E8E3F1E09150E040F040E1F761
:1041500000C00000802F0E941A1886E0F60111921C
:104160008A95E9F74DCD882309F44ACD111148CD40
:104170008091F50191E089278093F501CBCF8130C3
:1041800009F057CD1092CB011092F50152CD063FA8
:104190009CE5190709F40ECB08F408CB073FFCE5B2
:1041A0001F0709F4F7CA39CA093AEDE51E0709F4F1
:1041B0006ECA84ED91E00A3AFDE51F0709F43CCA96
:1041C0000DCA0C32110529F00C3232E6130709F042
:1041D0000ECA1092E902043FFCE51F0709F4E2CA87
:1041E00008F0CECA093D3CE5130709F4D7CA0A3DD9
:1041F0008CE5180709F4E2CA083D9CE5190709F4A3
:1042000062CA06311C4509F0FECB8091CA0169E201
:10421000811165E380EA91E00E94BF09F3CA85E05D
:10422000DE01119601900D928A95E1F7F601228147
:1042300089819A8121117DC90E94220E082F81C98E
:104240001F93CF93DF938091FB01807FA9F480912E
:10425000F801882389F080912D02D091FC016091B2
:10426000F6017091F701A091F901B091FA01C62F02
:10427000C72316E0D81304C0DF91CF911F91089592
:1042800090E0109711F0CF3F19F401968770F2CFAC
:10429000189F9001199F300D1124F901E350FE4F32
:1042A00041814713F2CF40814613EFCF4281411144
:1042B000ECCF438154814A1B5B0B493B510528F7E6
:1042C0008091FB018F7080618093FB01F901EE5FAB
:1042D000FD4F80818F708061808386EF91E00E9426
:1042E000611ADF91CF911F910C94A60D8F929F922E
:1042F000AF92BF92CF92DF92EF92FF920F931F93F4
:10430000CF93DF93CDB7DEB761970FB6F894DEBFDA
:104310000FBECDBF8C0185E0F801DE011D96019036
:104320000D928A95E1F7D8011296EC90129786EFDC
:10433000882E81E0982E4091F9015091FA014115A3
:10434000510509F431C19091F6012091F701892FAF
:1043500082238F3F09F428C1DC901196CC901197ED
:104360001396AD90BC901497F090F801F501E41B02
:10437000F50BFF2009F4F9C08091FB01382F307F45
:10438000E93BF10508F0C5C0311185C0FE2C2C11A8
:1043900024C09D1122C0E11020C08F7080618093E5
:1043A000FB01C4010E94611A8091FB01D80115969E
:1043B0008C938F2D61960FB6F894DEBF0FBECDBFE4
:1043C000DF91CF911F910F91FF90EF90DF90CF90F1
:1043D000BF90AF909F908F900895A114B10429F0E1
:1043E0008D2D8C218F3F09F00BC180E080FF14C020
:1043F0004E2D6C2D8D2D0E94860D882369F086EF41
:1044000091E00E94611A86E0E6EFF1E0DF011D9283
:104410008A95E9F7F12CCDCFAB2829F08D2D8C2191
:104420008F3F09F0EAC080E0B82FB170AB2E80FF5B
:1044300029C04E2D6C2D8D2D0E94860DB82E811118
:1044400021C0DD86CE868D859E850E94070E292F90
:1044500022952F70223050F0243078F49F7051F064
:10446000F8019581907F31F4FB2CA3CF9F7011F060
:104470008823D1F3805E8830B8F3C8010E94611AA6
:10448000BA2CF2CFEE2009F494CF8091FB01816029
:104490008093FB01BFCF2C1112C09D1110C0E11001
:1044A0000EC015968C93C8010E94611A86E0F8012F
:1044B000A6EFB1E001900D928A95E1F77ACFC8019D
:1044C0000E94790E882309F1EE20F9F08091FB011A
:1044D000803270F02091F6013091F70138872F83F8
:1044E0001986BB86AA868C87CE0107960E94611A20
:1044F00086E0F801A6EFB1E001900D928A95E1F710
:104500000E942021FF24F39454CFC8010E94611A15
:10451000F9CF332309F473CF2C110FC09D110DC0B7
:10452000E1100BC0F8018583C8010E94611A86E082
:10453000D4011D928A95E9F73CCFC8010E94790EFB
:10454000882319F3EE2009F38091FB01803280F279
:104550002091F6013091F7013A8329831B82BD82B5
:10456000AC828E83CE010196C1CFE93BF105B0F458
:10457000FE2CEE2051F22C1103C09D1509F496CFAC
:10458000C8010E94790E8111B3CF8091FB01816037
:104590008093FB01C8010E94611A0BCF86E0F401F1
:1045A00011928A95E9F705CFEE2009F4AECFC80144
:1045B0000E94790EF82E882309F4A7CF86E0F8012F
:1045C000A6EFB1E001900D928A95E1F78091F60196
:1045D0009091F7010E94070E92959F70963051F4CA
:1045E000863F41F08091F50191E089278093F501A4
:1045F0009093F4010E942021DCCE81E08E2514CF1F
:1046000081E08E25F3CE0F931F93CF93DF93CDB729
:10461000DEB767970FB6F894DEBF0FBECDBF6D8BC8
:104620007E8B8F8B752F611110924F028E899F891F
:10463000892B09F487C0872F84238F3F09F05BC043
:104640007FEF4FEF7FC0902F909589237AC086E04F
:10465000FE013796DE01119601900D928A95E1F7E1
:104660008A859B85892B09F48AC08F819885892347
:104670008F3F09F484C02091FC0130E0C90101960C
:104680008770992740912D024817190671F40E94EE
:1046900005151092FC0110922D0286E0E6EFF1E084
:1046A000DF011D928A95E9F76AC096E0929FD001DA
:1046B000939FB00D1124A350BE4FFE01319601907F
:1046C0000D929A95E1F78093FC010E94A60D57C0C8
:1046D000819FC001112483509E4F0E947621882320
:1046E00009F454C080912D0290E0019687709927BB
:1046F00080932D0245C001E010E0042E01C0000FA0
:104700000A94EAF7A72FB0E0A054BE4F8C91909185
:10471000F501611102C0982F9023992309F493CFDA
:1047200050E096E0799F400D511D1124440F551F14
:10473000FA01E35AFE4F7491445A5E4FFA014491D4
:10474000802B8C931A8A198A4B8B7C8B85E0FE0117
:104750007396DE011D9601900D928A95E1F786E031
:10476000FE013D96DE01179601900D928A95E1F7C4
:10477000CE0107960E947621882309F468CF16E0BF
:1047800080912D029091FC018913A2CF67960FB6FC
:10479000F894DEBF0FBECDBFDF91CF911F910F9177
:1047A00008957F928F929F92AF92BF92CF92DF92A5
:1047B000EF92FF920F931F93CF93DF93CDB7DEB7A6
:1047C0002F970FB6F894DEBF0FBECDBF8E010F5FDF
:1047D0001F4F8AE0D8011D928A95E9F78AE7C82E13
:1047E00081E0D82EF12CE12CAA24A394B12C25E849
:1047F000822E21E0922EF60181916F018F3F09F404
:1048000043C0F894E82FE295EF70F0E021A18F709B
:10481000A50102C0440F551F8A95E2F7CA01922FE5
:10482000982B91A392A18095892382A30E948E0B3D
:1048300000C0EFE7F1E0712C31E021912F3F09F446
:104840007AC0A22FA295AF70B0E090968C9190E0C4
:104850002F7002C0959587952A95E2F780FD6BC071
:10486000832F782A330F8E169F0639F7F60131977A
:1048700080818F3F11F00E94900B50EA5A95F1F71A
:10488000F801EE0DFF1D70828FEFE81AF80A95E02F
:10489000E916F10409F0AFCF4AE050E0B80182E830
:1048A00092E00E94D52F7C01892B41F08AE0F8012B
:1048B000A2E8B2E001900D928A95E1F710918D0285
:1048C000E114F104D1F181E0809357020E94261493
:1048D0009093560280935502809155029091560212
:1048E0000E941714059778F0A2E8B2E0E12FF0E0FB
:1048F000E157FD4F87E892E02D9121938A179B079E
:10490000D9F71092570281E090E0EF28D1F02F966E
:104910000FB6F894DEBF0FBECDBFDF91CF911F91D0
:104920000F91FF90EF90DF90CF90BF90AF909F904E
:104930008F907F90089580E094CF809157028111ED
:10494000CBCF0E94E40FD82EE0918D02DE011B96A2
:104950007D01882309F46BC085E01D928A95E9F7F3
:104960000E2F10E001571D4F80917D028A3060F5B7
:1049700042E752E1B701C8010E94A00F882399F1D4
:104980004BE05AE1B701C8010E94A00F882359F1FA
:1049900047E751E1B701C8010E94A00F882319F130
:1049A00010927D0280918C0290E045E050E0B701CA
:1049B00081579D4F0E94D52F21E020935E02892BC5
:1049C00049F5D12C8D2DA3CF809158029091590299
:1049D0000E941714843F914058F680915E02811125
:1049E00012C080E094CF80917D028F3F29F08F5FCD
:1049F00080937D028A30B0F20E942614909359026F
:104A000080935802EACF85E0F70111928A95E9F781
:104A100010925E02A0918C02B0E0A157BD4F85E0DC
:104A2000FE013B9601900D928A95E1F7CBCFF0E025
:104A3000E157FD4FF89485E0AEE6B2E001900D92AB
:104A40008A95E1F765E070E08EE692E00E94610AE7
:104A500080936D020E948E0BF894E091E402F0E0E6
:104A6000EF51FD4F80818B878093740261E070E08D
:104A7000C7010E94610A809373020E948E0BF89412
:104A8000C0907502D0907602E0907702F0907802A4
:104A900080915A0290915B02A0915C02B0915D02FC
:104AA000C816D906EA06FB06D1F0C0925A02D09287
:104AB0005B02E0925C02F0925D020E94E40F8111C1
:104AC0000EC00E94B309C61AD70AE80AF90AC092B2
:104AD0007E02D0927F02E0928002F09281020E94D8
:104AE0008E0B7FCF1F921FB61F9211248F939F931F
:104AF000AF93BF9380913E03811113C080913F0318
:104B000090914003A0914103B09142034196A11DB1
:104B1000B11D80933F0390934003A0934103B09352
:104B20004203BF91AF919F918F911F901FBE1F9025
:104B30001895CDB7DEB765970FB6F894DEBF0FBEF8
:104B4000CDBF84B7877F84BF0FB6F894A8958091B6
:104B50006000886180936000109260000FBE80E862
:104B600090E00FB6F89480936100909361000FBEBF
:104B700085B7806885BF85B7806885BF8CE89BE076
:104B800090939F0180939E010E9409080E94D4087F
:104B90008091E20084608093E200789480916D03BC
:104BA0008823A1F01091E9001F709091EC00892FEB
:104BB000817090FD80E8182B1092E9008091E80048
:104BC00083FD0E941A151F701093E90082E084BDD6
:104BD00093E095BD9AEF97BD80936E0010927E0290
:104BE00010927F0210928002109281020E94E40FC4
:104BF000809328010E94E40F81110E94CC2D8091A6
:104C000028018091280195E0811190E090938D0218
:104C100085E0891B80938C020AE711E05FE7E52EAF
:104C200051E0F52ED8018D918D018F3F11F00E943A
:104C3000900BE016F106B1F70FE711E045E8E42E1E
:104C400041E0F42EF80181918F018F3F11F00E9415
:104C5000900BE016F106B1F78AE0EFE8F2E0DF0131
:104C6000282F1D922A95E9F7E2E8F2E0DF011D9274
:104C70008A95E9F790E080E00E94F32F893E9E4FED
:104C800011F00E94AF1282E090E00E94EB2F80931F
:104C900099020E946911909344038093430383E037
:104CA00090E00E94EB2F682F70E090E080E00E947F
:104CB000FB140E94E40F882309F428C383E0809347
:104CC000190380FD25C380E880932B030E94642C88
:104CD0006DE070E08BE494E00E94990E892BE9F579
:104CE0008091190363E070E081FD14C388E494E0CF
:104CF0000E94990E892B89F56DE070E088E394E0BD
:104D00000E94990E892B49F50E94B309605F784D86
:104D10008F4F9F4F6093320370933303809334031C
:104D200090933503ECE7F3E080E092E0DF019C0133
:104D30001D9221503040E1F7F0937D05E0937C0512
:104D40008FEF9FEF90937B0380937A0381E08093B2
:104D500037038093360310921A0380912801811142
:104D600006C084EF8093370185EF80933601209150
:104D70003701E22FE295EF70F0E061A12F7081E042
:104D800090E0AC0101C0440F2A95EAF7342F30952A
:104D9000362331A322A1242B22A320913601E22F16
:104DA000E295EF70F0E031A12F7001C0880F2A95D5
:104DB000EAF7982F9095932391A392A1892B82A330
:104DC0008FE891E00197F1F700C0000020913701D2
:104DD000E22FE295EF70F0E080A190E02F7002C02A
:104DE000959587952A95E2F7817090913601E92F84
:104DF000E295EF70F0E020A130E09F7002C03595A1
:104E000027959A95E2F792E020FF90E0892B809316
:104E1000E5029091280181E098279093E402891B94
:104E200080938E020E94E40F811102C00E94CF2D58
:104E300089E291E090933B0380933A0334E6832E1A
:104E4000912CA12CB12C80916D0300E112E18530F1
:104E500009F49DC20E94D123898B81110E94B3095C
:104E6000AFE8B2E0EAE9F2E010E000E0702EDD9099
:104E700081918D1509F49AC28D25C12CFF24F394DC
:104E8000982F9F2109F48DC20E94E40F882399F086
:104E9000CF827886DF2081E009F480E089870E9454
:104EA00026148160782F9B878A874F815885698572
:104EB0008B850E940323F801E656FD4F8081F8267A
:104EC000F0820E94E40F882309F4AEC04090AF0244
:104ED0005090B002052C000C66087708109135013F
:104EE000212F30E0EFEAF2E081E090E032962817DF
:104EF00039070CF072C26091AB027091AC028091E4
:104F0000AD029091AE020E9497096B017C0149ECC1
:104F1000C416D104E104F10414F18091AA0290E0D6
:104F2000019669E170E00E944F2F8093AA02880FDA
:104F3000991FFC01E155FD4F11821082812F18311C
:104F400008F087E18F5F809335010E94B309609379
:104F5000AB027093AC028093AD029093AE0282E0FC
:104F600048165104610471040CF443C2A0E6BAEE81
:104F7000A30192010E94AA2F2B013C0198EC199FDA
:104F800090011124032E000C440B550B2C0D3D1DDC
:104F90004E1D5F1DA5E0B0E00E94AA2F9B01AC0151
:104FA000C301B2010E94632F29013A01A1EF4A1601
:104FB0005104610471042CF000EF402E512C612C3F
:104FC000712C6091A6027091A7028091A802909125
:104FD000A9020E9497096B017C01B5E6CB16D104AA
:104FE000E104F10484F00E94B3096093A602709377
:104FF000A7028093A8029093A9028091E602809371
:10500000A5024092A4021091A502A091A402A11BA6
:10501000BB0BA70196010E94B52FA50194010E9428
:10502000852F120F1093E6028091E502E82FEE0F14
:10503000EE0F80913701A82FA295AF70B0E0909647
:105040002C9130E08F7002C0359527958A95E2F754
:105050002170332780913601A82FA295AF70B0E060
:1050600090964C9150E08F7002C0559547958A9567
:10507000E2F7CA018170992740FF02C082E090E008
:10508000822B8E2B8093E5021091E4028F70E82F23
:10509000F0E0EB57FE4F80819091E302890F8093FF
:1050A000E302F12C82306CF0E12FF0E0EF51FD4F84
:1050B00080818F5F808360E0812F0E94F219FF243E
:1050C000F3948091E3028F3F6CF4E12FF0E0EF5115
:1050D000FD4F80818150808361E0812F0E94F21911
:1050E000FF24F3948091E302082E000C990B62E0F8
:1050F00070E00E944F2F8093E302F1100E94770D21
:1051000080913703882351F180911B0390911C03F8
:105110000E941714C29708F070C120917A03309151
:105120007B032115310509F0C9C28091360388231C
:10513000A9F00E94B309009132031091330320912A
:10514000340330913503601B710B820B930B6F3F5F
:105150007F4F8F4F9F4710F40E94C90E498941111C
:1051600001C0F1100E94E40E86E0E5E2F3E0DE010A
:10517000119601900D928A95E1F7F0902703E09047
:1051800028031091290300912A03109227031092FB
:1051900028031092290310922A038F2D8E2909F4D7
:1051A00048C080912303909124030E9417149C010E
:1051B00090911F03992309F482C325313105C8F169
:1051C0009F3F19F09F5F90931F03FF2059F00E94AB
:1051D000120B9FEF1F140CF491E0899F802D112476
:1051E00080932703EE2059F00E94120B9FEF1E14AC
:1051F0000CF491E0899F802D112480932803309135
:1052000027033323B1F020912803222391F045EBAB
:105210003403C0011124992309F426C39093270372
:1052200045EB240390011124332309F421C3309367
:105230002803812F802B09F448C08091210390918D
:1052400022030E9417149C0190911E03992309F4D4
:1052500031C321353105C8F19F3F19F09F5F90930D
:105260001E03112359F00E94F00A9FEF11160CF44F
:1052700091E0899F802D112480932903002359F008
:105280000E94F00A9FEF10160CF491E0899F802D88
:10529000112480932A03309129033323B1F0209104
:1052A0002A03222391F045EB3403C00111249923F2
:1052B00009F4E2C29093290345EB240390011124E1
:1052C000332309F4DDC230932A03809127039091A0
:1052D0002803892B90912903892B90912A03892BEC
:1052E00011F00E94321486E0FE013196A5E2B3E08F
:1052F00001900D928A95E1F70E94071090911D038D
:10530000891709F4A0CD80931D039DCD80E0D7CCF3
:1053100080E2DACC85E494E0EBCC80916D038430BC
:1053200031F10E94C90E10923E0388E190E0A0E4A2
:105330000FB6F894A895809360000FBEA09360000C
:1053400083B7817F846083BF83B7816083BF789494
:10535000889583B78E7F83BF0FB6F894A895809108
:105360006000886180936000109260000FBE8091A1
:105370006C03882361F00E94D123EFE8F2E0819171
:10538000811182C229E932E02E173F07C1F78091CF
:105390006D03853009F4C1CF0E9405150E940710E6
:1053A00059CDC394FF0C36E0C3126ACD0F5F1F4F77
:1053B0000A30110509F05ACD8FEF8C878D871E8634
:1053C0000E9426148160782F988B8F874C855D858D
:1053D0006E8588890E94032374CD40815181052EFA
:1053E000000C660B770B440E551E661E771E019649
:1053F0007DCD412C512C3201E4CD0E942614909396
:105400001C0380931B0360E080E00E944A0A8091A5
:10541000E60290E09093F8028093F7020E94071052
:105420000E94E40F882309F443C14091F302509194
:10543000F4026091F5027091F602CB01AA27BB2716
:105440000097A105B10509F449C0AC01BD0180E197
:10545000052F162F272F332701151105210531059B
:1054600019F0885FB901A8018A019B01A4E0369573
:10547000279517950795AA95D1F7011511052105CF
:10548000310519F08C5FB901A8018A019B01F2E096
:105490003695279517950795FA95D1F701151105BA
:1054A0002105310519F08E5FB901A8017695679540
:1054B00057954795452B462B472B09F08F5F823038
:1054C00009F4BDC068F48823A1F0813009F4B3C0A9
:1054D00060E083E398E00E94641110C080E0B8CFE0
:1054E000833009F4B0C0843099F760E08AE398E033
:1054F00003C060E082E598E00E941F110E9407103F
:10550000682F61708DE298E00E9464116091E7025B
:105510006093F20262FB662760F988E298E00E94DD
:1055200064118091F202817161E009F460E083E22C
:1055300098E00E9464118091F202827261E009F4A5
:1055400060E08EE198E00E9464116091F20266FBD7
:10555000662760F988E198E00E9464116091EE028C
:105560007091EF028091F0029091F1020E949709F0
:10557000693C71058105910508F43FC00E94B3099B
:105580006093EE027093EF028093F0029093F10229
:105590008091F202827209F05AC08091E902811171
:1055A00004C080913801811152C06FE080E00E94F8
:1055B0004A0A0E9410116CE080E00E944A0A81E0D1
:1055C000809338018091E80290E0019681709927DC
:1055D0008093E8022091F20241E050E0481B590B11
:1055E00030E6349FC001359F900D1124322F327266
:1055F000C9F1885A984F0E94C6078091F70290918E
:10560000F80202970CF044C06091EA027091EB023C
:105610008091EC029091ED020E94970961317742EE
:105620008105910510F00E94C90E809137038823EF
:1056300009F47BCD72CD60E08CE498E05DCF60E052
:1056400086E498E059CF60E080E498E055CF6CE0C4
:1056500080E00E944A0A0E9410116DE080E00E94E2
:105660004A0AB0CF217119F08856994FC4CF2091C2
:10567000F7023091F802203131051CF488529A4F1C
:10568000BACF273431058CF4885E9A4F0E94C60742
:105690000E94E40E0E94B3096093EA027093EB0249
:1056A0008093EC029093ED02C0CF885A9B4FEECFCF
:1056B00060E089E598E00E941F11B7CF80911A033E
:1056C00061E070E0811131CD082F10E01B01082E40
:1056D00002C0220C331C0A94E2F7A9014221532193
:1056E000452B09F448C09091190390FD46C082955E
:1056F000880F807680933B019801369527953695E3
:10570000279520933E01815E80933C0110923F01DA
:1057100024E630E047E050E069E371E088E70E946A
:10572000132D892B09F001CDA80195E0440F551FD9
:105730009A95E1F78091190380FD2DC044585C4F84
:1057400004E610E020E230E060E488E70E943A2DB1
:10575000892B09F0EACC0E94E40EC1018095909556
:1057600020907A0330907B032822392230927B03E9
:1057700020927A03DACC8F5FA7CF880F880F880F2B
:1057800080933B0110923E01895F80933C0183E04E
:1057900080933F01BDCFE9EFF2E080E2DF011D928F
:1057A0008A95E9F7E9E9F1E0FD8BEC8B85E9482E74
:1057B00081E0582E07E0DD24D394AC89BD896D913A
:1057C000BD8BAC8BF20181912F01840F952F911D20
:1057D0009C0124583C4F3B8B2A8BE62FF0E0E7508E
:1057E000FD4F30E020E0E02EE21A1D2D022E01C018
:1057F000110F0A94EAF76A887B8890E0D3018D91B3
:105800003D0181236E2D691B6770C62E062E000C8C
:10581000770BB82F01C0BB0FCA94EAF7CB2E719556
:10582000619571096770772701C086956A95EAF7D7
:10583000C82A8081C82AC0829F5F9830F9F62F5FFE
:105840003F4F31962830310571F6EDE9F1E02C89B2
:105850003D89E217F30709F0B0CF04E610E020E23B
:1058600030E049EF52E070CF81E080932703D8CC3D
:1058700081E080932803DDCC81E0809329031CCD57
:1058800081E080932A0321CD09BD19BD09B400FE32
:10589000FDCF8091D8008F7D8093D8008091E0006B
:1058A00082608093E0008091E00081FDFCCF0E9447
:1058B00005156DCD2B30310508F0D0CC06CD2B3041
:1058C000310508F07FCCB5CC1092B9008CE0809304
:1058D000B80008959F92AF92BF92CF92DF92EF925D
:1058E000FF920F931F93CF93DF93B82EEB010E948B
:1058F00026146C01EE24E394F12CC431D10560F040
:1059000025E0E22EF12CCF3FDC0731F0CE0164E13F
:1059100070E00E942F2F7B0184EAA82E94E8992E34
:105920001092BC00A092BC000E9426148C018091B1
:10593000BC0087FF0DC08091B900887F883039F1A5
:105940008091B900887F803111F10FEF1FEF09C0FE
:105950000E942614801B910B8E159F0540F30EEFBD
:105960001FEFCF3FDC07E1F2C6010E9417148C172E
:105970009D07B0F2C801DF91CF911F910F91FF9069
:10598000EF90DF90CF90BF90AF909F900895B0922E
:10599000BB009092BC000E9426148C018091BC0038
:1059A00087FF0AC08091B900887F883111F0803468
:1059B00061F610E000E0DECF0E942614801B910B00
:1059C0008E159F0558F3CBCF0F931F93CF93DF9383
:1059D000EB018093BB0084E88093BC000E942614F6
:1059E0008C018091BC0087FF11C02091B900287FF5
:1059F00081E090E0283211F490E080E0919581956B
:105A00009109DF91CF911F910F910895CF3FDC074E
:105A100041F30E942614801B910B8C179D0708F3FD
:105A20008EEF9FEFEECFCF92DF92EF92FF920F9328
:105A30001F93CF93DF936B018A017901B9010E9413
:105A40006A2CE6010C0D1D1DC017D10761F424E975
:105A50002093BC00DF91CF911F910F91FF90EF90A9
:105A6000DF90CF90089597FDF2CFB70189910E9402
:105A7000E42CEACFCF92DF92EF92FF920F931F9325
:105A8000CF93DF93C62F6A017901B8010E946A2C77
:105A900097FD0CC0B8018C2F0E94E42CE601EC0CA1
:105AA000FD1CCE15DF0511F097FF0CC024E92093F3
:105AB000BC00DF91CF911F910F91FF90EF90DF908D
:105AC000CF900895B80189910E94E42CEACF84E92F
:105AD0008093BC0008958EE14A9B02C08150E1F79B
